{
  "contractName": "CvcEscrow",
  "abi": [
    {
      "constant": true,
      "inputs": [],
      "name": "RATE_PRECISION",
      "outputs": [
        {
          "name": "",
          "type": "uint256"
        }
      ],
      "payable": false,
      "stateMutability": "view",
      "type": "function"
    },
    {
      "constant": false,
      "inputs": [],
      "name": "unpause",
      "outputs": [],
      "payable": false,
      "stateMutability": "nonpayable",
      "type": "function"
    },
    {
      "constant": true,
      "inputs": [],
      "name": "implementation",
      "outputs": [
        {
          "name": "impl",
          "type": "address"
        }
      ],
      "payable": false,
      "stateMutability": "view",
      "type": "function"
    },
    {
      "constant": true,
      "inputs": [],
      "name": "paused",
      "outputs": [
        {
          "name": "",
          "type": "bool"
        }
      ],
      "payable": false,
      "stateMutability": "view",
      "type": "function"
    },
    {
      "constant": false,
      "inputs": [],
      "name": "pause",
      "outputs": [],
      "payable": false,
      "stateMutability": "nonpayable",
      "type": "function"
    },
    {
      "constant": true,
      "inputs": [],
      "name": "owner",
      "outputs": [
        {
          "name": "",
          "type": "address"
        }
      ],
      "payable": false,
      "stateMutability": "view",
      "type": "function"
    },
    {
      "constant": false,
      "inputs": [
        {
          "name": "newOwner",
          "type": "address"
        }
      ],
      "name": "transferOwnership",
      "outputs": [],
      "payable": false,
      "stateMutability": "nonpayable",
      "type": "function"
    },
    {
      "inputs": [
        {
          "name": "_token",
          "type": "address"
        },
        {
          "name": "_platform",
          "type": "address"
        },
        {
          "name": "_pricing",
          "type": "address"
        }
      ],
      "payable": false,
      "stateMutability": "nonpayable",
      "type": "constructor"
    },
    {
      "anonymous": false,
      "inputs": [
        {
          "indexed": true,
          "name": "idr",
          "type": "address"
        },
        {
          "indexed": true,
          "name": "idv",
          "type": "address"
        },
        {
          "indexed": true,
          "name": "scopeRequestId",
          "type": "bytes32"
        },
        {
          "indexed": false,
          "name": "amount",
          "type": "uint256"
        },
        {
          "indexed": false,
          "name": "credentialItemIds",
          "type": "bytes32[]"
        },
        {
          "indexed": false,
          "name": "placementId",
          "type": "bytes32"
        }
      ],
      "name": "EscrowPlaced",
      "type": "event"
    },
    {
      "anonymous": false,
      "inputs": [
        {
          "indexed": true,
          "name": "idr",
          "type": "address"
        },
        {
          "indexed": true,
          "name": "idv",
          "type": "address"
        },
        {
          "indexed": true,
          "name": "scopeRequestId",
          "type": "bytes32"
        },
        {
          "indexed": false,
          "name": "amount",
          "type": "uint256"
        },
        {
          "indexed": false,
          "name": "credentialItemIds",
          "type": "bytes32[]"
        },
        {
          "indexed": false,
          "name": "oldPlacementId",
          "type": "bytes32"
        },
        {
          "indexed": false,
          "name": "placementId",
          "type": "bytes32"
        }
      ],
      "name": "EscrowMoved",
      "type": "event"
    },
    {
      "anonymous": false,
      "inputs": [
        {
          "indexed": true,
          "name": "idr",
          "type": "address"
        },
        {
          "indexed": true,
          "name": "idv",
          "type": "address"
        },
        {
          "indexed": true,
          "name": "scopeRequestId",
          "type": "bytes32"
        },
        {
          "indexed": false,
          "name": "platformFee",
          "type": "uint256"
        },
        {
          "indexed": false,
          "name": "idvFee",
          "type": "uint256"
        },
        {
          "indexed": false,
          "name": "credentialItemIds",
          "type": "bytes32[]"
        },
        {
          "indexed": false,
          "name": "placementId",
          "type": "bytes32"
        }
      ],
      "name": "EscrowReleased",
      "type": "event"
    },
    {
      "anonymous": false,
      "inputs": [
        {
          "indexed": true,
          "name": "idr",
          "type": "address"
        },
        {
          "indexed": true,
          "name": "idv",
          "type": "address"
        },
        {
          "indexed": true,
          "name": "scopeRequestId",
          "type": "bytes32"
        },
        {
          "indexed": false,
          "name": "amount",
          "type": "uint256"
        },
        {
          "indexed": false,
          "name": "credentialItemIds",
          "type": "bytes32[]"
        },
        {
          "indexed": false,
          "name": "placementId",
          "type": "bytes32"
        }
      ],
      "name": "EscrowCanceled",
      "type": "event"
    },
    {
      "anonymous": false,
      "inputs": [],
      "name": "Pause",
      "type": "event"
    },
    {
      "anonymous": false,
      "inputs": [],
      "name": "Unpause",
      "type": "event"
    },
    {
      "anonymous": false,
      "inputs": [
        {
          "indexed": true,
          "name": "previousOwner",
          "type": "address"
        },
        {
          "indexed": true,
          "name": "newOwner",
          "type": "address"
        }
      ],
      "name": "OwnershipTransferred",
      "type": "event"
    },
    {
      "constant": false,
      "inputs": [
        {
          "name": "_idv",
          "type": "address"
        },
        {
          "name": "_scopeRequestId",
          "type": "bytes32"
        },
        {
          "name": "_amount",
          "type": "uint256"
        },
        {
          "name": "_credentialItemIds",
          "type": "bytes32[]"
        }
      ],
      "name": "place",
      "outputs": [
        {
          "name": "",
          "type": "bytes32"
        }
      ],
      "payable": false,
      "stateMutability": "nonpayable",
      "type": "function"
    },
    {
      "constant": false,
      "inputs": [
        {
          "name": "_idv",
          "type": "address"
        },
        {
          "name": "_scopeRequestIds",
          "type": "bytes32[]"
        },
        {
          "name": "_amount",
          "type": "uint256"
        },
        {
          "name": "_credentialItemIds",
          "type": "bytes32[]"
        }
      ],
      "name": "placeBatch",
      "outputs": [
        {
          "name": "",
          "type": "bytes32"
        }
      ],
      "payable": false,
      "stateMutability": "nonpayable",
      "type": "function"
    },
    {
      "constant": false,
      "inputs": [
        {
          "name": "_idr",
          "type": "address"
        },
        {
          "name": "_idv",
          "type": "address"
        },
        {
          "name": "_scopeRequestId",
          "type": "bytes32"
        }
      ],
      "name": "release",
      "outputs": [],
      "payable": false,
      "stateMutability": "nonpayable",
      "type": "function"
    },
    {
      "constant": false,
      "inputs": [
        {
          "name": "_idr",
          "type": "address"
        },
        {
          "name": "_idv",
          "type": "address"
        },
        {
          "name": "_scopeRequestIdsToRelease",
          "type": "bytes32[]"
        },
        {
          "name": "_scopeRequestIdsToKeep",
          "type": "bytes32[]"
        }
      ],
      "name": "releaseBatch",
      "outputs": [
        {
          "name": "",
          "type": "bytes32"
        }
      ],
      "payable": false,
      "stateMutability": "nonpayable",
      "type": "function"
    },
    {
      "constant": false,
      "inputs": [
        {
          "name": "_idr",
          "type": "address"
        },
        {
          "name": "_idv",
          "type": "address"
        },
        {
          "name": "_scopeRequestId",
          "type": "bytes32"
        }
      ],
      "name": "refund",
      "outputs": [],
      "payable": false,
      "stateMutability": "nonpayable",
      "type": "function"
    },
    {
      "constant": false,
      "inputs": [
        {
          "name": "_idr",
          "type": "address"
        },
        {
          "name": "_idv",
          "type": "address"
        },
        {
          "name": "_scopeRequestIds",
          "type": "bytes32[]"
        }
      ],
      "name": "refundBatch",
      "outputs": [],
      "payable": false,
      "stateMutability": "nonpayable",
      "type": "function"
    },
    {
      "constant": true,
      "inputs": [
        {
          "name": "_idr",
          "type": "address"
        },
        {
          "name": "_idv",
          "type": "address"
        },
        {
          "name": "_scopeRequestId",
          "type": "bytes32"
        }
      ],
      "name": "verify",
      "outputs": [
        {
          "name": "placementAmount",
          "type": "uint256"
        },
        {
          "name": "placementState",
          "type": "uint8"
        },
        {
          "name": "credentialItemIds",
          "type": "bytes32[]"
        },
        {
          "name": "confirmations",
          "type": "uint256"
        },
        {
          "name": "refundable",
          "type": "bool"
        }
      ],
      "payable": false,
      "stateMutability": "view",
      "type": "function"
    },
    {
      "constant": true,
      "inputs": [
        {
          "name": "_idr",
          "type": "address"
        },
        {
          "name": "_idv",
          "type": "address"
        },
        {
          "name": "_scopeRequestIds",
          "type": "bytes32[]"
        }
      ],
      "name": "verifyBatch",
      "outputs": [
        {
          "name": "placementAmount",
          "type": "uint256"
        },
        {
          "name": "placementState",
          "type": "uint8"
        },
        {
          "name": "credentialItemIds",
          "type": "bytes32[]"
        },
        {
          "name": "confirmations",
          "type": "uint256"
        },
        {
          "name": "refundable",
          "type": "bool"
        }
      ],
      "payable": false,
      "stateMutability": "view",
      "type": "function"
    },
    {
      "constant": true,
      "inputs": [
        {
          "name": "_placementId",
          "type": "bytes32"
        }
      ],
      "name": "verifyPlacement",
      "outputs": [
        {
          "name": "placementAmount",
          "type": "uint256"
        },
        {
          "name": "placementState",
          "type": "uint8"
        },
        {
          "name": "credentialItemIds",
          "type": "bytes32[]"
        },
        {
          "name": "confirmations",
          "type": "uint256"
        },
        {
          "name": "refundable",
          "type": "bool"
        }
      ],
      "payable": false,
      "stateMutability": "view",
      "type": "function"
    },
    {
      "constant": false,
      "inputs": [
        {
          "name": "_token",
          "type": "address"
        },
        {
          "name": "_platform",
          "type": "address"
        },
        {
          "name": "_pricing",
          "type": "address"
        },
        {
          "name": "_owner",
          "type": "address"
        }
      ],
      "name": "initialize",
      "outputs": [],
      "payable": false,
      "stateMutability": "nonpayable",
      "type": "function"
    },
    {
      "constant": true,
      "inputs": [
        {
          "name": "_idr",
          "type": "address"
        },
        {
          "name": "_idv",
          "type": "address"
        },
        {
          "name": "_scopeRequestIds",
          "type": "bytes32[]"
        }
      ],
      "name": "calculatePlacementId",
      "outputs": [
        {
          "name": "",
          "type": "bytes32"
        }
      ],
      "payable": false,
      "stateMutability": "pure",
      "type": "function"
    },
    {
      "constant": true,
      "inputs": [
        {
          "name": "_amount",
          "type": "uint256"
        }
      ],
      "name": "calculatePlatformFee",
      "outputs": [
        {
          "name": "",
          "type": "uint256"
        }
      ],
      "payable": false,
      "stateMutability": "view",
      "type": "function"
    },
    {
      "constant": false,
      "inputs": [
        {
          "name": "_threshold",
          "type": "uint256"
        }
      ],
      "name": "setTimeoutThreshold",
      "outputs": [],
      "payable": false,
      "stateMutability": "nonpayable",
      "type": "function"
    },
    {
      "constant": true,
      "inputs": [],
      "name": "timeoutThreshold",
      "outputs": [
        {
          "name": "",
          "type": "uint256"
        }
      ],
      "payable": false,
      "stateMutability": "view",
      "type": "function"
    },
    {
      "constant": false,
      "inputs": [
        {
          "name": "_feeRate",
          "type": "uint256"
        }
      ],
      "name": "setFeeRate",
      "outputs": [],
      "payable": false,
      "stateMutability": "nonpayable",
      "type": "function"
    },
    {
      "constant": true,
      "inputs": [],
      "name": "platformFeeRate",
      "outputs": [
        {
          "name": "",
          "type": "uint256"
        }
      ],
      "payable": false,
      "stateMutability": "view",
      "type": "function"
    },
    {
      "constant": true,
      "inputs": [],
      "name": "token",
      "outputs": [
        {
          "name": "",
          "type": "address"
        }
      ],
      "payable": false,
      "stateMutability": "view",
      "type": "function"
    },
    {
      "constant": true,
      "inputs": [],
      "name": "pricing",
      "outputs": [
        {
          "name": "",
          "type": "address"
        }
      ],
      "payable": false,
      "stateMutability": "view",
      "type": "function"
    },
    {
      "constant": true,
      "inputs": [],
      "name": "platformAddress",
      "outputs": [
        {
          "name": "",
          "type": "address"
        }
      ],
      "payable": false,
      "stateMutability": "view",
      "type": "function"
    }
  ],
  "bytecode": "0x60806040523480156200001157600080fd5b50604051606080620064d683398101806040528101908080519060200190929190805190602001909291908051906020019092919050505060405180807f6376632e70726f78792e696d706c656d656e746174696f6e000000000000000081525060180190506040518091039020600019167fa490aab0d89837371982f93f57ffd20c47991f88066ef92475bc8233036969bb60010260001916141515620000b557fe5b620000d283838333620000db640100000000026401000000009004565b5050506200096c565b6000620000f6620007ac640100000000026401000000009004565b90506004600082604051602001808273ffffffffffffffffffffffffffffffffffffffff1673ffffffffffffffffffffffffffffffffffffffff166c01000000000000000000000000028152601401807f696e697469616c697a6564000000000000000000000000000000000000000000815250600b019150506040516020818303038152906040526040518082805190602001908083835b602083101515620001b657805182526020820191506020810190506020830392506200018f565b6001836020036101000a03801982511681845116808217855250505050505090500191505060405180910390206000191660001916815260200190815260200160002060009054906101000a900460ff161515156200027d576040517f08c379a000000000000000000000000000000000000000000000000000000000815260040180806020018281038252601f8152602001807f436f6e747261637420697320616c726561647920696e697469616c697a65640081525060200191505060405180910390fd5b6200029c85620007dd64010000000002620044e6176401000000009004565b151562000337576040517f08c379a00000000000000000000000000000000000000000000000000000000081526004018080602001828103825260408152602001807f496e697469616c697a6174696f6e206572726f723a206e6f20636f6e7472616381526020017f7420636f646520617420746f6b656e20636f6e7472616374206164647265737381525060400191505060405180910390fd5b6200035683620007dd64010000000002620044e6176401000000009004565b151562000417576040517f08c379a00000000000000000000000000000000000000000000000000000000081526004018080602001828103825260428152602001807f496e697469616c697a6174696f6e206572726f723a206e6f20636f6e7472616381526020017f7420636f64652061742070726963696e6720636f6e747261637420616464726581526020017f737300000000000000000000000000000000000000000000000000000000000081525060600191505060405180910390fd5b6116a860008060405180807f74696d656f75742e7468726573686f6c640000000000000000000000000000008152506011019050604051809103902060001916600019168152602001908152602001600020819055506298968060008060405180807f706c6174666f726d2e6665652e72617465000000000000000000000000000000815250601101905060405180910390206000191660001916815260200190815260200160002081905550620004de82620007f0640100000000026401000000009004565b846002600060405180807f6376632e746f6b656e0000000000000000000000000000000000000000000000815250600901905060405180910390206000191660001916815260200190815260200160002060006101000a81548173ffffffffffffffffffffffffffffffffffffffff021916908373ffffffffffffffffffffffffffffffffffffffff160217905550826002600060405180807f6376632e70726963696e67000000000000000000000000000000000000000000815250600b01905060405180910390206000191660001916815260200190815260200160002060006101000a81548173ffffffffffffffffffffffffffffffffffffffff021916908373ffffffffffffffffffffffffffffffffffffffff160217905550836002600060405180807f706c6174666f726d000000000000000000000000000000000000000000000000815250600801905060405180910390206000191660001916815260200190815260200160002060006101000a81548173ffffffffffffffffffffffffffffffffffffffff021916908373ffffffffffffffffffffffffffffffffffffffff16021790555060016004600083604051602001808273ffffffffffffffffffffffffffffffffffffffff1673ffffffffffffffffffffffffffffffffffffffff166c01000000000000000000000000028152601401807f696e697469616c697a6564000000000000000000000000000000000000000000815250600b019150506040516020818303038152906040526040518082805190602001908083835b6020831015156200074b578051825260208201915060208101905060208303925062000724565b6001836020036101000a03801982511681845116808217855250505050505090500191505060405180910390206000191660001916815260200190815260200160002060006101000a81548160ff0219169083151502179055505050505050565b6000807fa490aab0d89837371982f93f57ffd20c47991f88066ef92475bc8233036969bb6001029050805491505090565b600080823b905060008111915050919050565b8073ffffffffffffffffffffffffffffffffffffffff1662000820620008f4640100000000026401000000009004565b73ffffffffffffffffffffffffffffffffffffffff167f8be0079c531659141344cd1fd0a4f28419497f9722a3daafe3b4186f6b6457e060405160405180910390a3806002600060405180807f6f776e6572000000000000000000000000000000000000000000000000000000815250600501905060405180910390206000191660001916815260200190815260200160002060006101000a81548173ffffffffffffffffffffffffffffffffffffffff021916908373ffffffffffffffffffffffffffffffffffffffff16021790555050565b60006002600060405180807f6f776e6572000000000000000000000000000000000000000000000000000000815250600501905060405180910390206000191660001916815260200190815260200160002060009054906101000a900473ffffffffffffffffffffffffffffffffffffffff16905090565b615b5a806200097c6000396000f300608060405260043610610154576000357c0100000000000000000000000000000000000000000000000000000000900463ffffffff1680630cbab4f714610159578063229d9bbc1461019a57806325dfac811461024e5780632b3ba6811461027b5780633c798c6d146102a65780633f4ba83a1461033f57806345596e2e146103565780635c60da1b146103835780635c975abb146103da5780637ce914111461040957806381c33caa146104605780638456cb59146104ef5780638da5cb5b14610506578063910902b01461055d578063b8a53313146105ce578063d4d9ef9c1461067d578063d9dab0ea146106a8578063dab9988514610719578063dbe55e5614610817578063e142ae561461086e578063ed24aa72146108e9578063eeca08f0146109dd578063f2fde38b14610a08578063f8c8765e14610a4b578063f9f7529a14610aee578063fc0c546a14610bb0575b600080fd5b34801561016557600080fd5b5061018460048036038101908080359060200190929190505050610c07565b6040518082815260200191505060405180910390f35b3480156101a657600080fd5b506101c96004803603810190808035600019169060200190929190505050610c69565b604051808681526020018560038111156101df57fe5b60ff1681526020018060200184815260200183151515158152602001828103825285818151815260200191508051906020019060200280838360005b8381101561023657808201518184015260208101905061021b565b50505050905001965050505050505060405180910390f35b34801561025a57600080fd5b5061027960048036038101908080359060200190929190505050610c8d565b005b34801561028757600080fd5b50610290610fb4565b6040518082815260200191505060405180910390f35b3480156102b257600080fd5b50610321600480360381019080803573ffffffffffffffffffffffffffffffffffffffff16906020019092919080359060200190820180359060200191909192939192939080359060200190929190803590602001908201803590602001919091929391929390505050610fbc565b60405180826000191660001916815260200191505060405180910390f35b34801561034b57600080fd5b50610354611239565b005b34801561036257600080fd5b50610381600480360381019080803590602001909291905050506114d2565b005b34801561038f57600080fd5b50610398611823565b604051808273ffffffffffffffffffffffffffffffffffffffff1673ffffffffffffffffffffffffffffffffffffffff16815260200191505060405180910390f35b3480156103e657600080fd5b506103ef611854565b604051808215151515815260200191505060405180910390f35b34801561041557600080fd5b5061041e61196f565b604051808273ffffffffffffffffffffffffffffffffffffffff1673ffffffffffffffffffffffffffffffffffffffff16815260200191505060405180910390f35b34801561046c57600080fd5b506104d1600480360381019080803573ffffffffffffffffffffffffffffffffffffffff1690602001909291908035600019169060200190929190803590602001909291908035906020019082018035906020019190919293919293905050506119e7565b60405180826000191660001916815260200191505060405180910390f35b3480156104fb57600080fd5b50610504611c92565b005b34801561051257600080fd5b5061051b611f2c565b604051808273ffffffffffffffffffffffffffffffffffffffff1673ffffffffffffffffffffffffffffffffffffffff16815260200191505060405180910390f35b34801561056957600080fd5b506105cc600480360381019080803573ffffffffffffffffffffffffffffffffffffffff169060200190929190803573ffffffffffffffffffffffffffffffffffffffff1690602001909291908035600019169060200190929190505050611fa4565b005b3480156105da57600080fd5b5061065f600480360381019080803573ffffffffffffffffffffffffffffffffffffffff169060200190929190803573ffffffffffffffffffffffffffffffffffffffff169060200190929190803590602001908201803590602001919091929391929390803590602001908201803590602001919091929391929390505050612217565b60405180826000191660001916815260200191505060405180910390f35b34801561068957600080fd5b50610692612564565b6040518082815260200191505060405180910390f35b3480156106b457600080fd5b50610717600480360381019080803573ffffffffffffffffffffffffffffffffffffffff169060200190929190803573ffffffffffffffffffffffffffffffffffffffff16906020019092919080356000191690602001909291905050506125bb565b005b34801561072557600080fd5b50610792600480360381019080803573ffffffffffffffffffffffffffffffffffffffff169060200190929190803573ffffffffffffffffffffffffffffffffffffffff169060200190929190803590602001908201803590602001919091929391929390505050612930565b604051808681526020018560038111156107a857fe5b60ff1681526020018060200184815260200183151515158152602001828103825285818151815260200191508051906020019060200280838360005b838110156107ff5780820151818401526020810190506107e4565b50505050905001965050505050505060405180910390f35b34801561082357600080fd5b5061082c61298f565b604051808273ffffffffffffffffffffffffffffffffffffffff1673ffffffffffffffffffffffffffffffffffffffff16815260200191505060405180910390f35b34801561087a57600080fd5b506108e7600480360381019080803573ffffffffffffffffffffffffffffffffffffffff169060200190929190803573ffffffffffffffffffffffffffffffffffffffff169060200190929190803590602001908201803590602001919091929391929390505050612a07565b005b3480156108f557600080fd5b50610958600480360381019080803573ffffffffffffffffffffffffffffffffffffffff169060200190929190803573ffffffffffffffffffffffffffffffffffffffff1690602001909291908035600019169060200190929190505050612c4c565b6040518086815260200185600381111561096e57fe5b60ff1681526020018060200184815260200183151515158152602001828103825285818151815260200191508051906020019060200280838360005b838110156109c55780820151818401526020810190506109aa565b50505050905001965050505050505060405180910390f35b3480156109e957600080fd5b506109f2612cda565b6040518082815260200191505060405180910390f35b348015610a1457600080fd5b50610a49600480360381019080803573ffffffffffffffffffffffffffffffffffffffff169060200190929190505050612d31565b005b348015610a5757600080fd5b50610aec600480360381019080803573ffffffffffffffffffffffffffffffffffffffff169060200190929190803573ffffffffffffffffffffffffffffffffffffffff169060200190929190803573ffffffffffffffffffffffffffffffffffffffff169060200190929190803573ffffffffffffffffffffffffffffffffffffffff169060200190929190505050612ed8565b005b348015610afa57600080fd5b50610b92600480360381019080803573ffffffffffffffffffffffffffffffffffffffff169060200190929190803573ffffffffffffffffffffffffffffffffffffffff16906020019092919080359060200190820180359060200190808060200260200160405190810160405280939291908181526020018383602002808284378201915050505050509192919290505050613554565b60405180826000191660001916815260200191505060405180910390f35b348015610bbc57600080fd5b50610bc561380c565b604051808273ffffffffffffffffffffffffffffffffffffffff1673ffffffffffffffffffffffffffffffffffffffff16815260200191505060405180910390f35b6000610c626305f5e100610c54610c2c60026305f5e10061388490919063ffffffff16565b610c46610c37612cda565b8761389a90919063ffffffff16565b6138d290919063ffffffff16565b61388490919063ffffffff16565b9050919050565b6000806060600080610c7a866138ee565b9450945094509450945091939590929450565b610c95611f2c565b73ffffffffffffffffffffffffffffffffffffffff163373ffffffffffffffffffffffffffffffffffffffff16141515610d5d576040517f08c379a00000000000000000000000000000000000000000000000000000000081526004018080602001828103825260258152602001807f4d6573736167652073656e646572206d75737420626520636f6e74726163742081526020017f61646d696e00000000000000000000000000000000000000000000000000000081525060400191505060405180910390fd5b60046000610d69611823565b604051602001808273ffffffffffffffffffffffffffffffffffffffff1673ffffffffffffffffffffffffffffffffffffffff166c01000000000000000000000000028152601401807f696e697469616c697a6564000000000000000000000000000000000000000000815250600b019150506040516020818303038152906040526040518082805190602001908083835b602083101515610e205780518252602082019150602081019050602083039250610dfb565b6001836020036101000a03801982511681845116808217855250505050505090500191505060405180910390206000191660001916815260200190815260200160002060009054906101000a900460ff161515610ee5576040517f08c379a000000000000000000000000000000000000000000000000000000000815260040180806020018281038252601b8152602001807f436f6e7472616374206973206e6f7420696e697469616c697a6564000000000081525060200191505060405180910390fd5b600081111515610f5d576040517f08c379a00000000000000000000000000000000000000000000000000000000081526004018080602001828103825260208152602001807f54696d656f7574207468726573686f6c642063616e6e6f74206265207a65726f81525060200191505060405180910390fd5b8060008060405180807f74696d656f75742e7468726573686f6c6400000000000000000000000000000081525060110190506040518091039020600019166000191681526020019081526020016000208190555050565b6305f5e10081565b600060046000610fca611823565b604051602001808273ffffffffffffffffffffffffffffffffffffffff1673ffffffffffffffffffffffffffffffffffffffff166c01000000000000000000000000028152601401807f696e697469616c697a6564000000000000000000000000000000000000000000815250600b019150506040516020818303038152906040526040518082805190602001908083835b602083101515611081578051825260208201915060208101905060208303925061105c565b6001836020036101000a03801982511681845116808217855250505050505090500191505060405180910390206000191660001916815260200190815260200160002060009054906101000a900460ff161515611146576040517f08c379a000000000000000000000000000000000000000000000000000000000815260040180806020018281038252601b8152602001807f436f6e7472616374206973206e6f7420696e697469616c697a6564000000000081525060200191505060405180910390fd5b61114e611854565b1515156111c3576040517f08c379a00000000000000000000000000000000000000000000000000000000081526004018080602001828103825260128152602001807f436f6e747261637420697320706175736564000000000000000000000000000081525060200191505060405180910390fd5b61122d878787808060200260200160405190810160405280939291908181526020018383602002808284378201915050505050508686868080602002602001604051908101604052809392919081815260200183836020028082843782019150505050505061399b565b90509695505050505050565b611241611f2c565b73ffffffffffffffffffffffffffffffffffffffff163373ffffffffffffffffffffffffffffffffffffffff16141515611309576040517f08c379a00000000000000000000000000000000000000000000000000000000081526004018080602001828103825260258152602001807f4d6573736167652073656e646572206d75737420626520636f6e74726163742081526020017f61646d696e00000000000000000000000000000000000000000000000000000081525060400191505060405180910390fd5b611311611854565b1515611385576040517f08c379a00000000000000000000000000000000000000000000000000000000081526004018080602001828103825260178152602001807f436f6e7472616374206d7573742062652070617573656400000000000000000081525060200191505060405180910390fd5b600060046000611393611823565b604051602001808273ffffffffffffffffffffffffffffffffffffffff1673ffffffffffffffffffffffffffffffffffffffff166c01000000000000000000000000028152601401807f70617573656400000000000000000000000000000000000000000000000000008152506006019150506040516020818303038152906040526040518082805190602001908083835b60208310151561144a5780518252602082019150602081019050602083039250611425565b6001836020036101000a03801982511681845116808217855250505050505090500191505060405180910390206000191660001916815260200190815260200160002060006101000a81548160ff0219169083151502179055507f7805862f689e2f13df9f062ff482ad3ad112aca9e0847911ed832e158c525b3360405160405180910390a1565b6114da611f2c565b73ffffffffffffffffffffffffffffffffffffffff163373ffffffffffffffffffffffffffffffffffffffff161415156115a2576040517f08c379a00000000000000000000000000000000000000000000000000000000081526004018080602001828103825260258152602001807f4d6573736167652073656e646572206d75737420626520636f6e74726163742081526020017f61646d696e00000000000000000000000000000000000000000000000000000081525060400191505060405180910390fd5b600460006115ae611823565b604051602001808273ffffffffffffffffffffffffffffffffffffffff1673ffffffffffffffffffffffffffffffffffffffff166c01000000000000000000000000028152601401807f696e697469616c697a6564000000000000000000000000000000000000000000815250600b019150506040516020818303038152906040526040518082805190602001908083835b6020831015156116655780518252602082019150602081019050602083039250611640565b6001836020036101000a03801982511681845116808217855250505050505090500191505060405180910390206000191660001916815260200190815260200160002060009054906101000a900460ff16151561172a576040517f08c379a000000000000000000000000000000000000000000000000000000000815260040180806020018281038252601b8152602001807f436f6e7472616374206973206e6f7420696e697469616c697a6564000000000081525060200191505060405180910390fd5b6305f5e10081111515156117cc576040517f08c379a000000000000000000000000000000000000000000000000000000000815260040180806020018281038252602a8152602001807f506c6174666f726d2066656520726174652063616e6e6f74206265206d6f726581526020017f207468616e20313030250000000000000000000000000000000000000000000081525060400191505060405180910390fd5b8060008060405180807f706c6174666f726d2e6665652e7261746500000000000000000000000000000081525060110190506040518091039020600019166000191681526020019081526020016000208190555050565b6000807fa490aab0d89837371982f93f57ffd20c47991f88066ef92475bc8233036969bb6001029050805491505090565b600060046000611862611823565b604051602001808273ffffffffffffffffffffffffffffffffffffffff1673ffffffffffffffffffffffffffffffffffffffff166c01000000000000000000000000028152601401807f70617573656400000000000000000000000000000000000000000000000000008152506006019150506040516020818303038152906040526040518082805190602001908083835b60208310151561191957805182526020820191506020810190506020830392506118f4565b6001836020036101000a03801982511681845116808217855250505050505090500191505060405180910390206000191660001916815260200190815260200160002060009054906101000a900460ff16905090565b60006002600060405180807f6376632e70726963696e67000000000000000000000000000000000000000000815250600b01905060405180910390206000191660001916815260200190815260200160002060009054906101000a900473ffffffffffffffffffffffffffffffffffffffff16905090565b60006060600460006119f7611823565b604051602001808273ffffffffffffffffffffffffffffffffffffffff1673ffffffffffffffffffffffffffffffffffffffff166c01000000000000000000000000028152601401807f696e697469616c697a6564000000000000000000000000000000000000000000815250600b019150506040516020818303038152906040526040518082805190602001908083835b602083101515611aae5780518252602082019150602081019050602083039250611a89565b6001836020036101000a03801982511681845116808217855250505050505090500191505060405180910390206000191660001916815260200190815260200160002060009054906101000a900460ff161515611b73576040517f08c379a000000000000000000000000000000000000000000000000000000000815260040180806020018281038252601b8152602001807f436f6e7472616374206973206e6f7420696e697469616c697a6564000000000081525060200191505060405180910390fd5b611b7b611854565b151515611bf0576040517f08c379a00000000000000000000000000000000000000000000000000000000081526004018080602001828103825260128152602001807f436f6e747261637420697320706175736564000000000000000000000000000081525060200191505060405180910390fd5b6001604051908082528060200260200182016040528015611c205781602001602082028038833980820191505090505b50905085816000815181101515611c3357fe5b906020019060200201906000191690816000191681525050611c8687828787878080602002602001604051908101604052809392919081815260200183836020028082843782019150505050505061399b565b91505095945050505050565b611c9a611f2c565b73ffffffffffffffffffffffffffffffffffffffff163373ffffffffffffffffffffffffffffffffffffffff16141515611d62576040517f08c379a00000000000000000000000000000000000000000000000000000000081526004018080602001828103825260258152602001807f4d6573736167652073656e646572206d75737420626520636f6e74726163742081526020017f61646d696e00000000000000000000000000000000000000000000000000000081525060400191505060405180910390fd5b611d6a611854565b151515611ddf576040517f08c379a00000000000000000000000000000000000000000000000000000000081526004018080602001828103825260128152602001807f436f6e747261637420697320706175736564000000000000000000000000000081525060200191505060405180910390fd5b600160046000611ded611823565b604051602001808273ffffffffffffffffffffffffffffffffffffffff1673ffffffffffffffffffffffffffffffffffffffff166c01000000000000000000000000028152601401807f70617573656400000000000000000000000000000000000000000000000000008152506006019150506040516020818303038152906040526040518082805190602001908083835b602083101515611ea45780518252602082019150602081019050602083039250611e7f565b6001836020036101000a03801982511681845116808217855250505050505090500191505060405180910390206000191660001916815260200190815260200160002060006101000a81548160ff0219169083151502179055507f6985a02210a168e66602d3235cb6db0e70f92b3ba4d376a33c0f3d9434bff62560405160405180910390a1565b60006002600060405180807f6f776e6572000000000000000000000000000000000000000000000000000000815250600501905060405180910390206000191660001916815260200190815260200160002060009054906101000a900473ffffffffffffffffffffffffffffffffffffffff16905090565b606060046000611fb2611823565b604051602001808273ffffffffffffffffffffffffffffffffffffffff1673ffffffffffffffffffffffffffffffffffffffff166c01000000000000000000000000028152601401807f696e697469616c697a6564000000000000000000000000000000000000000000815250600b019150506040516020818303038152906040526040518082805190602001908083835b6020831015156120695780518252602082019150602081019050602083039250612044565b6001836020036101000a03801982511681845116808217855250505050505090500191505060405180910390206000191660001916815260200190815260200160002060009054906101000a900460ff16151561212e576040517f08c379a000000000000000000000000000000000000000000000000000000000815260040180806020018281038252601b8152602001807f436f6e7472616374206973206e6f7420696e697469616c697a6564000000000081525060200191505060405180910390fd5b612136611854565b1515156121ab576040517f08c379a00000000000000000000000000000000000000000000000000000000081526004018080602001828103825260128152602001807f436f6e747261637420697320706175736564000000000000000000000000000081525060200191505060405180910390fd5b60016040519080825280602002602001820160405280156121db5781602001602082028038833980820191505090505b509050818160008151811015156121ee57fe5b906020019060200201906000191690816000191681525050612211848483613d2e565b50505050565b6000612221611f2c565b73ffffffffffffffffffffffffffffffffffffffff163373ffffffffffffffffffffffffffffffffffffffff161415156122e9576040517f08c379a00000000000000000000000000000000000000000000000000000000081526004018080602001828103825260258152602001807f4d6573736167652073656e646572206d75737420626520636f6e74726163742081526020017f61646d696e00000000000000000000000000000000000000000000000000000081525060400191505060405180910390fd5b600460006122f5611823565b604051602001808273ffffffffffffffffffffffffffffffffffffffff1673ffffffffffffffffffffffffffffffffffffffff166c01000000000000000000000000028152601401807f696e697469616c697a6564000000000000000000000000000000000000000000815250600b019150506040516020818303038152906040526040518082805190602001908083835b6020831015156123ac5780518252602082019150602081019050602083039250612387565b6001836020036101000a03801982511681845116808217855250505050505090500191505060405180910390206000191660001916815260200190815260200160002060009054906101000a900460ff161515612471576040517f08c379a000000000000000000000000000000000000000000000000000000000815260040180806020018281038252601b8152602001807f436f6e7472616374206973206e6f7420696e697469616c697a6564000000000081525060200191505060405180910390fd5b612479611854565b1515156124ee576040517f08c379a00000000000000000000000000000000000000000000000000000000081526004018080602001828103825260128152602001807f436f6e747261637420697320706175736564000000000000000000000000000081525060200191505060405180910390fd5b6125588787878780806020026020016040519081016040528093929190818152602001838360200280828437820191505050505050868680806020026020016040519081016040528093929190818152602001838360200280828437820191505050505050614087565b90509695505050505050565b600080600060405180807f74696d656f75742e7468726573686f6c64000000000000000000000000000000815250601101905060405180910390206000191660001916815260200190815260200160002054905090565b60606125c5611f2c565b73ffffffffffffffffffffffffffffffffffffffff163373ffffffffffffffffffffffffffffffffffffffff1614151561268d576040517f08c379a00000000000000000000000000000000000000000000000000000000081526004018080602001828103825260258152602001807f4d6573736167652073656e646572206d75737420626520636f6e74726163742081526020017f61646d696e00000000000000000000000000000000000000000000000000000081525060400191505060405180910390fd5b60046000612699611823565b604051602001808273ffffffffffffffffffffffffffffffffffffffff1673ffffffffffffffffffffffffffffffffffffffff166c01000000000000000000000000028152601401807f696e697469616c697a6564000000000000000000000000000000000000000000815250600b019150506040516020818303038152906040526040518082805190602001908083835b602083101515612750578051825260208201915060208101905060208303925061272b565b6001836020036101000a03801982511681845116808217855250505050505090500191505060405180910390206000191660001916815260200190815260200160002060009054906101000a900460ff161515612815576040517f08c379a000000000000000000000000000000000000000000000000000000000815260040180806020018281038252601b8152602001807f436f6e7472616374206973206e6f7420696e697469616c697a6564000000000081525060200191505060405180910390fd5b61281d611854565b151515612892576040517f08c379a00000000000000000000000000000000000000000000000000000000081526004018080602001828103825260128152602001807f436f6e747261637420697320706175736564000000000000000000000000000081525060200191505060405180910390fd5b60016040519080825280602002602001820160405280156128c25781602001602082028038833980820191505090505b509050818160008151811015156128d557fe5b90602001906020020190600019169081600019168152505061292984848360006040519080825280602002602001820160405280156129235781602001602082028038833980820191505090505b50614087565b5050505050565b600080606060008061297a6129758a8a8a8a80806020026020016040519081016040528093929190818152602001838360200280828437820191505050505050613554565b6138ee565b94509450945094509450945094509450945094565b60006002600060405180807f706c6174666f726d000000000000000000000000000000000000000000000000815250600801905060405180910390206000191660001916815260200190815260200160002060009054906101000a900473ffffffffffffffffffffffffffffffffffffffff16905090565b60046000612a13611823565b604051602001808273ffffffffffffffffffffffffffffffffffffffff1673ffffffffffffffffffffffffffffffffffffffff166c01000000000000000000000000028152601401807f696e697469616c697a6564000000000000000000000000000000000000000000815250600b019150506040516020818303038152906040526040518082805190602001908083835b602083101515612aca5780518252602082019150602081019050602083039250612aa5565b6001836020036101000a03801982511681845116808217855250505050505090500191505060405180910390206000191660001916815260200190815260200160002060009054906101000a900460ff161515612b8f576040517f08c379a000000000000000000000000000000000000000000000000000000000815260040180806020018281038252601b8152602001807f436f6e7472616374206973206e6f7420696e697469616c697a6564000000000081525060200191505060405180910390fd5b612b97611854565b151515612c0c576040517f08c379a00000000000000000000000000000000000000000000000000000000081526004018080602001828103825260128152602001807f436f6e747261637420697320706175736564000000000000000000000000000081525060200191505060405180910390fd5b612c468484848480806020026020016040519081016040528093929190818152602001838360200280828437820191505050505050613d2e565b50505050565b600080606060008060606001604051908082528060200260200182016040528015612c865781602001602082028038833980820191505090505b50905086816000815181101515612c9957fe5b906020019060200201906000191690816000191681525050612cc4612cbf8a8a84613554565b6138ee565b9550955095509550955050939792965093509350565b600080600060405180807f706c6174666f726d2e6665652e72617465000000000000000000000000000000815250601101905060405180910390206000191660001916815260200190815260200160002054905090565b612d39611f2c565b73ffffffffffffffffffffffffffffffffffffffff163373ffffffffffffffffffffffffffffffffffffffff16141515612e01576040517f08c379a00000000000000000000000000000000000000000000000000000000081526004018080602001828103825260258152602001807f4d6573736167652073656e646572206d75737420626520636f6e74726163742081526020017f61646d696e00000000000000000000000000000000000000000000000000000081525060400191505060405180910390fd5b600073ffffffffffffffffffffffffffffffffffffffff168173ffffffffffffffffffffffffffffffffffffffff1614151515612ecc576040517f08c379a00000000000000000000000000000000000000000000000000000000081526004018080602001828103825260258152602001807f436f6e7472616374206f776e65722063616e6e6f74206265207a65726f20616481526020017f647265737300000000000000000000000000000000000000000000000000000081525060400191505060405180910390fd5b612ed5816143f3565b50565b6000612ee2611823565b90506004600082604051602001808273ffffffffffffffffffffffffffffffffffffffff1673ffffffffffffffffffffffffffffffffffffffff166c01000000000000000000000000028152601401807f696e697469616c697a6564000000000000000000000000000000000000000000815250600b019150506040516020818303038152906040526040518082805190602001908083835b602083101515612fa05780518252602082019150602081019050602083039250612f7b565b6001836020036101000a03801982511681845116808217855250505050505090500191505060405180910390206000191660001916815260200190815260200160002060009054906101000a900460ff16151515613066576040517f08c379a000000000000000000000000000000000000000000000000000000000815260040180806020018281038252601f8152602001807f436f6e747261637420697320616c726561647920696e697469616c697a65640081525060200191505060405180910390fd5b61306f856144e6565b1515613109576040517f08c379a00000000000000000000000000000000000000000000000000000000081526004018080602001828103825260408152602001807f496e697469616c697a6174696f6e206572726f723a206e6f20636f6e7472616381526020017f7420636f646520617420746f6b656e20636f6e7472616374206164647265737381525060400191505060405180910390fd5b613112836144e6565b15156131d2576040517f08c379a00000000000000000000000000000000000000000000000000000000081526004018080602001828103825260428152602001807f496e697469616c697a6174696f6e206572726f723a206e6f20636f6e7472616381526020017f7420636f64652061742070726963696e6720636f6e747261637420616464726581526020017f737300000000000000000000000000000000000000000000000000000000000081525060600191505060405180910390fd5b6116a860008060405180807f74696d656f75742e7468726573686f6c640000000000000000000000000000008152506011019050604051809103902060001916600019168152602001908152602001600020819055506298968060008060405180807f706c6174666f726d2e6665652e72617465000000000000000000000000000000815250601101905060405180910390206000191660001916815260200190815260200160002081905550613288826143f3565b846002600060405180807f6376632e746f6b656e0000000000000000000000000000000000000000000000815250600901905060405180910390206000191660001916815260200190815260200160002060006101000a81548173ffffffffffffffffffffffffffffffffffffffff021916908373ffffffffffffffffffffffffffffffffffffffff160217905550826002600060405180807f6376632e70726963696e67000000000000000000000000000000000000000000815250600b01905060405180910390206000191660001916815260200190815260200160002060006101000a81548173ffffffffffffffffffffffffffffffffffffffff021916908373ffffffffffffffffffffffffffffffffffffffff160217905550836002600060405180807f706c6174666f726d000000000000000000000000000000000000000000000000815250600801905060405180910390206000191660001916815260200190815260200160002060006101000a81548173ffffffffffffffffffffffffffffffffffffffff021916908373ffffffffffffffffffffffffffffffffffffffff16021790555060016004600083604051602001808273ffffffffffffffffffffffffffffffffffffffff1673ffffffffffffffffffffffffffffffffffffffff166c01000000000000000000000000028152601401807f696e697469616c697a6564000000000000000000000000000000000000000000815250600b019150506040516020818303038152906040526040518082805190602001908083835b6020831015156134f357805182526020820191506020810190506020830392506134ce565b6001836020036101000a03801982511681845116808217855250505050505090500191505060405180910390206000191660001916815260200190815260200160002060006101000a81548160ff0219169083151502179055505050505050565b60008073ffffffffffffffffffffffffffffffffffffffff168473ffffffffffffffffffffffffffffffffffffffff1614151515613620576040517f08c379a000000000000000000000000000000000000000000000000000000000815260040180806020018281038252603b8152602001807f43616e6e6f742063616c63756c61746520706c6163656d656e7420494420776981526020017f746820494452206265696e672061207a65726f2061646472657373000000000081525060400191505060405180910390fd5b600073ffffffffffffffffffffffffffffffffffffffff168373ffffffffffffffffffffffffffffffffffffffff16141515156136eb576040517f08c379a000000000000000000000000000000000000000000000000000000000815260040180806020018281038252603b8152602001807f43616e6e6f742063616c63756c61746520706c6163656d656e7420494420776981526020017f746820494456206265696e672061207a65726f2061646472657373000000000081525060400191505060405180910390fd5b83836136f6846144f9565b604051602001808473ffffffffffffffffffffffffffffffffffffffff1673ffffffffffffffffffffffffffffffffffffffff166c010000000000000000000000000281526014018373ffffffffffffffffffffffffffffffffffffffff1673ffffffffffffffffffffffffffffffffffffffff166c01000000000000000000000000028152601401826000191660001916815260200193505050506040516020818303038152906040526040518082805190602001908083835b6020831015156137d657805182526020820191506020810190506020830392506137b1565b6001836020036101000a038019825116818451168082178552505050505050905001915050604051809103902090509392505050565b60006002600060405180807f6376632e746f6b656e0000000000000000000000000000000000000000000000815250600901905060405180910390206000191660001916815260200190815260200160002060009054906101000a900473ffffffffffffffffffffffffffffffffffffffff16905090565b6000818381151561389157fe5b04905092915050565b6000808314156138ad57600090506138cc565b81830290508183828115156138be57fe5b041415156138c857fe5b8090505b92915050565b600081830190508281101515156138e557fe5b80905092915050565b600080606060008060006139018761467f565b94506001600381111561391057fe5b85600381111561391c57fe5b14613928576000613932565b61393187614787565b5b955061393d87614884565b935061394887614afc565b90506000600381111561395757fe5b85600381111561396357fe5b146139805761397b8143614bf990919063ffffffff16565b613983565b60005b925061398f8582614c12565b91505091939590929450565b6000806000806139ac338989613554565b92506139ba88868951614c5a565b86141515613a56576040517f08c379a000000000000000000000000000000000000000000000000000000000815260040180806020018281038252603b8152602001807f506c6163656d656e7420616d6f756e7420646f6573206e6f74206d617463682081526020017f63726564656e7469616c206974656d20746f74616c207072696365000000000081525060400191505060405180910390fd5b613a6283878743614ef5565b613a6a61380c565b73ffffffffffffffffffffffffffffffffffffffff166323b872dd3330896040518463ffffffff167c0100000000000000000000000000000000000000000000000000000000028152600401808473ffffffffffffffffffffffffffffffffffffffff1673ffffffffffffffffffffffffffffffffffffffff1681526020018373ffffffffffffffffffffffffffffffffffffffff1673ffffffffffffffffffffffffffffffffffffffff1681526020018281526020019350505050602060405180830381600087803b158015613b4057600080fd5b505af1158015613b54573d6000803e3d6000fd5b505050506040513d6020811015613b6a57600080fd5b81019080805190602001909291905050501515613c15576040517f08c379a00000000000000000000000000000000000000000000000000000000081526004018080602001828103825260268152602001807f546f6b656e207472616e736665722066726f6d20494452206163636f756e742081526020017f6661696c6564000000000000000000000000000000000000000000000000000081525060400191505060405180910390fd5b613c2987518761388490919063ffffffff16565b9150600090505b8651811015613d20578681815181101515613c4757fe5b90602001906020020151600019168873ffffffffffffffffffffffffffffffffffffffff163373ffffffffffffffffffffffffffffffffffffffff167f03b1f20cc99d8e7f255fb858eb90a143c3e574a61e49dee9a5b129c405af8b2285898860405180848152602001806020018360001916600019168152602001828103825284818151815260200191508051906020019060200280838360005b83811015613cfe578082015181840152602081019050613ce3565b5050505090500194505050505060405180910390a48080600101915050613c30565b829350505050949350505050565b600080600060606000613d42888888613554565b9450613d5e613d508661467f565b613d5987614afc565b614c12565b1515613dd2576040517f08c379a000000000000000000000000000000000000000000000000000000000815260040180806020018281038252601f8152602001807f506c6163656d656e74206973206e6f7420726566756e6461626c65207965740081525060200191505060405180910390fd5b613ddd856003615006565b613de685614787565b9350613df061380c565b73ffffffffffffffffffffffffffffffffffffffff1663a9059cbb89866040518363ffffffff167c0100000000000000000000000000000000000000000000000000000000028152600401808373ffffffffffffffffffffffffffffffffffffffff1673ffffffffffffffffffffffffffffffffffffffff16815260200182815260200192505050602060405180830381600087803b158015613e9257600080fd5b505af1158015613ea6573d6000803e3d6000fd5b505050506040513d6020811015613ebc57600080fd5b81019080805190602001909291905050501515613f67576040517f08c379a00000000000000000000000000000000000000000000000000000000081526004018080602001828103825260248152602001807f546f6b656e207472616e7366657220746f20494452206163636f756e7420666181526020017f696c65640000000000000000000000000000000000000000000000000000000081525060400191505060405180910390fd5b613f7b86518561388490919063ffffffff16565b9250613f8685614884565b9150600090505b855181101561407d578581815181101515613fa457fe5b90602001906020020151600019168773ffffffffffffffffffffffffffffffffffffffff168973ffffffffffffffffffffffffffffffffffffffff167f1b9f1d588d469f4ba8c9233d9b2b95617bac9fd06a97d6986a7ef7d2addcd49586868a60405180848152602001806020018360001916600019168152602001828103825284818151815260200191508051906020019060200280838360005b8381101561405b578082015181840152602081019050614040565b5050505090500194505050505060405180910390a48080600101915050613f8d565b5050505050505050565b60008060008060008060008061409c8a6144f9565b96506000895111156140b6576140b1896144f9565b871896505b8b8b88604051602001808473ffffffffffffffffffffffffffffffffffffffff1673ffffffffffffffffffffffffffffffffffffffff166c010000000000000000000000000281526014018373ffffffffffffffffffffffffffffffffffffffff1673ffffffffffffffffffffffffffffffffffffffff166c01000000000000000000000000028152601401826000191660001916815260200193505050506040516020818303038152906040526040518082805190602001908083835b6020831015156141995780518252602082019150602081019050602083039250614174565b6001836020036101000a038019825116818451168082178552505050505050905001915050604051809103902095506141d18661467f565b9450600160038111156141e057fe5b8560038111156141ec57fe5b141515614287576040517f08c379a00000000000000000000000000000000000000000000000000000000081526004018080602001828103825260278152602001807f496e76616c696420706c6163656d656e742073746174653a206d75737420626581526020017f20706c616365640000000000000000000000000000000000000000000000000081525060400191505060405180910390fd5b6142998561429488614afc565b614c12565b151515614334576040517f08c379a000000000000000000000000000000000000000000000000000000000815260040180806020018281038252602a8152602001807f54696d6564206f75743a2072656c65617365206973206e6f7420706f7373696281526020017f6c6520616e796d6f72650000000000000000000000000000000000000000000081525060400191505060405180910390fd5b61433f866002615006565b61435489518b516138d290919063ffffffff16565b935061435f86614787565b9250614387846143798c518661389a90919063ffffffff16565b61388490919063ffffffff16565b9150614396868d8d8d8661510d565b6000895114156143ac57600060010297506143e4565b6143d2846143c48b518661389a90919063ffffffff16565b61388490919063ffffffff16565b90506143e1868d8d8c8561548a565b97505b50505050505050949350505050565b8073ffffffffffffffffffffffffffffffffffffffff16614412611f2c565b73ffffffffffffffffffffffffffffffffffffffff167f8be0079c531659141344cd1fd0a4f28419497f9722a3daafe3b4186f6b6457e060405160405180910390a3806002600060405180807f6f776e6572000000000000000000000000000000000000000000000000000000815250600501905060405180910390206000191660001916815260200190815260200160002060006101000a81548173ffffffffffffffffffffffffffffffffffffffff021916908373ffffffffffffffffffffffffffffffffffffffff16021790555050565b600080823b905060008111915050919050565b600080600090505b8251811015614679576000600102838281518110151561451d57fe5b9060200190602002015160001916141515156145c7576040517f08c379a000000000000000000000000000000000000000000000000000000000815260040180806020018281038252603c8152602001807f43616e6e6f742063616c63756c617465206261746368207265666572656e636581526020017f207769746820656d7074792073636f706520726571756573742049440000000081525060400191505060405180910390fd5b82818151811015156145d557fe5b906020019060200201516040516020018082600019166000191681526020019150506040516020818303038152906040526040518082805190602001908083835b60208310151561463b5780518252602082019150602081019050602083039250614616565b6001836020036101000a0380198251168184511680821785525050505050509050019150506040518091039020821891508080600101915050614501565b50919050565b60008060008360405160200180807f706c6163656d656e74732e000000000000000000000000000000000000000000815250600b018260001916600019168152602001807f2e737461746500000000000000000000000000000000000000000000000000008152506006019150506040516020818303038152906040526040518082805190602001908083835b602083101515614731578051825260208201915060208101905060208303925061470c565b6001836020036101000a03801982511681845116808217855250505050505090500191505060405180910390206000191660001916815260200190815260200160002054600381111561478057fe5b9050919050565b60008060008360405160200180807f706c6163656d656e74732e000000000000000000000000000000000000000000815250600b018260001916600019168152602001807f2e616d6f756e74000000000000000000000000000000000000000000000000008152506007019150506040516020818303038152906040526040518082805190602001908083835b6020831015156148395780518252602082019150602081019050602083039250614814565b6001836020036101000a038019825116818451168082178552505050505050905001915050604051809103902060001916600019168152602001908152602001600020549050919050565b60606000606060008060008660405160200180807f706c6163656d656e74732e000000000000000000000000000000000000000000815250600b018260001916600019168152602001807f2e63726564656e7469616c4974656d49647300000000000000000000000000008152506012019150506040516020818303038152906040526040518082805190602001908083835b60208310151561493c5780518252602082019150602081019050602083039250614917565b6001836020036101000a038019825116818451168082178552505050505050905001915050604051809103902060001916600019168152602001908152602001600020549250826040519080825280602002602001820160405280156149b15781602001602082028038833980820191505090505b509150600090505b82811015614af15760066000868360405160200180807f706c6163656d656e74732e000000000000000000000000000000000000000000815250600b018360001916600019168152602001807f2e63726564656e7469616c4974656d4964732e00000000000000000000000000815250601301828152602001925050506040516020818303038152906040526040518082805190602001908083835b602083101515614a7a5780518252602082019150602081019050602083039250614a55565b6001836020036101000a038019825116818451168082178552505050505050905001915050604051809103902060001916600019168152602001908152602001600020548282815181101515614acc57fe5b90602001906020020190600019169081600019168152505080806001019150506149b9565b819350505050919050565b60008060008360405160200180807f706c6163656d656e74732e000000000000000000000000000000000000000000815250600b018260001916600019168152602001807f2e626c6f636b4e756d6265720000000000000000000000000000000000000000815250600c019150506040516020818303038152906040526040518082805190602001908083835b602083101515614bae5780518252602082019150602081019050602083039250614b89565b6001836020036101000a038019825116818451168082178552505050505050905001915050604051809103902060001916600019168152602001908152602001600020549050919050565b6000828211151515614c0757fe5b818303905092915050565b600060016003811115614c2157fe5b836003811115614c2d57fe5b148015614c525750614c3d612564565b614c508343614bf990919063ffffffff16565b115b905092915050565b6000806000806000809350614c6d61196f565b9150600090505b8651811015614ed5578173ffffffffffffffffffffffffffffffffffffffff1663af304bab898984815181101515614ca857fe5b906020019060200201516040518363ffffffff167c0100000000000000000000000000000000000000000000000000000000028152600401808373ffffffffffffffffffffffffffffffffffffffff1673ffffffffffffffffffffffffffffffffffffffff168152602001826000191660001916815260200192505050600060405180830381600087803b158015614d3f57600080fd5b505af1158015614d53573d6000803e3d6000fd5b505050506040513d6000823e3d601f19601f8201168201806040525060e0811015614d7d57600080fd5b810190808051906020019092919080519060200190929190805190602001909291908051640100000000811115614db357600080fd5b82810190506020810184811115614dc957600080fd5b8151856001820283011164010000000082111715614de657600080fd5b50509291906020018051640100000000811115614e0257600080fd5b82810190506020810184811115614e1857600080fd5b8151856001820283011164010000000082111715614e3557600080fd5b50509291906020018051640100000000811115614e5157600080fd5b82810190506020810184811115614e6757600080fd5b8151856001820283011164010000000082111715614e8457600080fd5b5050929190602001805190602001909291905050509091929394955090919293509091925090915090505080935050614ec683856138d290919063ffffffff16565b93508080600101915050614c74565b614ee8868561389a90919063ffffffff16565b9450505050509392505050565b6000614f008561467f565b905060006003811115614f0f57fe5b816003811115614f1b57fe5b1480614f3c5750600380811115614f2e57fe5b816003811115614f3a57fe5b145b1515614fd6576040517f08c379a00000000000000000000000000000000000000000000000000000000081526004018080602001828103825260308152602001807f496e76616c696420706c6163656d656e742073746174653a206d75737420626581526020017f206e6577206f722063616e63656c65640000000000000000000000000000000081525060400191505060405180910390fd5b614fe1856001615006565b614feb85846155e9565b614ff58585615820565b614fff858361591c565b5050505050565b80600381111561501257fe5b6000808460405160200180807f706c6163656d656e74732e000000000000000000000000000000000000000000815250600b018260001916600019168152602001807f2e737461746500000000000000000000000000000000000000000000000000008152506006019150506040516020818303038152906040526040518082805190602001908083835b6020831015156150c2578051825260208201915060208101905060208303925061509d565b6001836020036101000a038019825116818451168082178552505050505050905001915050604051809103902060001916600019168152602001908152602001600020819055505050565b600080600061511b84610c07565b92506000831161512b578361513f565b61513e8385614bf990919063ffffffff16565b5b915061514961380c565b90508073ffffffffffffffffffffffffffffffffffffffff1663a9059cbb87846040518363ffffffff167c0100000000000000000000000000000000000000000000000000000000028152600401808373ffffffffffffffffffffffffffffffffffffffff1673ffffffffffffffffffffffffffffffffffffffff16815260200182815260200192505050602060405180830381600087803b1580156151ee57600080fd5b505af1158015615202573d6000803e3d6000fd5b505050506040513d602081101561521857600080fd5b810190808051906020019092919050505015156152c3576040517f08c379a00000000000000000000000000000000000000000000000000000000081526004018080602001828103825260248152602001807f546f6b656e207472616e7366657220746f20494456206163636f756e7420666181526020017f696c65640000000000000000000000000000000000000000000000000000000081525060400191505060405180910390fd5b600083111561544c578073ffffffffffffffffffffffffffffffffffffffff1663a9059cbb6152f061298f565b856040518363ffffffff167c0100000000000000000000000000000000000000000000000000000000028152600401808373ffffffffffffffffffffffffffffffffffffffff1673ffffffffffffffffffffffffffffffffffffffff16815260200182815260200192505050602060405180830381600087803b15801561537657600080fd5b505af115801561538a573d6000803e3d6000fd5b505050506040513d60208110156153a057600080fd5b8101908080519060200190929190505050151561544b576040517f08c379a00000000000000000000000000000000000000000000000000000000081526004018080602001828103825260298152602001807f546f6b656e207472616e7366657220746f20706c6174666f726d206163636f7581526020017f6e74206661696c6564000000000000000000000000000000000000000000000081525060400191505060405180910390fd5b5b615480888888886154678a518961388490919063ffffffff16565b61547b8b518961388490919063ffffffff16565b615a18565b5050505050505050565b600080606060008061549d898989613554565b93506154a88a614884565b92506154be8487856154b98e614afc565b614ef5565b6154d287518761388490919063ffffffff16565b9150600090505b86518110156155d95786818151811015156154f057fe5b90602001906020020151600019168873ffffffffffffffffffffffffffffffffffffffff168a73ffffffffffffffffffffffffffffffffffffffff167f47ffa4f2660680631f3fa48f3db927655246d4a05795e05b9913ce92938baed885878f8a604051808581526020018060200184600019166000191681526020018360001916600019168152602001828103825285818151815260200191508051906020019060200280838360005b838110156155b657808201518184015260208101905061559b565b505050509050019550505050505060405180910390a480806001019150506154d9565b8394505050505095945050505050565b600081516000808560405160200180807f706c6163656d656e74732e000000000000000000000000000000000000000000815250600b018260001916600019168152602001807f2e63726564656e7469616c4974656d49647300000000000000000000000000008152506012019150506040516020818303038152906040526040518082805190602001908083835b60208310151561569d5780518252602082019150602081019050602083039250615678565b6001836020036101000a03801982511681845116808217855250505050505090500191505060405180910390206000191660001916815260200190815260200160002081905550600090505b815181101561581b57818181518110151561570057fe5b9060200190602002015160066000858460405160200180807f706c6163656d656e74732e000000000000000000000000000000000000000000815250600b018360001916600019168152602001807f2e63726564656e7469616c4974656d4964732e00000000000000000000000000815250601301828152602001925050506040516020818303038152906040526040518082805190602001908083835b6020831015156157c3578051825260208201915060208101905060208303925061579e565b6001836020036101000a038019825116818451168082178552505050505050905001915050604051809103902060001916600019168152602001908152602001600020816000191690555080806001019150506156e9565b505050565b806000808460405160200180807f706c6163656d656e74732e000000000000000000000000000000000000000000815250600b018260001916600019168152602001807f2e616d6f756e74000000000000000000000000000000000000000000000000008152506007019150506040516020818303038152906040526040518082805190602001908083835b6020831015156158d157805182526020820191506020810190506020830392506158ac565b6001836020036101000a038019825116818451168082178552505050505050905001915050604051809103902060001916600019168152602001908152602001600020819055505050565b806000808460405160200180807f706c6163656d656e74732e000000000000000000000000000000000000000000815250600b018260001916600019168152602001807f2e626c6f636b4e756d6265720000000000000000000000000000000000000000815250600c019150506040516020818303038152906040526040518082805190602001908083835b6020831015156159cd57805182526020820191506020810190506020830392506159a8565b6001836020036101000a038019825116818451168082178552505050505050905001915050604051809103902060001916600019168152602001908152602001600020819055505050565b60606000615a2588614884565b9150600090505b8451811015615b24578481815181101515615a4357fe5b90602001906020020151600019168673ffffffffffffffffffffffffffffffffffffffff168873ffffffffffffffffffffffffffffffffffffffff167fa307f5a99c5b1807495c961cca2d1afa0501a05d3eb6de180a1075c17d15c05e8787878e60405180858152602001848152602001806020018360001916600019168152602001828103825284818151815260200191508051906020019060200280838360005b83811015615b01578082015181840152602081019050615ae6565b505050509050019550505050505060405180910390a48080600101915050615a2c565b50505050505050505600a165627a7a72305820366a919649902ec9b05ae5121bb100f47b74d7e3e407e2d7b3c9d4e4f02701e70029",
  "source": "pragma solidity ^0.4.24;\n\nimport \"openzeppelin-solidity/contracts/token/ERC20/ERC20.sol\";\nimport \"openzeppelin-solidity/contracts/math/SafeMath.sol\";\nimport \"openzeppelin-solidity/contracts/AddressUtils.sol\";\nimport \"./CvcEscrowInterface.sol\";\nimport \"../pricing/CvcPricingInterface.sol\";\nimport \"../upgradeability/Initializable.sol\";\nimport \"../upgradeability/EternalStorage.sol\";\nimport \"../upgradeability/Pausable.sol\";\n\n\n/**\n * @title CvcEscrow\n * @dev This contract provides escrow service functionality for the Identity.com marketplace.\n * It controls an escrow placement's lifecycle which involves transferring a pre-approved amount funds\n * from the Identity Requester account to its own account and keeping them until the marketplace deal is complete.\n *\n * Glossary:\n * Identity Requester (IDR) - Business entities requesting verifiable Credentials from a user in order to authenticate them.\n * Identity Validator (IDV) - Businesses or organizations that validate a user's identity and provide verifiable credentials.\n * Scope Request            - A request for identity information about a user from an IDR to an IDV.\n * Credential Item          - A single item in a set of verifiable credentials that an IDR can specify within a scope request.\n *\n * The marketplace flow has 2 possible outcomes:\n * 1. release - when user's personally identifiable information (PII) has been delivered to Identity Requester.\n *     In this case the release functionality is triggered and the contract transfers escrowed funds\n *     to the Identity Validator account, excluding the marketplace fee (if applied).\n *\n * 2. cancellation - when user's personally identifiable information (PII) has NOT been delivered to Identity Requester.\n *     In this case the refund procedure can be executed and all the escrowed funds will be returned\n *     back to Identity Requester account.\n *\n * The escrow contract depends on other marketplace contracts, such as:\n * CvcToken - to perform CVC transfers.\n * CvcPricing - to check the actual marketplace prices and ensure that placed amount of tokens\n *                covers the Credential Items price and matches the expectation of all involved parties.\n */\ncontract CvcEscrow is EternalStorage, Initializable, Pausable, CvcEscrowInterface {\n\n    using SafeMath for uint256;\n\n    /**\n    Data structures and storage layout:\n    struct EscrowPlacement {\n        uint256 state;\n        uint256 amount;\n        uint256 credentialItemIdsCount;\n        bytes32[] credentialItemIds;\n        uint256 blockNumber;\n    }\n    uint256 timeoutThreshold;\n    uint256 platformFeeRate;\n    address cvcToken;\n    address cvcPricing;\n    address platform;\n    mapping(bytes32 => EscrowPlacement) placements;\n    **/\n\n    /// The divisor for calculating platform fee rate.\n    /// Solidity does not support floats,\n    /// so we provide rather big unsigned integer and then divide it by this constant\n    uint256 constant public RATE_PRECISION = 1e8;\n\n    /**\n    * @dev Constructor\n    * @param _token CVC Token contract address\n    * @param _platform Platform address to send retained fee to\n    * @param _pricing Pricing contract address to lookup for escrow amount before placing\n    */\n    constructor(address _token, address _platform, address _pricing) public {\n        initialize(_token, _platform, _pricing, msg.sender);\n    }\n\n    /**\n    * @dev Handles escrow placement for a single scope request.\n    * @param _idv Address of Identity Validator\n    * @param _scopeRequestId Scope request identifier\n    * @param _amount CVC token amount in creds (CVC x 10e-8)\n    * @param _credentialItemIds Array of credential item IDs\n    * @return bytes32 New Placement ID\n    */\n    function place(\n        address _idv,\n        bytes32 _scopeRequestId,\n        uint256 _amount,\n        bytes32[] _credentialItemIds\n    )\n        external\n        onlyInitialized\n        whenNotPaused\n        returns (bytes32)\n    {\n        // Prepare a batch with single scope request ID.\n        bytes32[] memory scopeRequestIds = new bytes32[](1);\n        scopeRequestIds[0] = _scopeRequestId;\n\n        return makePlacement(_idv, scopeRequestIds, _amount, _credentialItemIds);\n    }\n\n    /**\n    * @dev Handles escrow placement for multiple scope requests grouped by credential item IDs.\n    * @param _idv Address of Identity Validator\n    * @param _scopeRequestIds Array of scope request IDs\n    * @param _amount CVC token amount in creds (CVC x 10e-8)\n    * @param _credentialItemIds Array of credential item IDs\n    * @return bytes32 New Placement ID\n    */\n    function placeBatch(address _idv, bytes32[] _scopeRequestIds, uint256 _amount, bytes32[] _credentialItemIds)\n        external\n        onlyInitialized\n        whenNotPaused\n        returns (bytes32)\n    {\n        return makePlacement(_idv, _scopeRequestIds, _amount, _credentialItemIds);\n    }\n\n    /**\n    * @dev Releases escrow placement and distributes funds.\n    * @param _idr Address of Identity Requester\n    * @param _idv Address of Identity Validator\n    * @param _scopeRequestId Scope request identifier\n    */\n    function release(address _idr, address _idv, bytes32 _scopeRequestId)\n        external\n        onlyOwner\n        onlyInitialized\n        whenNotPaused\n    {\n        // Prepare a batch with single scope request ID.\n        bytes32[] memory scopeRequestIdsToRelease = new bytes32[](1);\n        scopeRequestIdsToRelease[0] = _scopeRequestId;\n\n        // itemsToKeep is empty to indicate full release.\n        makePartialRelease(_idr, _idv, scopeRequestIdsToRelease, new bytes32[](0));\n    }\n\n\n    /**\n    * @dev Releases escrow placement for multiple scope requests and distributes funds.\n    * @param _idr Address of Identity Requester\n    * @param _idv Address of Identity Validator\n    * @param _scopeRequestIdsToRelease Array of scope request IDs which will be released\n    * @param _scopeRequestIdsToKeep Array of scope request IDs which will be kept in escrow\n    * @return bytes32 Placement ID of remaining part of the batch. Empty when the placement was fully released\n    */\n    function releaseBatch(\n        address _idr,\n        address _idv,\n        bytes32[] _scopeRequestIdsToRelease,\n        bytes32[] _scopeRequestIdsToKeep\n    )\n        external\n        onlyOwner\n        onlyInitialized\n        whenNotPaused\n        returns (bytes32)\n    {\n        return makePartialRelease(_idr, _idv, _scopeRequestIdsToRelease, _scopeRequestIdsToKeep);\n    }\n\n    /**\n    * @dev Refunds escrowed tokens for a single scope request back to Identity Requester.\n    * @param _idr Address of Identity Requester\n    * @param _idv Address of Identity Validator\n    * @param _scopeRequestId Scope request ID\n    */\n    function refund(address _idr, address _idv, bytes32 _scopeRequestId) external onlyInitialized whenNotPaused {\n        // Prepare a batch with single scope request ID.\n        bytes32[] memory scopeRequestIds = new bytes32[](1);\n        scopeRequestIds[0] = _scopeRequestId;\n        makeFullRefund(_idr, _idv, scopeRequestIds);\n    }\n\n\n    /**\n    * @dev Refunds escrowed tokens for for multiple scope requests back to Identity Requester.\n    * @param _idr Address of Identity Requester\n    * @param _idv Address of Identity Validator\n    * @param _scopeRequestIds Array of scope request IDs\n    */\n    function refundBatch(address _idr, address _idv, bytes32[] _scopeRequestIds)\n        external\n        onlyInitialized\n        whenNotPaused\n    {\n        makeFullRefund(_idr, _idv, _scopeRequestIds);\n    }\n\n    /**\n    * @dev Returns placement details.\n    * @param _idr Address of Identity Requester\n    * @param _idv Address of Identity Validator\n    * @param _scopeRequestId Scope request ID\n    * @return uint256 CVC token amount in creds (CVC x 10e-8)\n    * @return PlacementState One of the CvcEscrowInterface.PlacementState values\n    * @return bytes32[] Array of credential item IDs\n    * @return uint256 Block confirmations since escrow was placed\n    * @return bool True if placement can be refunded otherwise false\n    */\n    function verify(address _idr, address _idv, bytes32 _scopeRequestId)\n        external\n        view\n        returns (\n            uint256 placementAmount,\n            PlacementState placementState,\n            bytes32[] credentialItemIds,\n            uint256 confirmations,\n            bool refundable\n        )\n    {\n        // Prepare a batch with single scope request ID.\n        bytes32[] memory scopeRequestIds = new bytes32[](1);\n        scopeRequestIds[0] = _scopeRequestId;\n\n        return getPlacement(calculatePlacementId(_idr, _idv, scopeRequestIds));\n    }\n\n    /**\n    * @dev Returns placement details.\n    * @param _idr Address of Identity Requester\n    * @param _idv Address of Identity Validator\n    * @param _scopeRequestIds Array of scope request IDs\n    * @return uint256 CVC token amount in creds (CVC x 10e-8)\n    * @return PlacementState One of the CvcEscrowInterface.PlacementState values\n    * @return bytes32[] Array of credential item IDs\n    * @return uint256 Block confirmations since escrow was placed\n    * @return bool True if placement can be refunded otherwise false\n    */\n    function verifyBatch(address _idr, address _idv, bytes32[] _scopeRequestIds)\n        external\n        view\n        returns (\n            uint256 placementAmount,\n            PlacementState placementState,\n            bytes32[] credentialItemIds,\n            uint256 confirmations,\n            bool refundable\n        )\n    {\n        return getPlacement(calculatePlacementId(_idr, _idv, _scopeRequestIds));\n    }\n\n    /**\n    * @dev Returns placement details.\n    * @param _placementId Escrow Placement identifier.\n    * @return uint256 CVC token amount in creds (CVC x 10e-8)\n    * @return PlacementState One of the CvcEscrowInterface.PlacementState values.\n    * @return bytes32[] Array of credential item IDs.\n    * @return uint256 Block confirmations since escrow was placed.\n    * @return bool True if placement can be refunded otherwise false\n    */\n    function verifyPlacement(bytes32 _placementId)\n        external\n        view\n        returns (\n            uint256 placementAmount,\n            PlacementState placementState,\n            bytes32[] credentialItemIds,\n            uint256 confirmations,\n            bool refundable\n        )\n    {\n        return getPlacement(_placementId);\n    }\n\n    /**\n    * @dev Contract initialization method.\n    * @param _token CVC Token contract address\n    * @param _platform Platform address to send retained fee to\n    * @param _pricing Pricing contract address to lookup for escrow amount before placing\n    * @param _owner Owner address, used for release\n    */\n    function initialize(address _token, address _platform, address _pricing, address _owner)\n        public\n        initializes\n    {\n        // Ensure contracts.\n        require(AddressUtils.isContract(_token), \"Initialization error: no contract code at token contract address\");\n        require(AddressUtils.isContract(_pricing), \"Initialization error: no contract code at pricing contract address\");\n\n        /// Timeout value for escrowed funds before refund is available.\n        /// Currently represents number of blocks for approx 24 hours.\n        // timeoutThreshold = 5800;\n        uintStorage[keccak256(\"timeout.threshold\")] = 5800;\n        /// The percentage of escrowed funds retained as a platform fee.\n        /// The default rate is 10% (0.1 * 10^8).\n        // platformFeeRate = 1e7;\n        uintStorage[keccak256(\"platform.fee.rate\")] = 1e7;\n        // Initialize current implementation owner address.\n        setOwner(_owner);\n        // CVC Token contract address to transfer CVC tokens.\n        // cvcToken = _token;\n        addressStorage[keccak256(\"cvc.token\")] = _token;\n        // Pricing contract address to lookup attestation prices.\n        // cvcPricing = _pricing;\n        addressStorage[keccak256(\"cvc.pricing\")] = _pricing;\n        // Platform address is used to transfer platform usage fee.\n        // platform = _platform;\n        addressStorage[keccak256(\"platform\")] = _platform;\n    }\n\n    /**\n    * @dev Calculates escrow placement identifier.\n    * @param _idr Address of Identity Requester\n    * @param _idv Address of Identity Validator\n    * @param _scopeRequestIds An array of scope request identifiers\n    * @return bytes32 Placement ID\n    */\n    function calculatePlacementId(address _idr, address _idv, bytes32[] _scopeRequestIds)\n        public\n        pure\n        returns (bytes32)\n    {\n        require(_idr != address(0), \"Cannot calculate placement ID with IDR being a zero address\");\n        require(_idv != address(0), \"Cannot calculate placement ID with IDV being a zero address\");\n\n        return keccak256(abi.encodePacked(_idr, _idv, calculateBatchReference(_scopeRequestIds)));\n    }\n\n    /**\n    * @dev Returns platform fee amount based on given placement amount and current platform fee rate.\n    * @param _amount Escrow placement total amount.\n    * @return uint256\n    */\n    function calculatePlatformFee(uint256 _amount) public view returns (uint256) {\n        return (_amount.mul(platformFeeRate()).add(RATE_PRECISION.div(2))).div(RATE_PRECISION);\n    }\n\n    /**\n    * @dev Sets timeout threshold. Ensures it's more than 0.\n    * @param _threshold New timeout threshold value\n    */\n    function setTimeoutThreshold(uint256 _threshold) public onlyOwner onlyInitialized {\n        require(_threshold > 0, \"Timeout threshold cannot be zero\");\n        // timeoutThreshold = _threshold;\n        uintStorage[keccak256(\"timeout.threshold\")] = _threshold;\n    }\n\n    /**\n    * @dev Returns actual escrow timeout threshold value.\n    * @return uint256\n    */\n    function timeoutThreshold() public view returns (uint256) {\n        // return timeoutThreshold;\n        return uintStorage[keccak256(\"timeout.threshold\")];\n    }\n\n    /**\n    * @dev Allows to change platform fee rate.\n    * @param _feeRate A platform fee rate in percentage, e.g. 1e7 (10%).\n    */\n    function setFeeRate(uint256 _feeRate) public onlyOwner onlyInitialized {\n        require(_feeRate <= RATE_PRECISION, \"Platform fee rate cannot be more than 100%\");\n        // platformFeeRate = _feeRate;\n        uintStorage[keccak256(\"platform.fee.rate\")] = _feeRate;\n    }\n\n    /**\n    * @dev Returns actual platform fee rate value.\n    * @return uint256\n    */\n    function platformFeeRate() public view returns (uint256) {\n        // return platformFeeRate;\n        return uintStorage[keccak256(\"platform.fee.rate\")];\n    }\n\n    /**\n    * @dev Returns CvcToken contact instance.\n    * @return ERC20\n    */\n    function token() public view returns (ERC20) {\n        // return ERC20(cvcToken);\n        return ERC20(addressStorage[keccak256(\"cvc.token\")]);\n    }\n\n    /**\n    * @dev Returns CvcPricing contact instance.\n    * @return CvcPricingInterface\n    */\n    function pricing() public view returns (CvcPricingInterface) {\n        // return CvcPricingInterface(cvcPricing);\n        return CvcPricingInterface(addressStorage[keccak256(\"cvc.pricing\")]);\n    }\n\n    /**\n    * @dev Returns platform address.\n    * @return address\n    */\n    function platformAddress() public view returns (address) {\n        // return platform;\n        return addressStorage[keccak256(\"platform\")];\n    }\n\n    /**\n    * @dev Stores placement data against the placement ID.\n    * @param _placementId Unique placement identifier\n    * @param _amount CVC token amount in creds (CVC x 10e-8)\n    * @param _credentialItemIds Array of credential item IDs\n    * @param _blockNumber Block number at which the placement is received\n    */\n    function saveNewPlacement(bytes32 _placementId, uint256 _amount, bytes32[] _credentialItemIds, uint256 _blockNumber)\n        internal\n    {\n        // Verify current state for given placementId to ensure operation is allowed.\n        PlacementState placementState = getPlacementState(_placementId);\n        // Placement is allowed when:\n        //  1. it is a completely new escrow placement with fresh ID (Empty state)\n        //  2. the placement with given ID was refunded (Canceled state)\n        require(\n            placementState == PlacementState.Empty || placementState == PlacementState.Canceled,\n            \"Invalid placement state: must be new or canceled\"\n        );\n\n        // Write placement data into the contract storage.\n        setPlacementState(_placementId, PlacementState.Placed);\n        setPlacementCredentialItemIds(_placementId, _credentialItemIds);\n        setPlacementAmount(_placementId, _amount);\n        setPlacementBlockNumber(_placementId, _blockNumber);\n    }\n\n    /**\n    * @dev Returns placement total price based on number of credential items and their current market prices.\n    * @param _idv Identity Validator address\n    * @param _credentialItemIds Array of credential item IDs\n    * @param _batchSize Number of scope request IDs in placement\n    * @return uint256\n    */\n    function getPlacementPrice(address _idv, bytes32[] _credentialItemIds, uint256 _batchSize)\n        internal\n        view\n        returns (uint256)\n    {\n        uint256 price = 0;\n        uint256 credentialItemPrice;\n        CvcPricingInterface cvcPricing = pricing();\n        for (uint256 i = 0; i < _credentialItemIds.length; i++) {\n            (\n\n\n\n\n            , credentialItemPrice, , , , ,) = cvcPricing.getPriceByCredentialItemId(_idv, _credentialItemIds[i]);\n            price = price.add(credentialItemPrice);\n        }\n        return price.mul(_batchSize);\n    }\n\n    /**\n    * @dev Check if the escrow placement can be refunded back to Identity Requester.\n    * @param _placementState The escrow placement state.\n    * @param _placementBlockNumber The escrow placement block number.\n    * @return bool Whether escrow can be refunded.\n    */\n    function isRefundable(PlacementState _placementState, uint256 _placementBlockNumber) internal view returns (bool) {\n        // Refund is allowed if the escrowed placement is still in \"Placed\" state & timeout is reached.\n        // Timeout reached when number of blocks after the escrow was placed is greater than timeout threshold.\n        return _placementState == PlacementState.Placed && block.number.sub(_placementBlockNumber) > timeoutThreshold();\n    }\n\n    /**\n    * @dev Transfers funds from IRD account and stores the placement data.\n    * @param _idv Address of Identity Validator\n    * @param _scopeRequestIds Array of scope request IDs\n    * @param _amount CVC token amount in creds (CVC x 10e-8)\n    * @param _credentialItemIds Array of credential item IDs\n    * @return bytes32 New Placement ID\n    */\n    function makePlacement(address _idv, bytes32[] _scopeRequestIds, uint256 _amount, bytes32[] _credentialItemIds)\n        internal\n        returns (bytes32)\n    {\n        // Calculate placement ID to validate arguments.\n        bytes32 placementId = calculatePlacementId(msg.sender, _idv, _scopeRequestIds);\n\n        // Ensure escrow amount is matching the total price of all credential items.\n        require(\n            _amount == getPlacementPrice(_idv, _credentialItemIds, _scopeRequestIds.length),\n            \"Placement amount does not match credential item total price\"\n        );\n\n        // Store new placement data.\n        saveNewPlacement(placementId, _amount, _credentialItemIds, block.number);\n\n        // Transferring funds from IDR to escrow contract address.\n        require(token().transferFrom(msg.sender, this, _amount), \"Token transfer from IDR account failed\");\n\n        // Emitting escrow placement event for each individual scope request ID.\n        uint256 amountPerItem = _amount.div(_scopeRequestIds.length);\n        for (uint256 i = 0; i < _scopeRequestIds.length; i++) {\n            emit EscrowPlaced(msg.sender, _idv, _scopeRequestIds[i], amountPerItem, _credentialItemIds, placementId);\n        }\n\n        return placementId;\n    }\n\n    /**\n    * @dev Calculates scope request batch reference.\n    * @param _scopeRequestIds An array of scope request identifiers\n    * @return bytes32 Batch reference\n    */\n    function calculateBatchReference(bytes32[] _scopeRequestIds)\n        internal\n        pure\n        returns (bytes32 batchReference)\n    {\n        // In order to increase batch reference entropy and prevent potential collision\n        // caused by small difference between two or more scope request IDs from the same batch\n        // we hash the scope request id before adding to the batch reference.\n        for (uint256 i = 0; i < _scopeRequestIds.length; i++) {\n            // Ensure scopeRequestId is not empty & add its hash to batch reference.\n            require(_scopeRequestIds[i] != 0x0, \"Cannot calculate batch reference with empty scope request ID\");\n            batchReference = batchReference ^ keccak256(abi.encodePacked(_scopeRequestIds[i]));\n        }\n    }\n\n    /**\n    * @dev Releases placed batch items.\n    * In case of partial release keeps the remaining part in escrow under new placement ID.\n    * If the entire batch is release, empty bytes returned instead.\n    * @param _idr Address of Identity Requester\n    * @param _idv Address of Identity Validator\n    * @param _itemsToRelease Array of scope request IDs to be released\n    * @param _itemsToKeep Array of scope request IDs to keep in escrow\n    * @return bytes32 Placement ID of remaining part of the batch. Empty when the placement was fully released\n    */\n    function makePartialRelease(address _idr, address _idv, bytes32[] _itemsToRelease, bytes32[] _itemsToKeep)\n        internal\n        returns (bytes32)\n    {\n        // Restore initial placement ID.\n        bytes32 batchReference = calculateBatchReference(_itemsToRelease);\n        if (_itemsToKeep.length > 0) {\n            batchReference = batchReference ^ calculateBatchReference(_itemsToKeep);\n        }\n        bytes32 placementId = keccak256(abi.encodePacked(_idr, _idv, batchReference));\n\n        // Allow release only when the escrow exists and it is not refundable yet.\n        // If placement found by ID, we can be sure two arrays of scope request IDs together formed the initial batch.\n        PlacementState placementState = getPlacementState(placementId);\n        require(placementState == PlacementState.Placed, \"Invalid placement state: must be placed\");\n        require(!isRefundable(placementState, getPlacementBlockNumber(placementId)), \"Timed out: release is not possible anymore\");\n\n        // Change placement state to released.\n        setPlacementState(placementId, PlacementState.Released);\n\n        // Calculate released token amount.\n        uint256 totalBatchSize = _itemsToRelease.length.add(_itemsToKeep.length);\n        uint256 placementAmount = getPlacementAmount(placementId);\n        uint256 amountToRelease = placementAmount.mul(_itemsToRelease.length).div(totalBatchSize);\n\n        // Release batch items and distribute escrowed funds.\n        releaseEscrowedFunds(placementId, _idr, _idv, _itemsToRelease, amountToRelease);\n\n        // Return empty bytes when the entire batch released.\n        if (_itemsToKeep.length == 0)\n            return 0x0;\n\n        // Keep the remaining part of the batch in escrow.\n        uint256 amountToKeep = placementAmount.mul(_itemsToKeep.length).div(totalBatchSize);\n        return keepPlacement(placementId, _idr, _idv, _itemsToKeep, amountToKeep);\n    }\n\n    /**\n    * @dev Refunds escrowed tokens for for multiple scope requests back to Identity Requester.\n    * @param _idr Address of Identity Requester\n    * @param _idv Address of Identity Validator\n    * @param _itemsToRefund Array of scope request IDs to be refunded\n    */\n    function makeFullRefund(address _idr, address _idv, bytes32[] _itemsToRefund) internal {\n        // Calculate placement ID to validate arguments.\n        bytes32 placementId = calculatePlacementId(_idr, _idv, _itemsToRefund);\n\n        // Check if refund is allowed.\n        require(\n            isRefundable(getPlacementState(placementId), getPlacementBlockNumber(placementId)),\n            \"Placement is not refundable yet\"\n        );\n\n        // Mark the escrow placement Canceled.\n        setPlacementState(placementId, PlacementState.Canceled);\n\n        // Transfer funds from the escrow contract balance to IDR account.\n        uint256 placementAmount = getPlacementAmount(placementId);\n        require(token().transfer(_idr, placementAmount), \"Token transfer to IDR account failed\");\n\n        // Emitting escrow cancellation event for each individual scope request ID.\n        uint256 amountPerItem = placementAmount.div(_itemsToRefund.length);\n        bytes32[] memory credentialItemIds = getPlacementCredentialItemIds(placementId);\n        for (uint256 i = 0; i < _itemsToRefund.length; i++) {\n            emit EscrowCanceled(_idr, _idv, _itemsToRefund[i], amountPerItem, credentialItemIds, placementId);\n        }\n    }\n\n    /**\n    * @dev Stores items as a new placement.\n    * @param _placementId Current placement identifier.\n    * @param _idr Address of Identity Requester.\n    * @param _idv Address of Identity Validator.\n    * @param _itemsToKeep Array of scope request IDs to keep in escrow.\n    * @param _amount New Placement amount.\n    * @return bytes32 New Placement ID.\n    */\n    function keepPlacement(bytes32 _placementId, address _idr, address _idv,  bytes32[] _itemsToKeep, uint256 _amount)\n        internal\n        returns (bytes32)\n    {\n        // Calculate new placement ID.\n        bytes32 newPlacementId = calculatePlacementId(_idr, _idv, _itemsToKeep);\n        // Store data against new placement ID. Copy unchanged data from old placement.\n        bytes32[] memory credentialItemIds = getPlacementCredentialItemIds(_placementId);\n        saveNewPlacement(newPlacementId, _amount, credentialItemIds, getPlacementBlockNumber(_placementId));\n\n        uint256 amountPerItem = _amount.div(_itemsToKeep.length);\n        for (uint256 i = 0; i < _itemsToKeep.length; i++) {\n            emit EscrowMoved(_idr, _idv, _itemsToKeep[i], amountPerItem, credentialItemIds, _placementId, newPlacementId);\n        }\n\n        return newPlacementId;\n    }\n\n    /**\n    * @dev Transfers funds to IDV withholding platform fee (if applied).\n    * @param _placementId Released placement identifier.\n    * @param _idr Address of Identity Requester.\n    * @param _idv Address of Identity Validator.\n    * @param _releasedItems Array of released scope request IDs.\n    * @param _amount Amount to release.\n    */\n    function releaseEscrowedFunds(bytes32 _placementId, address _idr, address _idv, bytes32[] _releasedItems, uint256 _amount)\n        internal\n    {\n        // Calculate token distribution.\n        uint256 platformFee = calculatePlatformFee(_amount);\n        uint256 idvFee = platformFee > 0 ? _amount.sub(platformFee) : _amount;\n\n        // Transfer tokens from escrow to IDV.\n        ERC20 cvcToken = token();\n        require(cvcToken.transfer(_idv, idvFee), \"Token transfer to IDV account failed\");\n\n        // Transfer tokens from escrow to platform operator address.\n        if (platformFee > 0) {\n            require(cvcToken.transfer(platformAddress(), platformFee), \"Token transfer to platform account failed\");\n        }\n\n        logBatchRelease(\n            _placementId,\n            _idr,\n            _idv,\n            _releasedItems,\n            platformFee.div(_releasedItems.length),\n            idvFee.div(_releasedItems.length)\n        );\n    }\n\n    /**\n    * @dev Emits EscrowReleased event for each released item.\n    * @param _placementId Released placement identifier.\n    * @param _idr Address of Identity Requester.\n    * @param _idv Address of Identity Validator.\n    * @param _releasedItems Array of released scope request IDs.\n    * @param _itemPlatformFee Platform fee charged per one item.\n    * @param _itemIdvFee Identity Validator fee charged per one item.\n    */\n    function logBatchRelease(\n        bytes32 _placementId,\n        address _idr,\n        address _idv,\n        bytes32[] _releasedItems,\n        uint256 _itemPlatformFee,\n        uint256 _itemIdvFee\n    )\n        internal\n    {\n        bytes32[] memory credentialItemIds = getPlacementCredentialItemIds(_placementId);\n        for (uint256 i = 0; i < _releasedItems.length; i++) {\n            emit EscrowReleased(\n                _idr,\n                _idv,\n                _releasedItems[i],\n                _itemPlatformFee,\n                _itemIdvFee,\n                credentialItemIds,\n                _placementId\n            );\n        }\n    }\n\n    /**\n    * @dev Returns placement details.\n    * @param _placementId Escrow Placement identifier.\n    * @return uint256 CVC token amount in creds (CVC x 10e-8)\n    * @return PlacementState One of the CvcEscrowInterface.PlacementState values.\n    * @return bytes32[] Array of credential item IDs.\n    * @return uint256 Block confirmations since escrow was placed.\n    * @return bool True if placement can be refunded otherwise false\n    */\n    function getPlacement(bytes32 _placementId)\n        internal\n        view\n        returns (\n            uint256 placementAmount,\n            PlacementState placementState,\n            bytes32[] credentialItemIds,\n            uint256 confirmations,\n            bool refundable\n        )\n    {\n        placementState = getPlacementState(_placementId);\n        // Placement amount value is returned for Placed placements, otherwise 0;\n        placementAmount = placementState == PlacementState.Placed ? getPlacementAmount(_placementId) : 0;\n        credentialItemIds = getPlacementCredentialItemIds(_placementId);\n\n        // 0 when empty, number of blocks in other states\n        uint256 placementBlockNumber = getPlacementBlockNumber(_placementId);\n        confirmations = placementState == PlacementState.Empty ? 0 : block.number.sub(placementBlockNumber);\n\n        refundable = isRefundable(placementState, placementBlockNumber);\n    }\n\n    /**\n    * @dev Returns placement state.\n    * @param _placementId The placement id.\n    * @return PlacementState\n    */\n    function getPlacementState(bytes32 _placementId) internal view returns (PlacementState) {\n        // return PlacementState(placements[_placementId].state);\n        return PlacementState(uintStorage[keccak256(abi.encodePacked(\"placements.\", _placementId, \".state\"))]);\n    }\n\n    /**\n    * @dev Saves placement state.\n    * @param _placementId The placement id.\n    * @param state Placement state.\n    */\n    function setPlacementState(bytes32 _placementId, PlacementState state) internal {\n        // placements[_placementId].state = uint256(state);\n        uintStorage[keccak256(abi.encodePacked(\"placements.\", _placementId, \".state\"))] = uint256(state);\n    }\n\n    /**\n    * @dev Returns placement amount.\n    * @param _placementId The placement id.\n    * @return uint256\n    */\n    function getPlacementAmount(bytes32 _placementId) internal view returns (uint256) {\n        // return placements[_placementId].amount;\n        return uintStorage[keccak256(abi.encodePacked(\"placements.\", _placementId, \".amount\"))];\n    }\n\n    /**\n    * @dev Saves placement amount.\n    * @param _placementId The placement id.\n    * @param _amount Placement amount.\n    */\n    function setPlacementAmount(bytes32 _placementId, uint256 _amount) internal {\n        // placements[_placementId].amount = _amount;\n        uintStorage[keccak256(abi.encodePacked(\"placements.\", _placementId, \".amount\"))] = _amount;\n    }\n\n    /**\n    * @dev Returns placement attestation level.\n    * @param _placementId The placement id.\n    * @return bytes32[] Array of credential item IDs.\n    */\n    function getPlacementCredentialItemIds(bytes32 _placementId)\n        internal\n        view\n        returns (bytes32[])\n    {\n        // uint256 count = placements[_placementId].credentialItemIdsCount;\n        uint256 count = uintStorage[keccak256(abi.encodePacked(\"placements.\", _placementId, \".credentialItemIds\"))];\n        bytes32[] memory credentialItemIds = new bytes32[](count);\n        for (uint256 i = 0; i < count; i++) {\n            // credentialItemIds[i] = placements[_placementId].credentialItemIds[i];\n            credentialItemIds[i] = bytes32Storage[keccak256(abi.encodePacked(\"placements.\", _placementId, \".credentialItemIds.\", i))];\n        }\n\n        return credentialItemIds;\n    }\n\n    /**\n    * @dev Saves placement attestation level.\n    * @param _placementId The placement id.\n    * @param _credentialItemIds Array of credential item IDs.\n    */\n    function setPlacementCredentialItemIds(bytes32 _placementId, bytes32[] _credentialItemIds) internal\n    {\n        // placements[_placementId].credentialItemIdsCount = _credentialItemIds.length;\n        uintStorage[keccak256(abi.encodePacked(\"placements.\", _placementId, \".credentialItemIds\"))] = _credentialItemIds.length;\n        for (uint256 i = 0; i < _credentialItemIds.length; i++) {\n            // placements[_placementId].credentialItemIds[i] = _credentialItemIds[i];\n            bytes32Storage[keccak256(abi.encodePacked(\"placements.\", _placementId, \".credentialItemIds.\", i))] = _credentialItemIds[i];\n        }\n    }\n\n    /**\n    * @dev Returns placement block number.\n    * @param _placementId The placement id.\n    * @return CvcPricingInterface.AttestationLevel\n    */\n    function getPlacementBlockNumber(bytes32 _placementId) internal view returns (uint256) {\n        // return placements[_placementId].blockNumber;\n        return uintStorage[keccak256(abi.encodePacked(\"placements.\", _placementId, \".blockNumber\"))];\n    }\n\n    /**\n    * @dev Saves placement block number.\n    * @param _placementId The placement id.\n    * @param _blockNumber Placement block number.\n    */\n    function setPlacementBlockNumber(bytes32 _placementId, uint256 _blockNumber) internal {\n        // placements[_placementId].blockNumber = _blockNumber;\n        uintStorage[keccak256(abi.encodePacked(\"placements.\", _placementId, \".blockNumber\"))] = _blockNumber;\n    }\n}\n\n",
  "sourcePath": "./contracts/escrow/CvcEscrow.sol",
  "compiler": {
    "name": "solc",
    "version": "0.4.24+commit.e67f0147.Emscripten.clang"
  },
  "schemaVersion": "2.0.1",
  "updatedAt": "2018-10-09T19:38:41.260Z"
}