{
  "contractName": "CvcMigrator",
  "abi": [
    {
      "constant": true,
      "inputs": [
        {
          "name": "",
          "type": "uint256"
        }
      ],
      "name": "migrations",
      "outputs": [
        {
          "name": "proxy",
          "type": "address"
        },
        {
          "name": "implementation",
          "type": "address"
        },
        {
          "name": "data",
          "type": "bytes"
        }
      ],
      "payable": false,
      "stateMutability": "view",
      "type": "function"
    },
    {
      "constant": false,
      "inputs": [],
      "name": "renounceOwnership",
      "outputs": [],
      "payable": false,
      "stateMutability": "nonpayable",
      "type": "function"
    },
    {
      "constant": true,
      "inputs": [],
      "name": "owner",
      "outputs": [
        {
          "name": "",
          "type": "address"
        }
      ],
      "payable": false,
      "stateMutability": "view",
      "type": "function"
    },
    {
      "constant": false,
      "inputs": [
        {
          "name": "_newOwner",
          "type": "address"
        }
      ],
      "name": "transferOwnership",
      "outputs": [],
      "payable": false,
      "stateMutability": "nonpayable",
      "type": "function"
    },
    {
      "anonymous": false,
      "inputs": [
        {
          "indexed": true,
          "name": "proxyAddress",
          "type": "address"
        }
      ],
      "name": "ProxyCreated",
      "type": "event"
    },
    {
      "anonymous": false,
      "inputs": [
        {
          "indexed": true,
          "name": "previousOwner",
          "type": "address"
        }
      ],
      "name": "OwnershipRenounced",
      "type": "event"
    },
    {
      "anonymous": false,
      "inputs": [
        {
          "indexed": true,
          "name": "previousOwner",
          "type": "address"
        },
        {
          "indexed": true,
          "name": "newOwner",
          "type": "address"
        }
      ],
      "name": "OwnershipTransferred",
      "type": "event"
    },
    {
      "constant": false,
      "inputs": [
        {
          "name": "_proxy",
          "type": "address"
        },
        {
          "name": "_implementation",
          "type": "address"
        },
        {
          "name": "_data",
          "type": "bytes"
        }
      ],
      "name": "addUpgrade",
      "outputs": [],
      "payable": false,
      "stateMutability": "nonpayable",
      "type": "function"
    },
    {
      "constant": false,
      "inputs": [],
      "name": "migrate",
      "outputs": [],
      "payable": false,
      "stateMutability": "nonpayable",
      "type": "function"
    },
    {
      "constant": false,
      "inputs": [],
      "name": "reset",
      "outputs": [],
      "payable": false,
      "stateMutability": "nonpayable",
      "type": "function"
    },
    {
      "constant": false,
      "inputs": [
        {
          "name": "_target",
          "type": "address"
        },
        {
          "name": "_newOwner",
          "type": "address"
        }
      ],
      "name": "changeProxyAdmin",
      "outputs": [],
      "payable": false,
      "stateMutability": "nonpayable",
      "type": "function"
    },
    {
      "constant": false,
      "inputs": [],
      "name": "createProxy",
      "outputs": [
        {
          "name": "",
          "type": "address"
        }
      ],
      "payable": false,
      "stateMutability": "nonpayable",
      "type": "function"
    },
    {
      "constant": true,
      "inputs": [
        {
          "name": "_index",
          "type": "uint256"
        }
      ],
      "name": "getMigration",
      "outputs": [
        {
          "name": "",
          "type": "address"
        },
        {
          "name": "",
          "type": "address"
        },
        {
          "name": "",
          "type": "bytes"
        }
      ],
      "payable": false,
      "stateMutability": "view",
      "type": "function"
    },
    {
      "constant": true,
      "inputs": [],
      "name": "getMigrationCount",
      "outputs": [
        {
          "name": "",
          "type": "uint256"
        }
      ],
      "payable": false,
      "stateMutability": "view",
      "type": "function"
    }
  ],
  "bytecode": "0x6080604052336000806101000a81548173ffffffffffffffffffffffffffffffffffffffff021916908373ffffffffffffffffffffffffffffffffffffffff160217905550612090806100536000396000f3006080604052600436106100af576000357c0100000000000000000000000000000000000000000000000000000000900463ffffffff1680631e5cb9be146100b457806335e608be146101c0578063684649a61461023b578063715018a6146102925780637eff275e146102a957806380c7507a1461030c5780638da5cb5b146104185780638fd3ab801461046f578063cdaf402814610486578063d826f88f146104b1578063f2fde38b146104c8575b600080fd5b3480156100c057600080fd5b506100df6004803603810190808035906020019092919050505061050b565b604051808473ffffffffffffffffffffffffffffffffffffffff1673ffffffffffffffffffffffffffffffffffffffff1681526020018373ffffffffffffffffffffffffffffffffffffffff1673ffffffffffffffffffffffffffffffffffffffff16815260200180602001828103825283818151815260200191508051906020019080838360005b83811015610183578082015181840152602081019050610168565b50505050905090810190601f1680156101b05780820380516001836020036101000a031916815260200191505b5094505050505060405180910390f35b3480156101cc57600080fd5b50610239600480360381019080803573ffffffffffffffffffffffffffffffffffffffff169060200190929190803573ffffffffffffffffffffffffffffffffffffffff16906020019092919080359060200190820180359060200191909192939192939050505061061c565b005b34801561024757600080fd5b50610250610a03565b604051808273ffffffffffffffffffffffffffffffffffffffff1673ffffffffffffffffffffffffffffffffffffffff16815260200191505060405180910390f35b34801561029e57600080fd5b506102a7610ad1565b005b3480156102b557600080fd5b5061030a600480360381019080803573ffffffffffffffffffffffffffffffffffffffff169060200190929190803573ffffffffffffffffffffffffffffffffffffffff169060200190929190505050610bd3565b005b34801561031857600080fd5b5061033760048036038101908080359060200190929190505050610ce5565b604051808473ffffffffffffffffffffffffffffffffffffffff1673ffffffffffffffffffffffffffffffffffffffff1681526020018373ffffffffffffffffffffffffffffffffffffffff1673ffffffffffffffffffffffffffffffffffffffff16815260200180602001828103825283818151815260200191508051906020019080838360005b838110156103db5780820151818401526020810190506103c0565b50505050905090810190601f1680156104085780820380516001836020036101000a031916815260200191505b5094505050505060405180910390f35b34801561042457600080fd5b5061042d610e35565b604051808273ffffffffffffffffffffffffffffffffffffffff1673ffffffffffffffffffffffffffffffffffffffff16815260200191505060405180910390f35b34801561047b57600080fd5b50610484610e5a565b005b34801561049257600080fd5b5061049b6111b2565b6040518082815260200191505060405180910390f35b3480156104bd57600080fd5b506104c66111bf565b005b3480156104d457600080fd5b50610509600480360381019080803573ffffffffffffffffffffffffffffffffffffffff16906020019092919050505061122a565b005b60018181548110151561051a57fe5b90600052602060002090600302016000915090508060000160009054906101000a900473ffffffffffffffffffffffffffffffffffffffff16908060010160009054906101000a900473ffffffffffffffffffffffffffffffffffffffff1690806002018054600181600116156101000203166002900480601f0160208091040260200160405190810160405280929190818152602001828054600181600116156101000203166002900480156106125780601f106105e757610100808354040283529160200191610612565b820191906000526020600020905b8154815290600101906020018083116105f557829003601f168201915b5050505050905083565b6000809054906101000a900473ffffffffffffffffffffffffffffffffffffffff1673ffffffffffffffffffffffffffffffffffffffff163373ffffffffffffffffffffffffffffffffffffffff1614151561067757600080fd5b61068083611291565b151561071a576040517f08c379a000000000000000000000000000000000000000000000000000000000815260040180806020018281038252603e8152602001807f4d69677261746f72206572726f723a206e6f20636f6e747261637420636f646581526020017f206174206e657720696d706c656d656e746174696f6e2061646472657373000081525060400191505060405180910390fd5b8273ffffffffffffffffffffffffffffffffffffffff168473ffffffffffffffffffffffffffffffffffffffff16635c60da1b6040518163ffffffff167c0100000000000000000000000000000000000000000000000000000000028152600401602060405180830381600087803b15801561079557600080fd5b505af11580156107a9573d6000803e3d6000fd5b505050506040513d60208110156107bf57600080fd5b810190808051906020019092919050505073ffffffffffffffffffffffffffffffffffffffff16141515156108a8576040517f08c379a00000000000000000000000000000000000000000000000000000000081526004018080602001828103825260448152602001807f4d69677261746f72206572726f723a2070726f787920636f6e7472616374206181526020017f6c726561647920757365732073706563696669656420696d706c656d656e746181526020017f74696f6e0000000000000000000000000000000000000000000000000000000081525060600191505060405180910390fd5b60016060604051908101604052808673ffffffffffffffffffffffffffffffffffffffff1681526020018573ffffffffffffffffffffffffffffffffffffffff16815260200184848080601f0160208091040260200160405190810160405280939291908181526020018383808284378201915050505050508152509080600181540180825580915050906001820390600052602060002090600302016000909192909190915060008201518160000160006101000a81548173ffffffffffffffffffffffffffffffffffffffff021916908373ffffffffffffffffffffffffffffffffffffffff16021790555060208201518160010160006101000a81548173ffffffffffffffffffffffffffffffffffffffff021916908373ffffffffffffffffffffffffffffffffffffffff16021790555060408201518160020190805190602001906109f992919061139e565b5050505050505050565b6000806000809054906101000a900473ffffffffffffffffffffffffffffffffffffffff1673ffffffffffffffffffffffffffffffffffffffff163373ffffffffffffffffffffffffffffffffffffffff16141515610a6157600080fd5b610a6961141e565b604051809103906000f080158015610a85573d6000803e3d6000fd5b5090508073ffffffffffffffffffffffffffffffffffffffff167efffc2da0b561cae30d9826d37709e9421c4725faebc226cbbb7ef5fc5e734960405160405180910390a28091505090565b6000809054906101000a900473ffffffffffffffffffffffffffffffffffffffff1673ffffffffffffffffffffffffffffffffffffffff163373ffffffffffffffffffffffffffffffffffffffff16141515610b2c57600080fd5b6000809054906101000a900473ffffffffffffffffffffffffffffffffffffffff1673ffffffffffffffffffffffffffffffffffffffff167ff8df31144d9c2f0f6b59d69b8b98abd5459d07f2742c4df920b25aae33c6482060405160405180910390a260008060006101000a81548173ffffffffffffffffffffffffffffffffffffffff021916908373ffffffffffffffffffffffffffffffffffffffff160217905550565b6000809054906101000a900473ffffffffffffffffffffffffffffffffffffffff1673ffffffffffffffffffffffffffffffffffffffff163373ffffffffffffffffffffffffffffffffffffffff16141515610c2e57600080fd5b8173ffffffffffffffffffffffffffffffffffffffff16638f283970826040518263ffffffff167c0100000000000000000000000000000000000000000000000000000000028152600401808273ffffffffffffffffffffffffffffffffffffffff1673ffffffffffffffffffffffffffffffffffffffff168152602001915050600060405180830381600087803b158015610cc957600080fd5b505af1158015610cdd573d6000803e3d6000fd5b505050505050565b6000806060600184815481101515610cf957fe5b906000526020600020906003020160000160009054906101000a900473ffffffffffffffffffffffffffffffffffffffff16600185815481101515610d3a57fe5b906000526020600020906003020160010160009054906101000a900473ffffffffffffffffffffffffffffffffffffffff16600186815481101515610d7b57fe5b9060005260206000209060030201600201808054600181600116156101000203166002900480601f016020809104026020016040519081016040528092919081815260200182805460018160011615610100020316600290048015610e215780601f10610df657610100808354040283529160200191610e21565b820191906000526020600020905b815481529060010190602001808311610e0457829003601f168201915b505050505090509250925092509193909250565b6000809054906101000a900473ffffffffffffffffffffffffffffffffffffffff1681565b6000806000809054906101000a900473ffffffffffffffffffffffffffffffffffffffff1673ffffffffffffffffffffffffffffffffffffffff163373ffffffffffffffffffffffffffffffffffffffff16141515610eb857600080fd5b600091505b6001805490508210156111a057600182815481101515610ed957fe5b906000526020600020906003020190506000816002018054600181600116156101000203166002900490501115611097578060000160009054906101000a900473ffffffffffffffffffffffffffffffffffffffff1673ffffffffffffffffffffffffffffffffffffffff16634f1ef2868260010160009054906101000a900473ffffffffffffffffffffffffffffffffffffffff16836002016040518363ffffffff167c0100000000000000000000000000000000000000000000000000000000028152600401808373ffffffffffffffffffffffffffffffffffffffff1673ffffffffffffffffffffffffffffffffffffffff168152602001806020018281038252838181546001816001161561010002031660029004815260200191508054600181600116156101000203166002900480156110595780601f1061102e57610100808354040283529160200191611059565b820191906000526020600020905b81548152906001019060200180831161103c57829003601f168201915b50509350505050600060405180830381600087803b15801561107a57600080fd5b505af115801561108e573d6000803e3d6000fd5b50505050611193565b8060000160009054906101000a900473ffffffffffffffffffffffffffffffffffffffff1673ffffffffffffffffffffffffffffffffffffffff16633659cfe68260010160009054906101000a900473ffffffffffffffffffffffffffffffffffffffff166040518263ffffffff167c0100000000000000000000000000000000000000000000000000000000028152600401808273ffffffffffffffffffffffffffffffffffffffff1673ffffffffffffffffffffffffffffffffffffffff168152602001915050600060405180830381600087803b15801561117a57600080fd5b505af115801561118e573d6000803e3d6000fd5b505050505b8180600101925050610ebd565b600160006111ae919061142e565b5050565b6000600180549050905090565b6000809054906101000a900473ffffffffffffffffffffffffffffffffffffffff1673ffffffffffffffffffffffffffffffffffffffff163373ffffffffffffffffffffffffffffffffffffffff1614151561121a57600080fd5b60016000611228919061142e565b565b6000809054906101000a900473ffffffffffffffffffffffffffffffffffffffff1673ffffffffffffffffffffffffffffffffffffffff163373ffffffffffffffffffffffffffffffffffffffff1614151561128557600080fd5b61128e816112a4565b50565b600080823b905060008111915050919050565b600073ffffffffffffffffffffffffffffffffffffffff168173ffffffffffffffffffffffffffffffffffffffff16141515156112e057600080fd5b8073ffffffffffffffffffffffffffffffffffffffff166000809054906101000a900473ffffffffffffffffffffffffffffffffffffffff1673ffffffffffffffffffffffffffffffffffffffff167f8be0079c531659141344cd1fd0a4f28419497f9722a3daafe3b4186f6b6457e060405160405180910390a3806000806101000a81548173ffffffffffffffffffffffffffffffffffffffff021916908373ffffffffffffffffffffffffffffffffffffffff16021790555050565b828054600181600116156101000203166002900490600052602060002090601f016020900481019282601f106113df57805160ff191683800117855561140d565b8280016001018555821561140d579182015b8281111561140c5782518255916020019190600101906113f1565b5b50905061141a9190611452565b5090565b604051610b288061153d83390190565b508054600082556003029060005260206000209081019061144f9190611477565b50565b61147491905b80821115611470576000816000905550600101611458565b5090565b90565b6114f191905b808211156114ed57600080820160006101000a81549073ffffffffffffffffffffffffffffffffffffffff02191690556001820160006101000a81549073ffffffffffffffffffffffffffffffffffffffff02191690556002820160006114e491906114f4565b5060030161147d565b5090565b90565b50805460018160011615610100020316600290046000825580601f1061151a5750611539565b601f0160209004906000526020600020908101906115389190611452565b5b505600608060405234801561001057600080fd5b5060405180807f63697669632e70726f78792e696d706c656d656e746174696f6e000000000000815250601a0190506040518091039020600019167f79c0b2e23f98c5d9493b683161fd173aa1a1b9b2d2fd27e058f18762bd4c83856001026000191614151561007c57fe5b60405180807f63697669632e70726f78792e61646d696e00000000000000000000000000000081525060110190506040518091039020600019167f6b8c63651be9b7d203dff51735b4ccebdaaf675846356e7d8a582c69c9d1d27c600102600019161415156100e757fe5b6100ff33610104640100000000026401000000009004565b610133565b60007f6b8c63651be9b7d203dff51735b4ccebdaaf675846356e7d8a582c69c9d1d27c60010290508181555050565b6109e6806101426000396000f30060806040526004361061006d576000357c0100000000000000000000000000000000000000000000000000000000900463ffffffff1680633659cfe6146101505780634f1ef286146101935780635c60da1b146101e15780638f28397014610238578063f851a4401461027b575b6100756102d2565b73ffffffffffffffffffffffffffffffffffffffff163373ffffffffffffffffffffffffffffffffffffffff161415151561013e576040517f08c379a00000000000000000000000000000000000000000000000000000000081526004018080602001828103825260248152602001807f4d6573736167652073656e646572206973206e6f7420636f6e7472616374206181526020017f646d696e0000000000000000000000000000000000000000000000000000000081525060400191505060405180910390fd5b61014e610149610303565b610334565b005b34801561015c57600080fd5b50610191600480360381019080803573ffffffffffffffffffffffffffffffffffffffff16906020019092919050505061035a565b005b6101df600480360381019080803573ffffffffffffffffffffffffffffffffffffffff1690602001909291908035906020019082018035906020019190919293919293905050506103b7565b005b3480156101ed57600080fd5b506101f6610303565b604051808273ffffffffffffffffffffffffffffffffffffffff1673ffffffffffffffffffffffffffffffffffffffff16815260200191505060405180910390f35b34801561024457600080fd5b50610279600480360381019080803573ffffffffffffffffffffffffffffffffffffffff1690602001909291905050506104ee565b005b34801561028757600080fd5b506102906106b4565b604051808273ffffffffffffffffffffffffffffffffffffffff1673ffffffffffffffffffffffffffffffffffffffff16815260200191505060405180910390f35b6000807f6b8c63651be9b7d203dff51735b4ccebdaaf675846356e7d8a582c69c9d1d27c6001029050805491505090565b6000807f79c0b2e23f98c5d9493b683161fd173aa1a1b9b2d2fd27e058f18762bd4c83856001029050805491505090565b3660008037600080366000845af43d6000803e8060008114610355573d6000f35b3d6000fd5b6103626102d2565b73ffffffffffffffffffffffffffffffffffffffff163373ffffffffffffffffffffffffffffffffffffffff1614156103a35761039e81610714565b6103b4565b6103b36103ae610303565b610334565b5b50565b6103bf6102d2565b73ffffffffffffffffffffffffffffffffffffffff163373ffffffffffffffffffffffffffffffffffffffff1614156104d8576103fb83610714565b3073ffffffffffffffffffffffffffffffffffffffff163483836040518083838082843782019150509250505060006040518083038185875af19250505015156104d3576040517f08c379a00000000000000000000000000000000000000000000000000000000081526004018080602001828103825260308152602001807f55706772616465206572726f723a20696e697469616c697a6174696f6e206d6581526020017f74686f642063616c6c206661696c65640000000000000000000000000000000081525060400191505060405180910390fd5b6104e9565b6104e86104e3610303565b610334565b5b505050565b6104f66102d2565b73ffffffffffffffffffffffffffffffffffffffff163373ffffffffffffffffffffffffffffffffffffffff1614156106a057600073ffffffffffffffffffffffffffffffffffffffff168173ffffffffffffffffffffffffffffffffffffffff16141515156105f4576040517f08c379a000000000000000000000000000000000000000000000000000000000815260040180806020018281038252602c8152602001807f43616e6e6f74206368616e676520636f6e74726163742061646d696e20746f2081526020017f7a65726f2061646472657373000000000000000000000000000000000000000081525060400191505060405180910390fd5b7f7e644d79422f17c01e4894b5f4f588d331ebfa28653d42ae832dc59e38c9798f61061d6102d2565b82604051808373ffffffffffffffffffffffffffffffffffffffff1673ffffffffffffffffffffffffffffffffffffffff1681526020018273ffffffffffffffffffffffffffffffffffffffff1673ffffffffffffffffffffffffffffffffffffffff1681526020019250505060405180910390a161069b81610880565b6106b1565b6106b06106ab610303565b610334565b5b50565b60006106be6102d2565b73ffffffffffffffffffffffffffffffffffffffff163373ffffffffffffffffffffffffffffffffffffffff161415610700576106f96102d2565b9050610711565b61071061070b610303565b610334565b5b90565b600061071e610303565b90508173ffffffffffffffffffffffffffffffffffffffff168173ffffffffffffffffffffffffffffffffffffffff1614151515610810576040517f08c379a00000000000000000000000000000000000000000000000000000000081526004018080602001828103825260438152602001807f55706772616465206572726f723a2070726f787920636f6e747261637420616c81526020017f726561647920757365732073706563696669656420696d706c656d656e74617481526020017f696f6e000000000000000000000000000000000000000000000000000000000081525060600191505060405180910390fd5b610819826108af565b7fbc7cd75a20ee27fd9adebab32041f755214dbc6bffa90cc0225b39da2e5c2d3b82604051808273ffffffffffffffffffffffffffffffffffffffff1673ffffffffffffffffffffffffffffffffffffffff16815260200191505060405180910390a15050565b60007f6b8c63651be9b7d203dff51735b4ccebdaaf675846356e7d8a582c69c9d1d27c60010290508181555050565b60006108ba826109a7565b151561097a576040517f08c379a00000000000000000000000000000000000000000000000000000000081526004018080602001828103825260438152602001807f43616e6e6f7420736574206e657720696d706c656d656e746174696f6e3a206e81526020017f6f20636f6e747261637420636f646520617420636f6e7472616374206164647281526020017f657373000000000000000000000000000000000000000000000000000000000081525060600191505060405180910390fd5b7f79c0b2e23f98c5d9493b683161fd173aa1a1b9b2d2fd27e058f18762bd4c838560010290508181555050565b600080823b9050600081119150509190505600a165627a7a7230582099304d09b27196dd94223d4b3993c5bc8c8f1a74f52d5d48681a5cfe5f7ec9c10029a165627a7a723058209dff3b17069d01d1de2182e49f0d66975b3680b85b245bb6637c6e44ffc81de50029",
  "source": "pragma solidity ^0.4.24;\n\nimport \"./CvcProxy.sol\";\nimport \"openzeppelin-solidity/contracts/ownership/Ownable.sol\";\nimport \"openzeppelin-solidity/contracts/AddressUtils.sol\";\n\n/**\n* @title CvcMigrator\n* @dev This is a system contract which provides transactional upgrade functionality.\n* It allows the ability to add 'upgrade transactions' for multiple proxy contracts and execute all of them in single transaction.\n*/\ncontract CvcMigrator is Ownable {\n\n    /**\n    * @dev The ProxyCreated event is emitted when new instance of CvcProxy contract is deployed.\n    * @param proxyAddress New proxy contract instance address.\n    */\n    event ProxyCreated(address indexed proxyAddress);\n\n    struct Migration {\n        address proxy;\n        address implementation;\n        bytes data;\n    }\n\n    /// List of registered upgrades.\n    Migration[] public migrations;\n\n    /**\n    * @dev Store migration record for the next migration\n    * @param _proxy Proxy address\n    * @param _implementation Implementation address\n    * @param _data Pass-through to proxy's updateToAndCall\n    */\n    function addUpgrade(address _proxy, address _implementation, bytes _data) external onlyOwner {\n        require(AddressUtils.isContract(_implementation), \"Migrator error: no contract code at new implementation address\");\n        require(CvcProxy(_proxy).implementation() != _implementation, \"Migrator error: proxy contract already uses specified implementation\");\n        migrations.push(Migration(_proxy, _implementation, _data));\n    }\n\n    /**\n    * @dev Applies stored upgrades to proxies. Flushes the list of migration records\n    */\n    function migrate() external onlyOwner {\n        for (uint256 i = 0; i < migrations.length; i++) {\n            Migration storage migration = migrations[i];\n            if (migration.data.length > 0) {\n                CvcProxy(migration.proxy).upgradeToAndCall(migration.implementation, migration.data);\n            } else {\n                CvcProxy(migration.proxy).upgradeTo(migration.implementation);\n            }\n        }\n        delete migrations;\n    }\n\n    /**\n    * @dev Flushes the migration list without applying them. Can be used in case wrong migration added to the list.\n    */\n    function reset() external onlyOwner {\n        delete migrations;\n    }\n\n    /**\n    * @dev Transfers ownership from the migrator to a new address\n    * @param _target Proxy address\n    * @param _newOwner New proxy owner address\n    */\n    function changeProxyAdmin(address _target, address _newOwner) external onlyOwner {\n        CvcProxy(_target).changeAdmin(_newOwner);\n    }\n\n    /**\n    * @dev Proxy factory\n    * @return CvcProxy\n    */\n    function createProxy() external onlyOwner returns (CvcProxy) {\n        CvcProxy proxy = new CvcProxy();\n        // We emit event here to retrieve contract address later in the tx receipt\n        emit ProxyCreated(address(proxy));\n        return proxy;\n    }\n\n    /**\n    * @dev Returns migration record by index. Will become obsolete as soon as migrations() will be usable via web3.js\n    * @param _index 0-based index\n    * @return address Proxy address\n    * @return address Implementation address\n    * @return bytes Pass-through to proxy's updateToAndCall\n    */\n    function getMigration(uint256 _index) external view returns (address, address, bytes) {\n        return (migrations[_index].proxy, migrations[_index].implementation, migrations[_index].data);\n    }\n\n    /**\n    * @dev Returns current stored migration count\n    * @return uint256 Count\n    */\n    function getMigrationCount() external view returns (uint256) {\n        return migrations.length;\n    }\n\n}\n",
  "compiler": {
    "name": "solc",
    "version": "0.4.24+commit.e67f0147.Emscripten.clang"
  },
  "schemaVersion": "2.0.1",
  "updatedAt": "2018-09-14T13:17:20.220Z"
}