{
  "contractName": "CvcOntology",
  "abi": [
    {
      "constant": true,
      "inputs": [],
      "name": "implementation",
      "outputs": [
        {
          "name": "impl",
          "type": "address"
        }
      ],
      "payable": false,
      "stateMutability": "view",
      "type": "function"
    },
    {
      "constant": true,
      "inputs": [],
      "name": "owner",
      "outputs": [
        {
          "name": "",
          "type": "address"
        }
      ],
      "payable": false,
      "stateMutability": "view",
      "type": "function"
    },
    {
      "constant": false,
      "inputs": [
        {
          "name": "newOwner",
          "type": "address"
        }
      ],
      "name": "transferOwnership",
      "outputs": [],
      "payable": false,
      "stateMutability": "nonpayable",
      "type": "function"
    },
    {
      "inputs": [],
      "payable": false,
      "stateMutability": "nonpayable",
      "type": "constructor"
    },
    {
      "anonymous": false,
      "inputs": [
        {
          "indexed": true,
          "name": "previousOwner",
          "type": "address"
        },
        {
          "indexed": true,
          "name": "newOwner",
          "type": "address"
        }
      ],
      "name": "OwnershipTransferred",
      "type": "event"
    },
    {
      "constant": false,
      "inputs": [
        {
          "name": "_recordType",
          "type": "string"
        },
        {
          "name": "_recordName",
          "type": "string"
        },
        {
          "name": "_recordVersion",
          "type": "string"
        },
        {
          "name": "_reference",
          "type": "string"
        },
        {
          "name": "_referenceType",
          "type": "string"
        },
        {
          "name": "_referenceHash",
          "type": "bytes32"
        }
      ],
      "name": "add",
      "outputs": [],
      "payable": false,
      "stateMutability": "nonpayable",
      "type": "function"
    },
    {
      "constant": false,
      "inputs": [
        {
          "name": "_owner",
          "type": "address"
        }
      ],
      "name": "initialize",
      "outputs": [],
      "payable": false,
      "stateMutability": "nonpayable",
      "type": "function"
    },
    {
      "constant": false,
      "inputs": [
        {
          "name": "_type",
          "type": "string"
        },
        {
          "name": "_name",
          "type": "string"
        },
        {
          "name": "_version",
          "type": "string"
        }
      ],
      "name": "deprecate",
      "outputs": [],
      "payable": false,
      "stateMutability": "nonpayable",
      "type": "function"
    },
    {
      "constant": false,
      "inputs": [
        {
          "name": "_id",
          "type": "bytes32"
        }
      ],
      "name": "deprecateById",
      "outputs": [],
      "payable": false,
      "stateMutability": "nonpayable",
      "type": "function"
    },
    {
      "constant": true,
      "inputs": [
        {
          "name": "_id",
          "type": "bytes32"
        }
      ],
      "name": "getById",
      "outputs": [
        {
          "name": "id",
          "type": "bytes32"
        },
        {
          "name": "recordType",
          "type": "string"
        },
        {
          "name": "recordName",
          "type": "string"
        },
        {
          "name": "recordVersion",
          "type": "string"
        },
        {
          "name": "reference",
          "type": "string"
        },
        {
          "name": "referenceType",
          "type": "string"
        },
        {
          "name": "referenceHash",
          "type": "bytes32"
        },
        {
          "name": "deprecated",
          "type": "bool"
        }
      ],
      "payable": false,
      "stateMutability": "view",
      "type": "function"
    },
    {
      "constant": true,
      "inputs": [
        {
          "name": "_type",
          "type": "string"
        },
        {
          "name": "_name",
          "type": "string"
        },
        {
          "name": "_version",
          "type": "string"
        }
      ],
      "name": "getByTypeNameVersion",
      "outputs": [
        {
          "name": "id",
          "type": "bytes32"
        },
        {
          "name": "recordType",
          "type": "string"
        },
        {
          "name": "recordName",
          "type": "string"
        },
        {
          "name": "recordVersion",
          "type": "string"
        },
        {
          "name": "reference",
          "type": "string"
        },
        {
          "name": "referenceType",
          "type": "string"
        },
        {
          "name": "referenceHash",
          "type": "bytes32"
        },
        {
          "name": "deprecated",
          "type": "bool"
        }
      ],
      "payable": false,
      "stateMutability": "view",
      "type": "function"
    },
    {
      "constant": true,
      "inputs": [],
      "name": "getAll",
      "outputs": [
        {
          "components": [
            {
              "name": "id",
              "type": "bytes32"
            },
            {
              "name": "recordType",
              "type": "string"
            },
            {
              "name": "recordName",
              "type": "string"
            },
            {
              "name": "recordVersion",
              "type": "string"
            },
            {
              "name": "reference",
              "type": "string"
            },
            {
              "name": "referenceType",
              "type": "string"
            },
            {
              "name": "referenceHash",
              "type": "bytes32"
            }
          ],
          "name": "",
          "type": "tuple[]"
        }
      ],
      "payable": false,
      "stateMutability": "view",
      "type": "function"
    },
    {
      "constant": true,
      "inputs": [],
      "name": "getAllIds",
      "outputs": [
        {
          "name": "",
          "type": "bytes32[]"
        }
      ],
      "payable": false,
      "stateMutability": "view",
      "type": "function"
    }
  ],
  "bytecode": "0x60806040523480156200001157600080fd5b5060405180807f63697669632e70726f78792e696d706c656d656e746174696f6e000000000000815250601a0190506040518091039020600019167f79c0b2e23f98c5d9493b683161fd173aa1a1b9b2d2fd27e058f18762bd4c8385600102600019161415156200007e57fe5b62000098336200009e640100000000026401000000009004565b6200054d565b6000620000b962000347640100000000026401000000009004565b90506004600082604051602001808273ffffffffffffffffffffffffffffffffffffffff1673ffffffffffffffffffffffffffffffffffffffff166c01000000000000000000000000028152601401807f696e697469616c697a6564000000000000000000000000000000000000000000815250600b019150506040516020818303038152906040526040518082805190602001908083835b60208310151562000179578051825260208201915060208101905060208303925062000152565b6001836020036101000a03801982511681845116808217855250505050505090500191505060405180910390206000191660001916815260200190815260200160002060009054906101000a900460ff161515156200020f576040517f08c379a000000000000000000000000000000000000000000000000000000000815260040162000206906200052b565b60405180910390fd5b620002298262000378640100000000026401000000009004565b60016004600083604051602001808273ffffffffffffffffffffffffffffffffffffffff1673ffffffffffffffffffffffffffffffffffffffff166c01000000000000000000000000028152601401807f696e697469616c697a6564000000000000000000000000000000000000000000815250600b019150506040516020818303038152906040526040518082805190602001908083835b602083101515620002e95780518252602082019150602081019050602083039250620002c2565b6001836020036101000a03801982511681845116808217855250505050505090500191505060405180910390206000191660001916815260200190815260200160002060006101000a81548160ff0219169083151502179055505050565b6000807f79c0b2e23f98c5d9493b683161fd173aa1a1b9b2d2fd27e058f18762bd4c83856001029050805491505090565b8073ffffffffffffffffffffffffffffffffffffffff16620003a86200047c640100000000026401000000009004565b73ffffffffffffffffffffffffffffffffffffffff167f8be0079c531659141344cd1fd0a4f28419497f9722a3daafe3b4186f6b6457e060405160405180910390a3806002600060405180807f6f776e6572000000000000000000000000000000000000000000000000000000815250600501905060405180910390206000191660001916815260200190815260200160002060006101000a81548173ffffffffffffffffffffffffffffffffffffffff021916908373ffffffffffffffffffffffffffffffffffffffff16021790555050565b60006002600060405180807f6f776e6572000000000000000000000000000000000000000000000000000000815250600501905060405180910390206000191660001916815260200190815260200160002060009054906101000a900473ffffffffffffffffffffffffffffffffffffffff16905090565b6000601f82527f436f6e747261637420697320616c726561647920696e697469616c697a6564006020830152604082019050919050565b600060208201905081810360008301526200054681620004f4565b9050919050565b613cb2806200055d6000396000f3006080604052600436106100af576000357c0100000000000000000000000000000000000000000000000000000000900463ffffffff16806302df0b61146100b457806304a6021d146100dd5780632dff0d0d1461012157806330d2219b1461016557806353ed51431461018e5780635c60da1b146101b95780638da5cb5b146101e4578063aaa44e5c1461020f578063c4d66de81461023a578063d9db1f5514610263578063f2fde38b1461028c575b600080fd5b3480156100c057600080fd5b506100db60048036036100d69190810190613121565b6102b5565b005b3480156100e957600080fd5b5061010460048036036100ff9190810190613263565b610533565b6040516101189897969594939291906138eb565b60405180910390f35b34801561012d57600080fd5b5061014860048036036101439190810190613121565b6106c5565b60405161015c9897969594939291906138eb565b60405180910390f35b34801561017157600080fd5b5061018c6004803603610187919081019061314a565b610894565b005b34801561019a57600080fd5b506101a3610e6b565b6040516101b091906138c9565b60405180910390f35b3480156101c557600080fd5b506101ce6110c6565b6040516101db919061388c565b60405180910390f35b3480156101f057600080fd5b506101f96110f7565b604051610206919061388c565b60405180910390f35b34801561021b57600080fd5b5061022461116f565b60405161023191906138a7565b60405180910390f35b34801561024657600080fd5b50610261600480360361025c91908101906130f8565b61135a565b005b34801561026f57600080fd5b5061028a60048036036102859190810190613263565b6115da565b005b34801561029857600080fd5b506102b360048036036102ae91908101906130f8565b6117be565b005b600460006102c16110c6565b604051602001808273ffffffffffffffffffffffffffffffffffffffff1673ffffffffffffffffffffffffffffffffffffffff166c01000000000000000000000000028152601401807f696e697469616c697a6564000000000000000000000000000000000000000000815250600b019150506040516020818303038152906040526040518082805190602001908083835b6020831015156103785780518252602082019150602081019050602083039250610353565b6001836020036101000a03801982511681845116808217855250505050505090500191505060405180910390206000191660001916815260200190815260200160002060009054906101000a900460ff16151561040a576040517f08c379a000000000000000000000000000000000000000000000000000000000815260040161040190613a4c565b60405180910390fd5b6104126110f7565b73ffffffffffffffffffffffffffffffffffffffff163373ffffffffffffffffffffffffffffffffffffffff16141515610481576040517f08c379a0000000000000000000000000000000000000000000000000000000008152600401610478906139cc565b60405180910390fd5b600060010261048f826118b3565b60001916141515156104d6576040517f08c379a00000000000000000000000000000000000000000000000000000000081526004016104cd90613a8c565b60405180910390fd5b600015156104e3826119b1565b1515141515610527576040517f08c379a000000000000000000000000000000000000000000000000000000000815260040161051e90613aec565b60405180910390fd5b61053081611abc565b50565b600060608060608060606000806004600061054c6110c6565b604051602001808273ffffffffffffffffffffffffffffffffffffffff1673ffffffffffffffffffffffffffffffffffffffff166c01000000000000000000000000028152601401807f696e697469616c697a6564000000000000000000000000000000000000000000815250600b019150506040516020818303038152906040526040518082805190602001908083835b60208310151561060357805182526020820191506020810190506020830392506105de565b6001836020036101000a03801982511681845116808217855250505050505090500191505060405180910390206000191660001916815260200190815260200160002060009054906101000a900460ff161515610695576040517f08c379a000000000000000000000000000000000000000000000000000000000815260040161068c90613a4c565b60405180910390fd5b6106a86106a38c8c8c611bcc565b6106c5565b975097509750975097509750975097509397509397509397509397565b60006060806060806060600080600460006106de6110c6565b604051602001808273ffffffffffffffffffffffffffffffffffffffff1673ffffffffffffffffffffffffffffffffffffffff166c01000000000000000000000000028152601401807f696e697469616c697a6564000000000000000000000000000000000000000000815250600b019150506040516020818303038152906040526040518082805190602001908083835b6020831015156107955780518252602082019150602081019050602083039250610770565b6001836020036101000a03801982511681845116808217855250505050505090500191505060405180910390206000191660001916815260200190815260200160002060009054906101000a900460ff161515610827576040517f08c379a000000000000000000000000000000000000000000000000000000000815260040161081e90613a4c565b60405180910390fd5b610830896118b3565b9150600060010282600019161415156108895761084c89611da0565b965061085789611f36565b9550610862896120cc565b945061086d89612262565b9350610878896123f8565b9250610883896119b1565b90508897505b919395975091939597565b6000600460006108a26110c6565b604051602001808273ffffffffffffffffffffffffffffffffffffffff1673ffffffffffffffffffffffffffffffffffffffff166c01000000000000000000000000028152601401807f696e697469616c697a6564000000000000000000000000000000000000000000815250600b019150506040516020818303038152906040526040518082805190602001908083835b6020831015156109595780518252602082019150602081019050602083039250610934565b6001836020036101000a03801982511681845116808217855250505050505090500191505060405180910390206000191660001916815260200190815260200160002060009054906101000a900460ff1615156109eb576040517f08c379a00000000000000000000000000000000000000000000000000000000081526004016109e290613a4c565b60405180910390fd5b6109f36110f7565b73ffffffffffffffffffffffffffffffffffffffff163373ffffffffffffffffffffffffffffffffffffffff16141515610a62576040517f08c379a0000000000000000000000000000000000000000000000000000000008152600401610a59906139cc565b60405180910390fd5b60008c8c9050111515610aaa576040517f08c379a0000000000000000000000000000000000000000000000000000000008152600401610aa19061398c565b60405180910390fd5b60008a8a9050111515610af2576040517f08c379a0000000000000000000000000000000000000000000000000000000008152600401610ae990613a6c565b60405180910390fd5b600088889050111515610b3a576040517f08c379a0000000000000000000000000000000000000000000000000000000008152600401610b3190613acc565b60405180910390fd5b600086869050111515610b82576040517f08c379a0000000000000000000000000000000000000000000000000000000008152600401610b79906139ac565b60405180910390fd5b600084849050111515610bca576040517f08c379a0000000000000000000000000000000000000000000000000000000008152600401610bc19061398c565b60405180910390fd5b6000600102826000191614151515610c17576040517f08c379a0000000000000000000000000000000000000000000000000000000008152600401610c0e90613aac565b60405180910390fd5b610cb88c8c8080601f0160208091040260200160405190810160405280939291908181526020018383808284378201915050505050508b8b8080601f0160208091040260200160405190810160405280939291908181526020018383808284378201915050505050508a8a8080601f016020809104026020016040519081016040528093929190818152602001838380828437820191505050505050611bcc565b90506000600102610cc8826118b3565b60001916141515610d0e576040517f08c379a0000000000000000000000000000000000000000000000000000000008152600401610d05906139ec565b60405180910390fd5b610d4a818d8d8080601f01602080910402602001604051908101604052809392919081815260200183838082843782019150505050505061258e565b610d86818b8b8080601f01602080910402602001604051908101604052809392919081815260200183838082843782019150505050505061269b565b610dc28189898080601f0160208091040260200160405190810160405280939291908181526020018383808284378201915050505050506127a8565b610dfe8187878080601f0160208091040260200160405190810160405280939291908181526020018383808284378201915050505050506128b5565b610e3a8185858080601f0160208091040260200160405190810160405280939291908181526020018383808284378201915050505050506129c2565b610e448183612acf565b610e55610e4f612bd0565b82612c27565b610e5d612cf8565b505050505050505050505050565b60606000806060600060046000610e806110c6565b604051602001808273ffffffffffffffffffffffffffffffffffffffff1673ffffffffffffffffffffffffffffffffffffffff166c01000000000000000000000000028152601401807f696e697469616c697a6564000000000000000000000000000000000000000000815250600b019150506040516020818303038152906040526040518082805190602001908083835b602083101515610f375780518252602082019150602081019050602083039250610f12565b6001836020036101000a03801982511681845116808217855250505050505090500191505060405180910390206000191660001916815260200190815260200160002060009054906101000a900460ff161515610fc9576040517f08c379a0000000000000000000000000000000000000000000000000000000008152600401610fc090613a4c565b60405180910390fd5b610fd1612bd0565b93508360405190808252806020026020018201604052801561100d57816020015b610ffa612f45565b815260200190600190039081610ff25790505b509150600090505b838110156110bc5761102681612d68565b925060e0604051908101604052808460001916815260200161104785611da0565b815260200161105585611f36565b8152602001611063856120cc565b815260200161107185612262565b815260200161107f856123f8565b815260200161108d856118b3565b6000191681525082828151811015156110a257fe5b906020019060200201819052508080600101915050611015565b8194505050505090565b6000807f79c0b2e23f98c5d9493b683161fd173aa1a1b9b2d2fd27e058f18762bd4c83856001029050805491505090565b60006002600060405180807f6f776e6572000000000000000000000000000000000000000000000000000000815250600501905060405180910390206000191660001916815260200190815260200160002060009054906101000a900473ffffffffffffffffffffffffffffffffffffffff16905090565b6060600060606000600460006111836110c6565b604051602001808273ffffffffffffffffffffffffffffffffffffffff1673ffffffffffffffffffffffffffffffffffffffff166c01000000000000000000000000028152601401807f696e697469616c697a6564000000000000000000000000000000000000000000815250600b019150506040516020818303038152906040526040518082805190602001908083835b60208310151561123a5780518252602082019150602081019050602083039250611215565b6001836020036101000a03801982511681845116808217855250505050505090500191505060405180910390206000191660001916815260200190815260200160002060009054906101000a900460ff1615156112cc576040517f08c379a00000000000000000000000000000000000000000000000000000000081526004016112c390613a4c565b60405180910390fd5b6112d4612bd0565b9250826040519080825280602002602001820160405280156113055781602001602082028038833980820191505090505b509150600090505b828110156113515761131e81612d68565b828281518110151561132c57fe5b906020019060200201906000191690816000191681525050808060010191505061130d565b81935050505090565b60006113646110c6565b90506004600082604051602001808273ffffffffffffffffffffffffffffffffffffffff1673ffffffffffffffffffffffffffffffffffffffff166c01000000000000000000000000028152601401807f696e697469616c697a6564000000000000000000000000000000000000000000815250600b019150506040516020818303038152906040526040518082805190602001908083835b60208310151561142257805182526020820191506020810190506020830392506113fd565b6001836020036101000a03801982511681845116808217855250505050505090500191505060405180910390206000191660001916815260200190815260200160002060009054906101000a900460ff161515156114b5576040517f08c379a00000000000000000000000000000000000000000000000000000000081526004016114ac90613a2c565b60405180910390fd5b6114be82612e36565b60016004600083604051602001808273ffffffffffffffffffffffffffffffffffffffff1673ffffffffffffffffffffffffffffffffffffffff166c01000000000000000000000000028152601401807f696e697469616c697a6564000000000000000000000000000000000000000000815250600b019150506040516020818303038152906040526040518082805190602001908083835b60208310151561157c5780518252602082019150602081019050602083039250611557565b6001836020036101000a03801982511681845116808217855250505050505090500191505060405180910390206000191660001916815260200190815260200160002060006101000a81548160ff0219169083151502179055505050565b600460006115e66110c6565b604051602001808273ffffffffffffffffffffffffffffffffffffffff1673ffffffffffffffffffffffffffffffffffffffff166c01000000000000000000000000028152601401807f696e697469616c697a6564000000000000000000000000000000000000000000815250600b019150506040516020818303038152906040526040518082805190602001908083835b60208310151561169d5780518252602082019150602081019050602083039250611678565b6001836020036101000a03801982511681845116808217855250505050505090500191505060405180910390206000191660001916815260200190815260200160002060009054906101000a900460ff16151561172f576040517f08c379a000000000000000000000000000000000000000000000000000000000815260040161172690613a4c565b60405180910390fd5b6117376110f7565b73ffffffffffffffffffffffffffffffffffffffff163373ffffffffffffffffffffffffffffffffffffffff161415156117a6576040517f08c379a000000000000000000000000000000000000000000000000000000000815260040161179d906139cc565b60405180910390fd5b6117b96117b4848484611bcc565b6102b5565b505050565b6117c66110f7565b73ffffffffffffffffffffffffffffffffffffffff163373ffffffffffffffffffffffffffffffffffffffff16141515611835576040517f08c379a000000000000000000000000000000000000000000000000000000000815260040161182c906139cc565b60405180910390fd5b600073ffffffffffffffffffffffffffffffffffffffff168173ffffffffffffffffffffffffffffffffffffffff16141515156118a7576040517f08c379a000000000000000000000000000000000000000000000000000000000815260040161189e90613a0c565b60405180910390fd5b6118b081612e36565b50565b6000600660008360405160200180807f7265636f7264732e0000000000000000000000000000000000000000000000008152506008018260001916600019168152602001807f2e7265666572656e636548617368000000000000000000000000000000000000815250600e019150506040516020818303038152906040526040518082805190602001908083835b6020831015156119665780518252602082019150602081019050602083039250611941565b6001836020036101000a038019825116818451168082178552505050505050905001915050604051809103902060001916600019168152602001908152602001600020549050919050565b6000600460008360405160200180807f7265636f7264732e0000000000000000000000000000000000000000000000008152506008018260001916600019168152602001807f2e64657072656361746564000000000000000000000000000000000000000000815250600b019150506040516020818303038152906040526040518082805190602001908083835b602083101515611a645780518252602082019150602081019050602083039250611a3f565b6001836020036101000a03801982511681845116808217855250505050505090500191505060405180910390206000191660001916815260200190815260200160002060009054906101000a900460ff169050919050565b6001600460008360405160200180807f7265636f7264732e0000000000000000000000000000000000000000000000008152506008018260001916600019168152602001807f2e64657072656361746564000000000000000000000000000000000000000000815250600b019150506040516020818303038152906040526040518082805190602001908083835b602083101515611b6f5780518252602082019150602081019050602083039250611b4a565b6001836020036101000a03801982511681845116808217855250505050505090500191505060405180910390206000191660001916815260200190815260200160002060006101000a81548160ff02191690831515021790555050565b60008383836040516020018084805190602001908083835b602083101515611c095780518252602082019150602081019050602083039250611be4565b6001836020036101000a038019825116818451168082178552505050505050905001807f2e0000000000000000000000000000000000000000000000000000000000000081525060010183805190602001908083835b602083101515611c845780518252602082019150602081019050602083039250611c5f565b6001836020036101000a038019825116818451168082178552505050505050905001807f2e0000000000000000000000000000000000000000000000000000000000000081525060010182805190602001908083835b602083101515611cff5780518252602082019150602081019050602083039250611cda565b6001836020036101000a03801982511681845116808217855250505050505090500193505050506040516020818303038152906040526040518082805190602001908083835b602083101515611d6a5780518252602082019150602081019050602083039250611d45565b6001836020036101000a038019825116818451168082178552505050505050905001915050604051809103902090509392505050565b6060600160008360405160200180807f7265636f7264732e0000000000000000000000000000000000000000000000008152506008018260001916600019168152602001807f2e747970650000000000000000000000000000000000000000000000000000008152506005019150506040516020818303038152906040526040518082805190602001908083835b602083101515611e535780518252602082019150602081019050602083039250611e2e565b6001836020036101000a0380198251168184511680821785525050505050509050019150506040518091039020600019166000191681526020019081526020016000208054600181600116156101000203166002900480601f016020809104026020016040519081016040528092919081815260200182805460018160011615610100020316600290048015611f2a5780601f10611eff57610100808354040283529160200191611f2a565b820191906000526020600020905b815481529060010190602001808311611f0d57829003601f168201915b50505050509050919050565b6060600160008360405160200180807f7265636f7264732e0000000000000000000000000000000000000000000000008152506008018260001916600019168152602001807f2e6e616d650000000000000000000000000000000000000000000000000000008152506005019150506040516020818303038152906040526040518082805190602001908083835b602083101515611fe95780518252602082019150602081019050602083039250611fc4565b6001836020036101000a0380198251168184511680821785525050505050509050019150506040518091039020600019166000191681526020019081526020016000208054600181600116156101000203166002900480601f0160208091040260200160405190810160405280929190818152602001828054600181600116156101000203166002900480156120c05780601f10612095576101008083540402835291602001916120c0565b820191906000526020600020905b8154815290600101906020018083116120a357829003601f168201915b50505050509050919050565b6060600160008360405160200180807f7265636f7264732e0000000000000000000000000000000000000000000000008152506008018260001916600019168152602001807f2e76657273696f6e0000000000000000000000000000000000000000000000008152506008019150506040516020818303038152906040526040518082805190602001908083835b60208310151561217f578051825260208201915060208101905060208303925061215a565b6001836020036101000a0380198251168184511680821785525050505050509050019150506040518091039020600019166000191681526020019081526020016000208054600181600116156101000203166002900480601f0160208091040260200160405190810160405280929190818152602001828054600181600116156101000203166002900480156122565780601f1061222b57610100808354040283529160200191612256565b820191906000526020600020905b81548152906001019060200180831161223957829003601f168201915b50505050509050919050565b6060600160008360405160200180807f7265636f7264732e0000000000000000000000000000000000000000000000008152506008018260001916600019168152602001807f2e7265666572656e636500000000000000000000000000000000000000000000815250600a019150506040516020818303038152906040526040518082805190602001908083835b60208310151561231557805182526020820191506020810190506020830392506122f0565b6001836020036101000a0380198251168184511680821785525050505050509050019150506040518091039020600019166000191681526020019081526020016000208054600181600116156101000203166002900480601f0160208091040260200160405190810160405280929190818152602001828054600181600116156101000203166002900480156123ec5780601f106123c1576101008083540402835291602001916123ec565b820191906000526020600020905b8154815290600101906020018083116123cf57829003601f168201915b50505050509050919050565b6060600160008360405160200180807f7265636f7264732e0000000000000000000000000000000000000000000000008152506008018260001916600019168152602001807f2e7265666572656e636554797065000000000000000000000000000000000000815250600e019150506040516020818303038152906040526040518082805190602001908083835b6020831015156124ab5780518252602082019150602081019050602083039250612486565b6001836020036101000a0380198251168184511680821785525050505050509050019150506040518091039020600019166000191681526020019081526020016000208054600181600116156101000203166002900480601f0160208091040260200160405190810160405280929190818152602001828054600181600116156101000203166002900480156125825780601f1061255757610100808354040283529160200191612582565b820191906000526020600020905b81548152906001019060200180831161256557829003601f168201915b50505050509050919050565b80600160008460405160200180807f7265636f7264732e0000000000000000000000000000000000000000000000008152506008018260001916600019168152602001807f2e747970650000000000000000000000000000000000000000000000000000008152506005019150506040516020818303038152906040526040518082805190602001908083835b602083101515612640578051825260208201915060208101905060208303925061261b565b6001836020036101000a0380198251168184511680821785525050505050509050019150506040518091039020600019166000191681526020019081526020016000209080519060200190612696929190612f89565b505050565b80600160008460405160200180807f7265636f7264732e0000000000000000000000000000000000000000000000008152506008018260001916600019168152602001807f2e6e616d650000000000000000000000000000000000000000000000000000008152506005019150506040516020818303038152906040526040518082805190602001908083835b60208310151561274d5780518252602082019150602081019050602083039250612728565b6001836020036101000a03801982511681845116808217855250505050505090500191505060405180910390206000191660001916815260200190815260200160002090805190602001906127a3929190612f89565b505050565b80600160008460405160200180807f7265636f7264732e0000000000000000000000000000000000000000000000008152506008018260001916600019168152602001807f2e76657273696f6e0000000000000000000000000000000000000000000000008152506008019150506040516020818303038152906040526040518082805190602001908083835b60208310151561285a5780518252602082019150602081019050602083039250612835565b6001836020036101000a03801982511681845116808217855250505050505090500191505060405180910390206000191660001916815260200190815260200160002090805190602001906128b0929190612f89565b505050565b80600160008460405160200180807f7265636f7264732e0000000000000000000000000000000000000000000000008152506008018260001916600019168152602001807f2e7265666572656e636500000000000000000000000000000000000000000000815250600a019150506040516020818303038152906040526040518082805190602001908083835b6020831015156129675780518252602082019150602081019050602083039250612942565b6001836020036101000a03801982511681845116808217855250505050505090500191505060405180910390206000191660001916815260200190815260200160002090805190602001906129bd929190612f89565b505050565b80600160008460405160200180807f7265636f7264732e0000000000000000000000000000000000000000000000008152506008018260001916600019168152602001807f2e7265666572656e636554797065000000000000000000000000000000000000815250600e019150506040516020818303038152906040526040518082805190602001908083835b602083101515612a745780518252602082019150602081019050602083039250612a4f565b6001836020036101000a0380198251168184511680821785525050505050509050019150506040518091039020600019166000191681526020019081526020016000209080519060200190612aca929190612f89565b505050565b80600660008460405160200180807f7265636f7264732e0000000000000000000000000000000000000000000000008152506008018260001916600019168152602001807f2e7265666572656e636548617368000000000000000000000000000000000000815250600e019150506040516020818303038152906040526040518082805190602001908083835b602083101515612b815780518252602082019150602081019050602083039250612b5c565b6001836020036101000a03801982511681845116808217855250505050505090500191505060405180910390206000191660001916815260200190815260200160002081600019169055505050565b600080600060405180807f7265636f7264732e636f756e7400000000000000000000000000000000000000815250600d01905060405180910390206000191660001916815260200190815260200160002054905090565b80600660008460405160200180807f7265636f7264732e6964732e0000000000000000000000000000000000000000815250600c018281526020019150506040516020818303038152906040526040518082805190602001908083835b602083101515612ca95780518252602082019150602081019050602083039250612c84565b6001836020036101000a03801982511681845116808217855250505050505090500191505060405180910390206000191660001916815260200190815260200160002081600019169055505050565b612d136001612d05612bd0565b612f2990919063ffffffff16565b60008060405180807f7265636f7264732e636f756e7400000000000000000000000000000000000000815250600d01905060405180910390206000191660001916815260200190815260200160002081905550565b6000600660008360405160200180807f7265636f7264732e6964732e0000000000000000000000000000000000000000815250600c018281526020019150506040516020818303038152906040526040518082805190602001908083835b602083101515612deb5780518252602082019150602081019050602083039250612dc6565b6001836020036101000a038019825116818451168082178552505050505050905001915050604051809103902060001916600019168152602001908152602001600020549050919050565b8073ffffffffffffffffffffffffffffffffffffffff16612e556110f7565b73ffffffffffffffffffffffffffffffffffffffff167f8be0079c531659141344cd1fd0a4f28419497f9722a3daafe3b4186f6b6457e060405160405180910390a3806002600060405180807f6f776e6572000000000000000000000000000000000000000000000000000000815250600501905060405180910390206000191660001916815260200190815260200160002060006101000a81548173ffffffffffffffffffffffffffffffffffffffff021916908373ffffffffffffffffffffffffffffffffffffffff16021790555050565b60008183019050828110151515612f3c57fe5b80905092915050565b60e060405190810160405280600080191681526020016060815260200160608152602001606081526020016060815260200160608152602001600080191681525090565b828054600181600116156101000203166002900490600052602060002090601f016020900481019282601f10612fca57805160ff1916838001178555612ff8565b82800160010185558215612ff8579182015b82811115612ff7578251825591602001919060010190612fdc565b5b5090506130059190613009565b5090565b61302b91905b8082111561302757600081600090555060010161300f565b5090565b90565b600061303a8235613bfb565b905092915050565b600061304e8235613c1b565b905092915050565b60008083601f840112151561306a57600080fd5b8235905067ffffffffffffffff81111561308357600080fd5b60208301915083600182028301111561309b57600080fd5b9250929050565b600082601f83011215156130b557600080fd5b81356130c86130c382613b39565b613b0c565b915080825260208301602083018583830111156130e457600080fd5b6130ef838284613c25565b50505092915050565b60006020828403121561310a57600080fd5b60006131188482850161302e565b91505092915050565b60006020828403121561313357600080fd5b600061314184828501613042565b91505092915050565b600080600080600080600080600080600060c08c8e03121561316b57600080fd5b60008c013567ffffffffffffffff81111561318557600080fd5b6131918e828f01613056565b9b509b505060208c013567ffffffffffffffff8111156131b057600080fd5b6131bc8e828f01613056565b995099505060408c013567ffffffffffffffff8111156131db57600080fd5b6131e78e828f01613056565b975097505060608c013567ffffffffffffffff81111561320657600080fd5b6132128e828f01613056565b955095505060808c013567ffffffffffffffff81111561323157600080fd5b61323d8e828f01613056565b935093505060a06132508e828f01613042565b9150509295989b509295989b9093969950565b60008060006060848603121561327857600080fd5b600084013567ffffffffffffffff81111561329257600080fd5b61329e868287016130a2565b935050602084013567ffffffffffffffff8111156132bb57600080fd5b6132c7868287016130a2565b925050604084013567ffffffffffffffff8111156132e457600080fd5b6132f0868287016130a2565b9150509250925092565b61330381613bc5565b82525050565b600061331482613b7f565b80845260208401935061332683613b65565b60005b828110156133585761333c8683516133e1565b61334582613bab565b9150602086019550600181019050613329565b50849250505092915050565b600061336f82613b8a565b8084526020840193508360208202850161338885613b72565b60005b848110156133c15783830388526133a38383516137d4565b92506133ae82613bb8565b915060208801975060018101905061338b565b508196508694505050505092915050565b6133db81613be5565b82525050565b6133ea81613bf1565b82525050565b60006133fb82613ba0565b80845261340f816020860160208601613c34565b61341881613c67565b602085010191505092915050565b600061343182613b95565b808452613445816020860160208601613c34565b61344e81613c67565b602085010191505092915050565b6000601a82527f456d7074792063726564656e7469616c206974656d20747970650000000000006020830152604082019050919050565b6000601f82527f456d7074792063726564656e7469616c206974656d207265666572656e6365006020830152604082019050919050565b6000602582527f4d6573736167652073656e646572206d75737420626520636f6e74726163742060208301527f61646d696e0000000000000000000000000000000000000000000000000000006040830152606082019050919050565b6000602582527f43726564656e7469616c206974656d207265636f726420616c7265616479206560208301527f78697374730000000000000000000000000000000000000000000000000000006040830152606082019050919050565b6000602582527f436f6e7472616374206f776e65722063616e6e6f74206265207a65726f20616460208301527f64726573730000000000000000000000000000000000000000000000000000006040830152606082019050919050565b6000601f82527f436f6e747261637420697320616c726561647920696e697469616c697a6564006020830152604082019050919050565b6000601b82527f436f6e7472616374206973206e6f7420696e697469616c697a656400000000006020830152604082019050919050565b6000601a82527f456d7074792063726564656e7469616c206974656d206e616d650000000000006020830152604082019050919050565b6000602882527f43616e6e6f742064657072656361746520756e6b6e6f776e2063726564656e7460208301527f69616c206974656d0000000000000000000000000000000000000000000000006040830152606082019050919050565b6000602482527f456d7074792063726564656e7469616c206974656d207265666572656e63652060208301527f68617368000000000000000000000000000000000000000000000000000000006040830152606082019050919050565b6000601d82527f456d7074792063726564656e7469616c206974656d2076657273696f6e0000006020830152604082019050919050565b6000602582527f43726564656e7469616c206974656d20697320616c726561647920646570726560208301527f63617465640000000000000000000000000000000000000000000000000000006040830152606082019050919050565b600060e0830160008301516137ec60008601826133e1565b50602083015184820360208601526138048282613426565b9150506040830151848203604086015261381e8282613426565b915050606083015184820360608601526138388282613426565b915050608083015184820360808601526138528282613426565b91505060a083015184820360a086015261386c8282613426565b91505060c083015161388160c08601826133e1565b508091505092915050565b60006020820190506138a160008301846132fa565b92915050565b600060208201905081810360008301526138c18184613309565b905092915050565b600060208201905081810360008301526138e38184613364565b905092915050565b600061010082019050613901600083018b6133e1565b8181036020830152613913818a6133f0565b9050818103604083015261392781896133f0565b9050818103606083015261393b81886133f0565b9050818103608083015261394f81876133f0565b905081810360a083015261396381866133f0565b905061397260c08301856133e1565b61397f60e08301846133d2565b9998505050505050505050565b600060208201905081810360008301526139a58161345c565b9050919050565b600060208201905081810360008301526139c581613493565b9050919050565b600060208201905081810360008301526139e5816134ca565b9050919050565b60006020820190508181036000830152613a0581613527565b9050919050565b60006020820190508181036000830152613a2581613584565b9050919050565b60006020820190508181036000830152613a45816135e1565b9050919050565b60006020820190508181036000830152613a6581613618565b9050919050565b60006020820190508181036000830152613a858161364f565b9050919050565b60006020820190508181036000830152613aa581613686565b9050919050565b60006020820190508181036000830152613ac5816136e3565b9050919050565b60006020820190508181036000830152613ae581613740565b9050919050565b60006020820190508181036000830152613b0581613777565b9050919050565b6000604051905081810181811067ffffffffffffffff82111715613b2f57600080fd5b8060405250919050565b600067ffffffffffffffff821115613b5057600080fd5b601f19601f8301169050602081019050919050565b6000602082019050919050565b6000602082019050919050565b600081519050919050565b600081519050919050565b600081519050919050565b600081519050919050565b6000602082019050919050565b6000602082019050919050565b600073ffffffffffffffffffffffffffffffffffffffff82169050919050565b60008115159050919050565b6000819050919050565b600073ffffffffffffffffffffffffffffffffffffffff82169050919050565b6000819050919050565b82818337600083830152505050565b60005b83811015613c52578082015181840152602081019050613c37565b83811115613c61576000848401525b50505050565b6000601f19601f83011690509190505600a265627a7a7230582042840aeb5df1172b454197d6427d2911154c7acd4c3f079705076a22964230366c6578706572696d656e74616cf50037",
  "source": "pragma solidity ^0.4.24;\npragma experimental ABIEncoderV2;\n\nimport \"./CvcOntologyInterface.sol\";\nimport \"../upgradeability/Initializable.sol\";\nimport \"../upgradeability/Ownable.sol\";\nimport \"../upgradeability/EternalStorage.sol\";\nimport \"openzeppelin-solidity/contracts/math/SafeMath.sol\";\n\n/**\n * @title CvcOntology\n * @dev This contract holds the list of all recognized Credential Items available for sale.\n */\ncontract CvcOntology is EternalStorage, Initializable, Ownable, CvcOntologyInterface {\n\n    using SafeMath for uint256;\n\n    /**\n    Data structures and storage layout:\n    struct CredentialItem {\n        string type; // \"claim\" or \"credential\"\n        string name; // e.g. \"proofOfIdentity\"\n        string version; // e.g. \"v1.2\"\n        string reference; // e.g. \"https://example.com/credential-proofOfIdentity-v1_2.json\"\n        string referenceType; // e.g. \"JSON-LD-Context\"\n        bytes32 referenceHash; // e.g. \"0x2cd9bf92c5e20b1b410f5ace94d963a96e89156fbe65b70365e8596b37f1f165\"\n        bool deprecated; // e.g. false\n    }\n    uint256 recordsCount;\n    bytes32[] recordsIds;\n    mapping(bytes32 => CredentialItem) records;\n    **/\n\n    /**\n     * Constructor to initialize with some default values\n     */\n    constructor() public {\n        initialize(msg.sender);\n    }\n\n    /**\n     * @dev Adds new Credential Item to the registry.\n     * @param _recordType Credential Item type\n     * @param _recordName Credential Item name\n     * @param _recordVersion Credential Item version\n     * @param _reference Credential Item reference URL\n     * @param _referenceType Credential Item reference type\n     * @param _referenceHash Credential Item reference hash\n     */\n    function add(\n        string _recordType,\n        string _recordName,\n        string _recordVersion,\n        string _reference,\n        string _referenceType,\n        bytes32 _referenceHash\n    ) external onlyInitialized onlyOwner {\n        require(bytes(_recordType).length > 0, \"Empty credential item type\");\n        require(bytes(_recordName).length > 0, \"Empty credential item name\");\n        require(bytes(_recordVersion).length > 0, \"Empty credential item version\");\n        require(bytes(_reference).length > 0, \"Empty credential item reference\");\n        require(bytes(_referenceType).length > 0, \"Empty credential item type\");\n        require(_referenceHash != 0x0, \"Empty credential item reference hash\");\n\n        bytes32 id = calculateId(_recordType, _recordName, _recordVersion);\n\n        require(getReferenceHash(id) == 0x0, \"Credential item record already exists\");\n\n        setType(id, _recordType);\n        setName(id, _recordName);\n        setVersion(id, _recordVersion);\n        setReference(id, _reference);\n        setReferenceType(id, _referenceType);\n        setReferenceHash(id, _referenceHash);\n        setRecordId(getCount(), id);\n        incrementCount();\n    }\n\n    /**\n     * @dev Contract initialization method.\n     * @param _owner Contract owner address\n     */\n    function initialize(address _owner) public initializes {\n        setOwner(_owner);\n    }\n\n    /**\n    * @dev Deprecates single Credential Item of specific type, name and version.\n    * @param _type Record type to deprecate\n    * @param _name Record name to deprecate\n    * @param _version Record version to deprecate\n    */\n    function deprecate(string _type, string _name, string _version) public onlyInitialized onlyOwner {\n        deprecateById(calculateId(_type, _name, _version));\n    }\n\n    /**\n    * @dev Deprecates single Credential Item by ontology record ID.\n    * @param _id Ontology record ID\n    */\n    function deprecateById(bytes32 _id) public onlyInitialized onlyOwner {\n        require(getReferenceHash(_id) != 0x0, \"Cannot deprecate unknown credential item\");\n        require(getDeprecated(_id) == false, \"Credential item is already deprecated\");\n        setDeprecated(_id);\n    }\n\n    /**\n     * @dev Returns single Credential Item data up by ontology record ID.\n     * @param _id Ontology record ID to search by\n     * @return id Ontology record ID\n     * @return recordType Credential Item type\n     * @return recordName Credential Item name\n     * @return recordVersion Credential Item version\n     * @return reference Credential Item reference URL\n     * @return referenceType Credential Item reference type\n     * @return referenceHash Credential Item reference hash\n     * @return deprecated Credential Item type deprecation flag\n     */\n    function getById(\n        bytes32 _id\n    ) public view onlyInitialized returns (\n        bytes32 id,\n        string recordType,\n        string recordName,\n        string recordVersion,\n        string reference,\n        string referenceType,\n        bytes32 referenceHash,\n        bool deprecated\n    ) {\n        referenceHash = getReferenceHash(_id);\n        if (referenceHash != 0x0) {\n            recordType = getType(_id);\n            recordName = getName(_id);\n            recordVersion = getVersion(_id);\n            reference = getReference(_id);\n            referenceType = getReferenceType(_id);\n            deprecated = getDeprecated(_id);\n            id = _id;\n        }\n    }\n\n    /**\n     * @dev Returns single Credential Item of specific type, name and version.\n     * @param _type Credential Item type\n     * @param _name Credential Item name\n     * @param _version Credential Item version\n     * @return id Ontology record ID\n     * @return recordType Credential Item type\n     * @return recordName Credential Item name\n     * @return recordVersion Credential Item version\n     * @return reference Credential Item reference URL\n     * @return referenceType Credential Item reference type\n     * @return referenceHash Credential Item reference hash\n     * @return deprecated Credential Item type deprecation flag\n     */\n    function getByTypeNameVersion(\n        string _type,\n        string _name,\n        string _version\n    ) public view onlyInitialized returns (\n        bytes32 id,\n        string recordType,\n        string recordName,\n        string recordVersion,\n        string reference,\n        string referenceType,\n        bytes32 referenceHash,\n        bool deprecated\n    ) {\n        return getById(calculateId(_type, _name, _version));\n    }\n\n    /**\n     * @dev Returns all records. Currently is supported only from internal calls.\n     * @return CredentialItem[]\n     */\n    function getAll() public view onlyInitialized returns (CredentialItem[]) {\n        uint256 count = getCount();\n        bytes32 id;\n        CredentialItem[] memory records = new CredentialItem[](count);\n        for (uint256 i = 0; i < count; i++) {\n            id = getRecordId(i);\n            records[i] = CredentialItem(\n                id,\n                getType(id),\n                getName(id),\n                getVersion(id),\n                getReference(id),\n                getReferenceType(id),\n                getReferenceHash(id)\n            );\n        }\n\n        return records;\n    }\n\n    /**\n     * @dev Returns all ontology record IDs.\n     * Could be used from web3.js to retrieve the list of all records.\n     * @return bytes32[]\n     */\n    function getAllIds() public view onlyInitialized returns(bytes32[]) {\n        uint256 count = getCount();\n        bytes32[] memory ids = new bytes32[](count);\n        for (uint256 i = 0; i < count; i++) {\n            ids[i] = getRecordId(i);\n        }\n\n        return ids;\n    }\n\n    /**\n     * @dev Returns the number of registered ontology records.\n     * @return uint256\n     */\n    function getCount() internal view returns (uint256) {\n        // return recordsCount;\n        return uintStorage[keccak256(\"records.count\")];\n    }\n\n    /**\n    * @dev Increments total record count.\n    */\n    function incrementCount() internal {\n        // recordsCount = getCount().add(1);\n        uintStorage[keccak256(\"records.count\")] = getCount().add(1);\n    }\n\n    /**\n     * @dev Returns the ontology record ID by numeric index.\n     * @return bytes32\n     */\n    function getRecordId(uint256 _index) internal view returns (bytes32) {\n        // return recordsIds[_index];\n        return bytes32Storage[keccak256(abi.encodePacked(\"records.ids.\", _index))];\n    }\n\n    /**\n    * @dev Saves ontology record ID against the index.\n    * @param _index Numeric index.\n    * @param _id Ontology record ID.\n    */\n    function setRecordId(uint256 _index, bytes32 _id) internal {\n        // recordsIds[_index] = _id;\n        bytes32Storage[keccak256(abi.encodePacked(\"records.ids.\", _index))] = _id;\n    }\n\n    /**\n     * @dev Returns the Credential Item type.\n     * @return string\n     */\n    function getType(bytes32 _id) internal view returns (string) {\n        // return records[_id].type;\n        return stringStorage[keccak256(abi.encodePacked(\"records.\", _id, \".type\"))];\n    }\n\n    /**\n    * @dev Saves Credential Item type.\n    * @param _id Ontology record ID.\n    * @param _type Credential Item type.\n    */\n    function setType(bytes32 _id, string _type) internal {\n        // records[_id].type = _type;\n        stringStorage[keccak256(abi.encodePacked(\"records.\", _id, \".type\"))] = _type;\n    }\n\n    /**\n     * @dev Returns the Credential Item name.\n     * @return string\n     */\n    function getName(bytes32 _id) internal view returns (string) {\n        // records[_id].name;\n        return stringStorage[keccak256(abi.encodePacked(\"records.\", _id, \".name\"))];\n    }\n\n    /**\n    * @dev Saves Credential Item name.\n    * @param _id Ontology record ID.\n    * @param _name Credential Item name.\n    */\n    function setName(bytes32 _id, string _name) internal {\n        // records[_id].name = _name;\n        stringStorage[keccak256(abi.encodePacked(\"records.\", _id, \".name\"))] = _name;\n    }\n\n    /**\n     * @dev Returns the Credential Item version.\n     * @return string\n     */\n    function getVersion(bytes32 _id) internal view returns (string) {\n        // return records[_id].version;\n        return stringStorage[keccak256(abi.encodePacked(\"records.\", _id, \".version\"))];\n    }\n\n    /**\n    * @dev Saves Credential Item version.\n    * @param _id Ontology record ID.\n    * @param _version Credential Item version.\n    */\n    function setVersion(bytes32 _id, string _version) internal {\n        // records[_id].version = _version;\n        stringStorage[keccak256(abi.encodePacked(\"records.\", _id, \".version\"))] = _version;\n    }\n\n    /**\n     * @dev Returns the Credential Item reference URL.\n     * @return string\n     */\n    function getReference(bytes32 _id) internal view returns (string) {\n        // return records[_id].reference;\n        return stringStorage[keccak256(abi.encodePacked(\"records.\", _id, \".reference\"))];\n    }\n\n    /**\n    * @dev Saves Credential Item reference URL.\n    * @param _id Ontology record ID.\n    * @param _reference Reference value.\n    */\n    function setReference(bytes32 _id, string _reference) internal {\n        // records[_id].reference = _reference;\n        stringStorage[keccak256(abi.encodePacked(\"records.\", _id, \".reference\"))] = _reference;\n    }\n\n    /**\n     * @dev Returns the Credential Item reference type value.\n     * @return string\n     */\n    function getReferenceType(bytes32 _id) internal view returns (string) {\n        // return records[_id].referenceType;\n        return stringStorage[keccak256(abi.encodePacked(\"records.\", _id, \".referenceType\"))];\n    }\n\n    /**\n    * @dev Saves Credential Item reference type.\n    * @param _id Ontology record ID.\n    * @param _referenceType Reference type.\n    */\n    function setReferenceType(bytes32 _id, string _referenceType) internal {\n        // records[_id].referenceType = _referenceType;\n        stringStorage[keccak256(abi.encodePacked(\"records.\", _id, \".referenceType\"))] = _referenceType;\n    }\n\n    /**\n     * @dev Returns the Credential Item reference hash value.\n     * @return bytes32\n     */\n    function getReferenceHash(bytes32 _id) internal view returns (bytes32) {\n        // return records[_id].referenceHash;\n        return bytes32Storage[keccak256(abi.encodePacked(\"records.\", _id, \".referenceHash\"))];\n    }\n\n    /**\n    * @dev Saves Credential Item reference hash.\n    * @param _id Ontology record ID.\n    * @param _referenceHash Reference hash.\n    */\n    function setReferenceHash(bytes32 _id, bytes32 _referenceHash) internal {\n        // records[_id].referenceHash = _referenceHash;\n        bytes32Storage[keccak256(abi.encodePacked(\"records.\", _id, \".referenceHash\"))] = _referenceHash;\n    }\n\n    /**\n     * @dev Returns the Credential Item deprecation flag value.\n     * @return bool\n     */\n    function getDeprecated(bytes32 _id) internal view returns (bool) {\n        // return records[_id].deprecated;\n        return boolStorage[keccak256(abi.encodePacked(\"records.\", _id, \".deprecated\"))];\n    }\n\n    /**\n    * @dev Sets Credential Item deprecation flag value.\n    * @param _id Ontology record ID.\n    */\n    function setDeprecated(bytes32 _id) internal {\n        // records[_id].deprecated = true;\n        boolStorage[keccak256(abi.encodePacked(\"records.\", _id, \".deprecated\"))] = true;\n    }\n\n    /**\n    * @dev Calculates ontology record ID.\n    * @param _type Credential Item type.\n    * @param _name Credential Item name.\n    * @param _version Credential Item version.\n    */\n    function calculateId(string _type, string _name, string _version) internal pure returns (bytes32) {\n        return keccak256(abi.encodePacked(_type, \".\", _name, \".\", _version));\n    }\n}\n",
  "compiler": {
    "name": "solc",
    "version": "0.4.24+commit.e67f0147.Emscripten.clang"
  },
  "schemaVersion": "2.0.1",
  "updatedAt": "2018-09-14T13:17:20.212Z"
}