{
  "contractName": "CvcPricing",
  "abi": [
    {
      "constant": false,
      "inputs": [],
      "name": "unpause",
      "outputs": [],
      "payable": false,
      "stateMutability": "nonpayable",
      "type": "function"
    },
    {
      "constant": true,
      "inputs": [],
      "name": "implementation",
      "outputs": [
        {
          "name": "impl",
          "type": "address"
        }
      ],
      "payable": false,
      "stateMutability": "view",
      "type": "function"
    },
    {
      "constant": true,
      "inputs": [],
      "name": "paused",
      "outputs": [
        {
          "name": "",
          "type": "bool"
        }
      ],
      "payable": false,
      "stateMutability": "view",
      "type": "function"
    },
    {
      "constant": false,
      "inputs": [],
      "name": "pause",
      "outputs": [],
      "payable": false,
      "stateMutability": "nonpayable",
      "type": "function"
    },
    {
      "constant": true,
      "inputs": [],
      "name": "owner",
      "outputs": [
        {
          "name": "",
          "type": "address"
        }
      ],
      "payable": false,
      "stateMutability": "view",
      "type": "function"
    },
    {
      "constant": false,
      "inputs": [
        {
          "name": "newOwner",
          "type": "address"
        }
      ],
      "name": "transferOwnership",
      "outputs": [],
      "payable": false,
      "stateMutability": "nonpayable",
      "type": "function"
    },
    {
      "inputs": [
        {
          "name": "_ontology",
          "type": "address"
        },
        {
          "name": "_idvRegistry",
          "type": "address"
        }
      ],
      "payable": false,
      "stateMutability": "nonpayable",
      "type": "constructor"
    },
    {
      "anonymous": false,
      "inputs": [
        {
          "indexed": true,
          "name": "id",
          "type": "bytes32"
        },
        {
          "indexed": false,
          "name": "price",
          "type": "uint256"
        },
        {
          "indexed": true,
          "name": "idv",
          "type": "address"
        },
        {
          "indexed": false,
          "name": "credentialItemType",
          "type": "string"
        },
        {
          "indexed": false,
          "name": "credentialItemName",
          "type": "string"
        },
        {
          "indexed": false,
          "name": "credentialItemVersion",
          "type": "string"
        },
        {
          "indexed": true,
          "name": "credentialItemId",
          "type": "bytes32"
        }
      ],
      "name": "CredentialItemPriceSet",
      "type": "event"
    },
    {
      "anonymous": false,
      "inputs": [
        {
          "indexed": true,
          "name": "id",
          "type": "bytes32"
        },
        {
          "indexed": true,
          "name": "idv",
          "type": "address"
        },
        {
          "indexed": false,
          "name": "credentialItemType",
          "type": "string"
        },
        {
          "indexed": false,
          "name": "credentialItemName",
          "type": "string"
        },
        {
          "indexed": false,
          "name": "credentialItemVersion",
          "type": "string"
        },
        {
          "indexed": true,
          "name": "credentialItemId",
          "type": "bytes32"
        }
      ],
      "name": "CredentialItemPriceDeleted",
      "type": "event"
    },
    {
      "anonymous": false,
      "inputs": [],
      "name": "Pause",
      "type": "event"
    },
    {
      "anonymous": false,
      "inputs": [],
      "name": "Unpause",
      "type": "event"
    },
    {
      "anonymous": false,
      "inputs": [
        {
          "indexed": true,
          "name": "previousOwner",
          "type": "address"
        },
        {
          "indexed": true,
          "name": "newOwner",
          "type": "address"
        }
      ],
      "name": "OwnershipTransferred",
      "type": "event"
    },
    {
      "constant": false,
      "inputs": [
        {
          "name": "_credentialItemType",
          "type": "string"
        },
        {
          "name": "_credentialItemName",
          "type": "string"
        },
        {
          "name": "_credentialItemVersion",
          "type": "string"
        },
        {
          "name": "_price",
          "type": "uint256"
        }
      ],
      "name": "setPrice",
      "outputs": [],
      "payable": false,
      "stateMutability": "nonpayable",
      "type": "function"
    },
    {
      "constant": false,
      "inputs": [
        {
          "name": "_credentialItemType",
          "type": "string"
        },
        {
          "name": "_credentialItemName",
          "type": "string"
        },
        {
          "name": "_credentialItemVersion",
          "type": "string"
        }
      ],
      "name": "deletePrice",
      "outputs": [],
      "payable": false,
      "stateMutability": "nonpayable",
      "type": "function"
    },
    {
      "constant": true,
      "inputs": [
        {
          "name": "_idv",
          "type": "address"
        },
        {
          "name": "_credentialItemType",
          "type": "string"
        },
        {
          "name": "_credentialItemName",
          "type": "string"
        },
        {
          "name": "_credentialItemVersion",
          "type": "string"
        }
      ],
      "name": "getPrice",
      "outputs": [
        {
          "name": "id",
          "type": "bytes32"
        },
        {
          "name": "price",
          "type": "uint256"
        },
        {
          "name": "idv",
          "type": "address"
        },
        {
          "name": "credentialItemType",
          "type": "string"
        },
        {
          "name": "credentialItemName",
          "type": "string"
        },
        {
          "name": "credentialItemVersion",
          "type": "string"
        },
        {
          "name": "deprecated",
          "type": "bool"
        }
      ],
      "payable": false,
      "stateMutability": "view",
      "type": "function"
    },
    {
      "constant": true,
      "inputs": [
        {
          "name": "_idv",
          "type": "address"
        },
        {
          "name": "_credentialItemId",
          "type": "bytes32"
        }
      ],
      "name": "getPriceByCredentialItemId",
      "outputs": [
        {
          "name": "id",
          "type": "bytes32"
        },
        {
          "name": "price",
          "type": "uint256"
        },
        {
          "name": "idv",
          "type": "address"
        },
        {
          "name": "credentialItemType",
          "type": "string"
        },
        {
          "name": "credentialItemName",
          "type": "string"
        },
        {
          "name": "credentialItemVersion",
          "type": "string"
        },
        {
          "name": "deprecated",
          "type": "bool"
        }
      ],
      "payable": false,
      "stateMutability": "view",
      "type": "function"
    },
    {
      "constant": true,
      "inputs": [],
      "name": "getAllPrices",
      "outputs": [
        {
          "components": [
            {
              "name": "id",
              "type": "bytes32"
            },
            {
              "name": "price",
              "type": "uint256"
            },
            {
              "name": "idv",
              "type": "address"
            },
            {
              "name": "credentialItemType",
              "type": "string"
            },
            {
              "name": "credentialItemName",
              "type": "string"
            },
            {
              "name": "credentialItemVersion",
              "type": "string"
            },
            {
              "name": "deprecated",
              "type": "bool"
            }
          ],
          "name": "",
          "type": "tuple[]"
        }
      ],
      "payable": false,
      "stateMutability": "view",
      "type": "function"
    },
    {
      "constant": true,
      "inputs": [],
      "name": "getAllIds",
      "outputs": [
        {
          "name": "",
          "type": "bytes32[]"
        }
      ],
      "payable": false,
      "stateMutability": "view",
      "type": "function"
    },
    {
      "constant": false,
      "inputs": [
        {
          "name": "_ontology",
          "type": "address"
        },
        {
          "name": "_idvRegistry",
          "type": "address"
        },
        {
          "name": "_owner",
          "type": "address"
        }
      ],
      "name": "initialize",
      "outputs": [],
      "payable": false,
      "stateMutability": "nonpayable",
      "type": "function"
    },
    {
      "constant": true,
      "inputs": [
        {
          "name": "_id",
          "type": "bytes32"
        }
      ],
      "name": "getPriceById",
      "outputs": [
        {
          "name": "id",
          "type": "bytes32"
        },
        {
          "name": "price",
          "type": "uint256"
        },
        {
          "name": "idv",
          "type": "address"
        },
        {
          "name": "credentialItemType",
          "type": "string"
        },
        {
          "name": "credentialItemName",
          "type": "string"
        },
        {
          "name": "credentialItemVersion",
          "type": "string"
        },
        {
          "name": "deprecated",
          "type": "bool"
        }
      ],
      "payable": false,
      "stateMutability": "view",
      "type": "function"
    },
    {
      "constant": true,
      "inputs": [],
      "name": "ontology",
      "outputs": [
        {
          "name": "",
          "type": "address"
        }
      ],
      "payable": false,
      "stateMutability": "view",
      "type": "function"
    },
    {
      "constant": true,
      "inputs": [],
      "name": "idvRegistry",
      "outputs": [
        {
          "name": "",
          "type": "address"
        }
      ],
      "payable": false,
      "stateMutability": "view",
      "type": "function"
    }
  ],
  "bytecode": "0x60806040523480156200001157600080fd5b5060405160408062004fee833981018060405262000033919081019062000728565b60405180807f63697669632e70726f78792e696d706c656d656e746174696f6e000000000000815250601a0190506040518091039020600019167f79c0b2e23f98c5d9493b683161fd173aa1a1b9b2d2fd27e058f18762bd4c8385600102600019161415156200009f57fe5b620000bb828233620000c3640100000000026401000000009004565b50506200092c565b6000620000de62000552640100000000026401000000009004565b90506004600082604051602001808273ffffffffffffffffffffffffffffffffffffffff1673ffffffffffffffffffffffffffffffffffffffff166c01000000000000000000000000028152601401807f696e697469616c697a6564000000000000000000000000000000000000000000815250600b019150506040516020818303038152906040526040518082805190602001908083835b6020831015156200019e578051825260208201915060208101905060208303925062000177565b6001836020036101000a03801982511681845116808217855250505050505090500191505060405180910390206000191660001916815260200190815260200160002060009054906101000a900460ff1615151562000234576040517f08c379a00000000000000000000000000000000000000000000000000000000081526004016200022b90620008a6565b60405180910390fd5b620002538462000583640100000000026200321a176401000000009004565b151562000297576040517f08c379a00000000000000000000000000000000000000000000000000000000081526004016200028e90620008ea565b60405180910390fd5b620002b68362000583640100000000026200321a176401000000009004565b1515620002fa576040517f08c379a0000000000000000000000000000000000000000000000000000000008152600401620002f190620008c8565b60405180910390fd5b836002600060405180807f63697669632e6f6e746f6c6f6779000000000000000000000000000000000000815250600e01905060405180910390206000191660001916815260200190815260200160002060006101000a81548173ffffffffffffffffffffffffffffffffffffffff021916908373ffffffffffffffffffffffffffffffffffffffff160217905550826002600060405180807f63697669632e6964762e72656769737472790000000000000000000000000000815250601201905060405180910390206000191660001916815260200190815260200160002060006101000a81548173ffffffffffffffffffffffffffffffffffffffff021916908373ffffffffffffffffffffffffffffffffffffffff160217905550620004328262000596640100000000026401000000009004565b60016004600083604051602001808273ffffffffffffffffffffffffffffffffffffffff1673ffffffffffffffffffffffffffffffffffffffff166c01000000000000000000000000028152601401807f696e697469616c697a6564000000000000000000000000000000000000000000815250600b019150506040516020818303038152906040526040518082805190602001908083835b602083101515620004f25780518252602082019150602081019050602083039250620004cb565b6001836020036101000a03801982511681845116808217855250505050505090500191505060405180910390206000191660001916815260200190815260200160002060006101000a81548160ff02191690831515021790555050505050565b6000807f79c0b2e23f98c5d9493b683161fd173aa1a1b9b2d2fd27e058f18762bd4c83856001029050805491505090565b600080823b905060008111915050919050565b8073ffffffffffffffffffffffffffffffffffffffff16620005c66200069a640100000000026401000000009004565b73ffffffffffffffffffffffffffffffffffffffff167f8be0079c531659141344cd1fd0a4f28419497f9722a3daafe3b4186f6b6457e060405160405180910390a3806002600060405180807f6f776e6572000000000000000000000000000000000000000000000000000000815250600501905060405180910390206000191660001916815260200190815260200160002060006101000a81548173ffffffffffffffffffffffffffffffffffffffff021916908373ffffffffffffffffffffffffffffffffffffffff16021790555050565b60006002600060405180807f6f776e6572000000000000000000000000000000000000000000000000000000815250600501905060405180910390206000191660001916815260200190815260200160002060009054906101000a900473ffffffffffffffffffffffffffffffffffffffff16905090565b60006200072082516200090c565b905092915050565b600080604083850312156200073c57600080fd5b60006200074c8582860162000712565b92505060206200075f8582860162000712565b9150509250929050565b6000601f82527f436f6e747261637420697320616c726561647920696e697469616c697a6564006020830152604082019050919050565b6000604782527f496e697469616c697a6174696f6e206572726f723a206e6f20636f6e7472616360208301527f7420636f64652061742049445620726567697374727920636f6e74726163742060408301527f61646472657373000000000000000000000000000000000000000000000000006060830152608082019050919050565b6000604382527f496e697469616c697a6174696f6e206572726f723a206e6f20636f6e7472616360208301527f7420636f6465206174206f6e746f6c6f677920636f6e7472616374206164647260408301527f65737300000000000000000000000000000000000000000000000000000000006060830152608082019050919050565b60006020820190508181036000830152620008c18162000769565b9050919050565b60006020820190508181036000830152620008e381620007a0565b9050919050565b60006020820190508181036000830152620009058162000823565b9050919050565b600073ffffffffffffffffffffffffffffffffffffffff82169050919050565b6146b2806200093c6000396000f3006080604052600436106100e6576000357c0100000000000000000000000000000000000000000000000000000000900463ffffffff168063186bcaf0146100eb5780633f4ba83a14610116578063445df9d61461012d578063561387b1146101585780635c60da1b146101815780635c975abb146101ac57806383492ff1146101d75780638456cb591461020057806384b98987146102175780638da5cb5b1461025a578063a072f02b14610285578063aaa44e5c146102b0578063af304bab146102db578063c0c53b8b1461031e578063d0a6fa5414610347578063f2fde38b1461038a575b600080fd5b3480156100f757600080fd5b506101006103b3565b60405161010d9190614220565b60405180910390f35b34801561012257600080fd5b5061012b61042b565b005b34801561013957600080fd5b50610142610638565b60405161014f9190614144565b60405180910390f35b34801561016457600080fd5b5061017f600480360361017a9190810190613921565b610974565b005b34801561018d57600080fd5b50610196610d31565b6040516101a39190614107565b60405180910390f35b3480156101b857600080fd5b506101c1610d62565b6040516101ce9190614166565b60405180910390f35b3480156101e357600080fd5b506101fe60048036036101f9919081019061387d565b610e7d565b005b34801561020c57600080fd5b5061021561109b565b005b34801561022357600080fd5b5061023e60048036036102399190810190613648565b6112a9565b604051610251979695949392919061419c565b60405180910390f35b34801561026657600080fd5b5061026f61157d565b60405161027c9190614107565b60405180910390f35b34801561029157600080fd5b5061029a6115f5565b6040516102a7919061423b565b60405180910390f35b3480156102bc57600080fd5b506102c561166d565b6040516102d29190614122565b60405180910390f35b3480156102e757600080fd5b5061030260048036036102fd919081019061360c565b611858565b604051610315979695949392919061419c565b60405180910390f35b34801561032a57600080fd5b50610345600480360361034091908101906135bd565b611890565b005b34801561035357600080fd5b5061036e6004803603610369919081019061372a565b611cc4565b604051610381979695949392919061419c565b60405180910390f35b34801561039657600080fd5b506103b160048036036103ac9190810190613594565b611f3c565b005b60006002600060405180807f63697669632e6f6e746f6c6f6779000000000000000000000000000000000000815250600e01905060405180910390206000191660001916815260200190815260200160002060009054906101000a900473ffffffffffffffffffffffffffffffffffffffff16905090565b61043361157d565b73ffffffffffffffffffffffffffffffffffffffff163373ffffffffffffffffffffffffffffffffffffffff161415156104a2576040517f08c379a0000000000000000000000000000000000000000000000000000000008152600401610499906142a8565b60405180910390fd5b6104aa610d62565b15156104eb576040517f08c379a00000000000000000000000000000000000000000000000000000000081526004016104e290614388565b60405180910390fd5b6000600460006104f9610d31565b604051602001808273ffffffffffffffffffffffffffffffffffffffff1673ffffffffffffffffffffffffffffffffffffffff166c01000000000000000000000000028152601401807f70617573656400000000000000000000000000000000000000000000000000008152506006019150506040516020818303038152906040526040518082805190602001908083835b6020831015156105b0578051825260208201915060208101905060208303925061058b565b6001836020036101000a03801982511681845116808217855250505050505090500191505060405180910390206000191660001916815260200190815260200160002060006101000a81548160ff0219169083151502179055507f7805862f689e2f13df9f062ff482ad3ad112aca9e0847911ed832e158c525b3360405160405180910390a1565b60606000606060008060006060806060600060046000610656610d31565b604051602001808273ffffffffffffffffffffffffffffffffffffffff1673ffffffffffffffffffffffffffffffffffffffff166c01000000000000000000000000028152601401807f696e697469616c697a6564000000000000000000000000000000000000000000815250600b019150506040516020818303038152906040526040518082805190602001908083835b60208310151561070d57805182526020820191506020810190506020830392506106e8565b6001836020036101000a03801982511681845116808217855250505050505090500191505060405180910390206000191660001916815260200190815260200160002060009054906101000a900460ff16151561079f576040517f08c379a000000000000000000000000000000000000000000000000000000000815260040161079690614348565b60405180910390fd5b6107a7612031565b9850886040519080825280602002602001820160405280156107e357816020015b6107d0613435565b8152602001906001900390816107c85790505b509750600096505b88871015610965576107fc87612088565b955061080786612156565b94506108116103b3565b73ffffffffffffffffffffffffffffffffffffffff16632dff0d0d866040518263ffffffff167c01000000000000000000000000000000000000000000000000000000000281526004016108659190614181565b600060405180830381600087803b15801561087f57600080fd5b505af1158015610893573d6000803e3d6000fd5b505050506040513d6000823e3d601f19601f820116820180604052506108bc9190810190613753565b90919293949596509091925090915090508094508195508296508397505050505060e060405190810160405280876000191681526020016108fc88612254565b815260200161090a88612386565b73ffffffffffffffffffffffffffffffffffffffff168152602001858152602001848152602001838152602001821515815250888881518110151561094b57fe5b9060200190602002018190525086806001019750506107eb565b87995050505050505050505090565b60008060006109816115f5565b73ffffffffffffffffffffffffffffffffffffffff1663f6a3d24e336040518263ffffffff167c01000000000000000000000000000000000000000000000000000000000281526004016109d59190614107565b602060405180830381600087803b1580156109ef57600080fd5b505af1158015610a03573d6000803e3d6000fd5b505050506040513d601f19601f82011682018060405250610a279190810190613701565b1515610a68576040517f08c379a0000000000000000000000000000000000000000000000000000000008152600401610a5f90614328565b60405180910390fd5b610a70610d62565b151515610ab2576040517f08c379a0000000000000000000000000000000000000000000000000000000008152600401610aa990614428565b60405180910390fd5b67016345785d8a00008411151515610aff576040517f08c379a0000000000000000000000000000000000000000000000000000000008152600401610af6906142c8565b60405180910390fd5b610b076103b3565b73ffffffffffffffffffffffffffffffffffffffff166304a6021d8b8b8b8b8b8b6040518763ffffffff167c0100000000000000000000000000000000000000000000000000000000028152600401610b6596959493929190614256565b600060405180830381600087803b158015610b7f57600080fd5b505af1158015610b93573d6000803e3d6000fd5b505050506040513d6000823e3d601f19601f82011682018060405250610bbc9190810190613753565b90919293949550909192939450909192935090919250909150905080935081945050506000600102836000191614151515610c2c576040517f08c379a0000000000000000000000000000000000000000000000000000000008152600401610c2390614368565b60405180910390fd5b60001515821515141515610c75576040517f08c379a0000000000000000000000000000000000000000000000000000000008152600401610c6c906143a8565b60405180910390fd5b610c7f33846124a4565b90506000600102610c8f82612156565b600019161415610ca357610ca2816125a3565b5b610cad81336127cf565b610cb78184612906565b610cc18185612a07565b82600019163373ffffffffffffffffffffffffffffffffffffffff1682600019167f309572d944c780478013b578655418ed206a960df635608a23b709eb8b8acac0878e8e8e8e8e8e604051610d1d9796959493929190614468565b60405180910390a450505050505050505050565b6000807f79c0b2e23f98c5d9493b683161fd173aa1a1b9b2d2fd27e058f18762bd4c83856001029050805491505090565b600060046000610d70610d31565b604051602001808273ffffffffffffffffffffffffffffffffffffffff1673ffffffffffffffffffffffffffffffffffffffff166c01000000000000000000000000028152601401807f70617573656400000000000000000000000000000000000000000000000000008152506006019150506040516020818303038152906040526040518082805190602001908083835b602083101515610e275780518252602082019150602081019050602083039250610e02565b6001836020036101000a03801982511681845116808217855250505050505090500191505060405180910390206000191660001916815260200190815260200160002060009054906101000a900460ff16905090565b600080610e88610d62565b151515610eca576040517f08c379a0000000000000000000000000000000000000000000000000000000008152600401610ec190614428565b60405180910390fd5b610ed26103b3565b73ffffffffffffffffffffffffffffffffffffffff166304a6021d8989898989896040518763ffffffff167c0100000000000000000000000000000000000000000000000000000000028152600401610f3096959493929190614256565b600060405180830381600087803b158015610f4a57600080fd5b505af1158015610f5e573d6000803e3d6000fd5b505050506040513d6000823e3d601f19601f82011682018060405250610f879190810190613753565b9091929394955090919293945090919293509091925090915090505080925050610fb133836124a4565b9050610fbc81612156565b9150600060010282600019161415151561100b576040517f08c379a0000000000000000000000000000000000000000000000000000000008152600401611002906143e8565b60405180910390fd5b61101481612b14565b61101d81612c2e565b61102681612d29565b61102f81612e23565b81600019163373ffffffffffffffffffffffffffffffffffffffff1682600019167fc1d4c3036bc63e15e14104808e58215f2fd872f5f50bf0efce07a6242106ef8a8b8b8b8b8b8b60405161108996959493929190614256565b60405180910390a45050505050505050565b6110a361157d565b73ffffffffffffffffffffffffffffffffffffffff163373ffffffffffffffffffffffffffffffffffffffff16141515611112576040517f08c379a0000000000000000000000000000000000000000000000000000000008152600401611109906142a8565b60405180910390fd5b61111a610d62565b15151561115c576040517f08c379a000000000000000000000000000000000000000000000000000000000815260040161115390614428565b60405180910390fd5b60016004600061116a610d31565b604051602001808273ffffffffffffffffffffffffffffffffffffffff1673ffffffffffffffffffffffffffffffffffffffff166c01000000000000000000000000028152601401807f70617573656400000000000000000000000000000000000000000000000000008152506006019150506040516020818303038152906040526040518082805190602001908083835b60208310151561122157805182526020820191506020810190506020830392506111fc565b6001836020036101000a03801982511681845116808217855250505050505090500191505060405180910390206000191660001916815260200190815260200160002060006101000a81548160ff0219169083151502179055507f6985a02210a168e66602d3235cb6db0e70f92b3ba4d376a33c0f3d9434bff62560405160405180910390a1565b60008060006060806060600080600460006112c2610d31565b604051602001808273ffffffffffffffffffffffffffffffffffffffff1673ffffffffffffffffffffffffffffffffffffffff166c01000000000000000000000000028152601401807f696e697469616c697a6564000000000000000000000000000000000000000000815250600b019150506040516020818303038152906040526040518082805190602001908083835b6020831015156113795780518252602082019150602081019050602083039250611354565b6001836020036101000a03801982511681845116808217855250505050505090500191505060405180910390206000191660001916815260200190815260200160002060009054906101000a900460ff16151561140b576040517f08c379a000000000000000000000000000000000000000000000000000000000815260040161140290614348565b60405180910390fd5b6114136103b3565b73ffffffffffffffffffffffffffffffffffffffff166304a6021d8f8f8f8f8f8f6040518763ffffffff167c010000000000000000000000000000000000000000000000000000000002815260040161147196959493929190614256565b600060405180830381600087803b15801561148b57600080fd5b505af115801561149f573d6000803e3d6000fd5b505050506040513d6000823e3d601f19601f820116820180604052506114c89190810190613753565b90919250909150905080965081975082985083995084955050505050508e95506114f286826124a4565b97506114fd88612254565b9650600167016345785d8a00000187141561156a57600087600080836001029350819150602060405190810160405280600081525090602060405190810160405280600081525090602060405190810160405280600081525090975097509750975097509750975061156b565b5b50975097509750975097509750979050565b60006002600060405180807f6f776e6572000000000000000000000000000000000000000000000000000000815250600501905060405180910390206000191660001916815260200190815260200160002060009054906101000a900473ffffffffffffffffffffffffffffffffffffffff16905090565b60006002600060405180807f63697669632e6964762e72656769737472790000000000000000000000000000815250601201905060405180910390206000191660001916815260200190815260200160002060009054906101000a900473ffffffffffffffffffffffffffffffffffffffff16905090565b606060006060600060046000611681610d31565b604051602001808273ffffffffffffffffffffffffffffffffffffffff1673ffffffffffffffffffffffffffffffffffffffff166c01000000000000000000000000028152601401807f696e697469616c697a6564000000000000000000000000000000000000000000815250600b019150506040516020818303038152906040526040518082805190602001908083835b6020831015156117385780518252602082019150602081019050602083039250611713565b6001836020036101000a03801982511681845116808217855250505050505090500191505060405180910390206000191660001916815260200190815260200160002060009054906101000a900460ff1615156117ca576040517f08c379a00000000000000000000000000000000000000000000000000000000081526004016117c190614348565b60405180910390fd5b6117d2612031565b9250826040519080825280602002602001820160405280156118035781602001602082028038833980820191505090505b509150600090505b8281101561184f5761181c81612088565b828281518110151561182a57fe5b906020019060200201906000191690816000191681525050808060010191505061180b565b81935050505090565b6000806000606080606060006118766118718a8a6124a4565b611cc4565b965096509650965096509650965092959891949750929550565b600061189a610d31565b90506004600082604051602001808273ffffffffffffffffffffffffffffffffffffffff1673ffffffffffffffffffffffffffffffffffffffff166c01000000000000000000000000028152601401807f696e697469616c697a6564000000000000000000000000000000000000000000815250600b019150506040516020818303038152906040526040518082805190602001908083835b6020831015156119585780518252602082019150602081019050602083039250611933565b6001836020036101000a03801982511681845116808217855250505050505090500191505060405180910390206000191660001916815260200190815260200160002060009054906101000a900460ff161515156119eb576040517f08c379a00000000000000000000000000000000000000000000000000000000081526004016119e290614308565b60405180910390fd5b6119f48461321a565b1515611a35576040517f08c379a0000000000000000000000000000000000000000000000000000000008152600401611a2c90614448565b60405180910390fd5b611a3e8361321a565b1515611a7f576040517f08c379a0000000000000000000000000000000000000000000000000000000008152600401611a76906143c8565b60405180910390fd5b836002600060405180807f63697669632e6f6e746f6c6f6779000000000000000000000000000000000000815250600e01905060405180910390206000191660001916815260200190815260200160002060006101000a81548173ffffffffffffffffffffffffffffffffffffffff021916908373ffffffffffffffffffffffffffffffffffffffff160217905550826002600060405180807f63697669632e6964762e72656769737472790000000000000000000000000000815250601201905060405180910390206000191660001916815260200190815260200160002060006101000a81548173ffffffffffffffffffffffffffffffffffffffff021916908373ffffffffffffffffffffffffffffffffffffffff160217905550611ba68261322d565b60016004600083604051602001808273ffffffffffffffffffffffffffffffffffffffff1673ffffffffffffffffffffffffffffffffffffffff166c01000000000000000000000000028152601401807f696e697469616c697a6564000000000000000000000000000000000000000000815250600b019150506040516020818303038152906040526040518082805190602001908083835b602083101515611c645780518252602082019150602081019050602083039250611c3f565b6001836020036101000a03801982511681845116808217855250505050505090500191505060405180910390206000191660001916815260200190815260200160002060006101000a81548160ff02191690831515021790555050505050565b6000806000606080606060008060046000611cdd610d31565b604051602001808273ffffffffffffffffffffffffffffffffffffffff1673ffffffffffffffffffffffffffffffffffffffff166c01000000000000000000000000028152601401807f696e697469616c697a6564000000000000000000000000000000000000000000815250600b019150506040516020818303038152906040526040518082805190602001908083835b602083101515611d945780518252602082019150602081019050602083039250611d6f565b6001836020036101000a03801982511681845116808217855250505050505090500191505060405180910390206000191660001916815260200190815260200160002060009054906101000a900460ff161515611e26576040517f08c379a0000000000000000000000000000000000000000000000000000000008152600401611e1d90614348565b60405180910390fd5b611e2f89612254565b9650611e3a89612156565b905060006001028160001916141515611f3057889750611e5989612386565b9550611e636103b3565b73ffffffffffffffffffffffffffffffffffffffff16632dff0d0d826040518263ffffffff167c0100000000000000000000000000000000000000000000000000000000028152600401611eb79190614181565b600060405180830381600087803b158015611ed157600080fd5b505af1158015611ee5573d6000803e3d6000fd5b505050506040513d6000823e3d601f19601f82011682018060405250611f0e9190810190613753565b9091929394959650909192509091509050809550819650829750839850505050505b50919395979092949650565b611f4461157d565b73ffffffffffffffffffffffffffffffffffffffff163373ffffffffffffffffffffffffffffffffffffffff16141515611fb3576040517f08c379a0000000000000000000000000000000000000000000000000000000008152600401611faa906142a8565b60405180910390fd5b600073ffffffffffffffffffffffffffffffffffffffff168173ffffffffffffffffffffffffffffffffffffffff1614151515612025576040517f08c379a000000000000000000000000000000000000000000000000000000000815260040161201c906142e8565b60405180910390fd5b61202e8161322d565b50565b600080600060405180807f7072696365732e636f756e740000000000000000000000000000000000000000815250600c01905060405180910390206000191660001916815260200190815260200160002054905090565b6000600660008360405160200180807f7072696365732e6964732e000000000000000000000000000000000000000000815250600b018281526020019150506040516020818303038152906040526040518082805190602001908083835b60208310151561210b57805182526020820191506020810190506020830392506120e6565b6001836020036101000a038019825116818451168082178552505050505050905001915050604051809103902060001916600019168152602001908152602001600020549050919050565b6000600660008360405160200180807f7072696365732e000000000000000000000000000000000000000000000000008152506007018260001916600019168152602001807f2e63726564656e7469616c4974656d49640000000000000000000000000000008152506011019150506040516020818303038152906040526040518082805190602001908083835b60208310151561220957805182526020820191506020810190506020830392506121e4565b6001836020036101000a038019825116818451168082178552505050505050905001915050604051809103902060001916600019168152602001908152602001600020549050919050565b6000806000808460405160200180807f7072696365732e000000000000000000000000000000000000000000000000008152506007018260001916600019168152602001807f2e76616c756500000000000000000000000000000000000000000000000000008152506006019150506040516020818303038152906040526040518082805190602001908083835b60208310151561230757805182526020820191506020810190506020830392506122e2565b6001836020036101000a038019825116818451168082178552505050505050905001915050604051809103902060001916600019168152602001908152602001600020549050600081141561236957600167016345785d8a0000019150612380565b60001981141561237c5760009150612380565b8091505b50919050565b6000600260008360405160200180807f7072696365732e000000000000000000000000000000000000000000000000008152506007018260001916600019168152602001807f2e696476000000000000000000000000000000000000000000000000000000008152506004019150506040516020818303038152906040526040518082805190602001908083835b6020831015156124395780518252602082019150602081019050602083039250612414565b6001836020036101000a03801982511681845116808217855250505050505090500191505060405180910390206000191660001916815260200190815260200160002060009054906101000a900473ffffffffffffffffffffffffffffffffffffffff169050919050565b60008282604051602001808373ffffffffffffffffffffffffffffffffffffffff1673ffffffffffffffffffffffffffffffffffffffff166c01000000000000000000000000028152601401807f2e000000000000000000000000000000000000000000000000000000000000008152506001018260001916600019168152602001925050506040516020818303038152906040526040518082805190602001908083835b60208310151561256e5780518252602082019150602081019050602083039250612549565b6001836020036101000a0380198251168184511680821785525050505050509050019150506040518091039020905092915050565b6000808260405160200180807f7072696365732e696e64696365732e0000000000000000000000000000000000815250600f0182600019166000191681526020019150506040516020818303038152906040526040518082805190602001908083835b60208310151561262b5780518252602082019150602081019050602083039250612606565b6001836020036101000a0380198251168184511680821785525050505050509050019150506040518091039020915060008060008460001916600019168152602001908152602001600020541415156126b9576040517f08c379a00000000000000000000000000000000000000000000000000000000081526004016126b090614408565b60405180910390fd5b6126c1612031565b905082600660008360405160200180807f7072696365732e6964732e000000000000000000000000000000000000000000815250600b018281526020019150506040516020818303038152906040526040518082805190602001908083835b6020831015156127455780518252602082019150602081019050602083039250612720565b6001836020036101000a03801982511681845116808217855250505050505090500191505060405180910390206000191660001916815260200190815260200160002081600019169055506127a460018261332090919063ffffffff16565b6000808460001916600019168152602001908152602001600020819055506127ca61333c565b505050565b80600260008460405160200180807f7072696365732e000000000000000000000000000000000000000000000000008152506007018260001916600019168152602001807f2e696476000000000000000000000000000000000000000000000000000000008152506004019150506040516020818303038152906040526040518082805190602001908083835b602083101515612881578051825260208201915060208101905060208303925061285c565b6001836020036101000a03801982511681845116808217855250505050505090500191505060405180910390206000191660001916815260200190815260200160002060006101000a81548173ffffffffffffffffffffffffffffffffffffffff021916908373ffffffffffffffffffffffffffffffffffffffff1602179055505050565b80600660008460405160200180807f7072696365732e000000000000000000000000000000000000000000000000008152506007018260001916600019168152602001807f2e63726564656e7469616c4974656d49640000000000000000000000000000008152506011019150506040516020818303038152906040526040518082805190602001908083835b6020831015156129b85780518252602082019150602081019050602083039250612993565b6001836020036101000a03801982511681845116808217855250505050505090500191505060405180910390206000191660001916815260200190815260200160002081600019169055505050565b60008114612a155780612a19565b6000195b6000808460405160200180807f7072696365732e000000000000000000000000000000000000000000000000008152506007018260001916600019168152602001807f2e76616c756500000000000000000000000000000000000000000000000000008152506006019150506040516020818303038152906040526040518082805190602001908083835b602083101515612ac95780518252602082019150602081019050602083039250612aa4565b6001836020036101000a038019825116818451168082178552505050505050905001915050604051809103902060001916600019168152602001908152602001600020819055505050565b600260008260405160200180807f7072696365732e000000000000000000000000000000000000000000000000008152506007018260001916600019168152602001807f2e696476000000000000000000000000000000000000000000000000000000008152506004019150506040516020818303038152906040526040518082805190602001908083835b602083101515612bc55780518252602082019150602081019050602083039250612ba0565b6001836020036101000a03801982511681845116808217855250505050505090500191505060405180910390206000191660001916815260200190815260200160002060006101000a81549073ffffffffffffffffffffffffffffffffffffffff021916905550565b600660008260405160200180807f7072696365732e000000000000000000000000000000000000000000000000008152506007018260001916600019168152602001807f2e63726564656e7469616c4974656d49640000000000000000000000000000008152506011019150506040516020818303038152906040526040518082805190602001908083835b602083101515612cdf5780518252602082019150602081019050602083039250612cba565b6001836020036101000a0380198251168184511680821785525050505050509050019150506040518091039020600019166000191681526020019081526020016000206000905550565b6000808260405160200180807f7072696365732e000000000000000000000000000000000000000000000000008152506007018260001916600019168152602001807f2e76616c756500000000000000000000000000000000000000000000000000008152506006019150506040516020818303038152906040526040518082805190602001908083835b602083101515612dd95780518252602082019150602081019050602083039250612db4565b6001836020036101000a0380198251168184511680821785525050505050509050019150506040518091039020600019166000191681526020019081526020016000206000905550565b6000806000806000808660405160200180807f7072696365732e696e64696365732e0000000000000000000000000000000000815250600f0182600019166000191681526020019150506040516020818303038152906040526040518082805190602001908083835b602083101515612eb15780518252602082019150602081019050602083039250612e8c565b6001836020036101000a03801982511681845116808217855250505050505090500191505060405180910390209550612f0e60016000808960001916600019168152602001908152602001600020546133ac90919063ffffffff16565b94508460405160200180807f7072696365732e6964732e000000000000000000000000000000000000000000815250600b018281526020019150506040516020818303038152906040526040518082805190602001908083835b602083101515612f8d5780518252602082019150602081019050602083039250612f68565b6001836020036101000a03801982511681845116808217855250505050505090500191505060405180910390209350612fd76001612fc9612031565b6133ac90919063ffffffff16565b92508260405160200180807f7072696365732e6964732e000000000000000000000000000000000000000000815250600b018281526020019150506040516020818303038152906040526040518082805190602001908083835b6020831015156130565780518252602082019150602081019050602083039250613031565b6001836020036101000a038019825116818451168082178552505050505050905001915050604051809103902091506006600083600019166000191681526020019081526020016000205460405160200180807f7072696365732e696e64696365732e0000000000000000000000000000000000815250600f0182600019166000191681526020019150506040516020818303038152906040526040518082805190602001908083835b6020831015156131255780518252602082019150602081019050602083039250613100565b6001836020036101000a03801982511681845116808217855250505050505090500191505060405180910390209050600660008360001916600019168152602001908152602001600020546006600086600019166000191681526020019081526020016000208160001916905550600080876000191660001916815260200190815260200160002054600080836000191660001916815260200190815260200160002081905550600660008360001916600019168152602001908152602001600020600090556000808760001916600019168152602001908152602001600020600090556132116133c5565b50505050505050565b600080823b905060008111915050919050565b8073ffffffffffffffffffffffffffffffffffffffff1661324c61157d565b73ffffffffffffffffffffffffffffffffffffffff167f8be0079c531659141344cd1fd0a4f28419497f9722a3daafe3b4186f6b6457e060405160405180910390a3806002600060405180807f6f776e6572000000000000000000000000000000000000000000000000000000815250600501905060405180910390206000191660001916815260200190815260200160002060006101000a81548173ffffffffffffffffffffffffffffffffffffffff021916908373ffffffffffffffffffffffffffffffffffffffff16021790555050565b6000818301905082811015151561333357fe5b80905092915050565b6133576001613349612031565b61332090919063ffffffff16565b60008060405180807f7072696365732e636f756e740000000000000000000000000000000000000000815250600c01905060405180910390206000191660001916815260200190815260200160002081905550565b60008282111515156133ba57fe5b818303905092915050565b6133e060016133d2612031565b6133ac90919063ffffffff16565b60008060405180807f7072696365732e636f756e740000000000000000000000000000000000000000815250600c01905060405180910390206000191660001916815260200190815260200160002081905550565b60e0604051908101604052806000801916815260200160008152602001600073ffffffffffffffffffffffffffffffffffffffff1681526020016060815260200160608152602001606081526020016000151581525090565b600061349a82356145c1565b905092915050565b60006134ae82516145e1565b905092915050565b60006134c282356145ed565b905092915050565b60006134d682516145ed565b905092915050565b60008083601f84011215156134f257600080fd5b8235905067ffffffffffffffff81111561350b57600080fd5b60208301915083600182028301111561352357600080fd5b9250929050565b600082601f830112151561353d57600080fd5b815161355061354b826144f5565b6144c8565b9150808252602083016020830185838301111561356c57600080fd5b613577838284614634565b50505092915050565b600061358c82356145f7565b905092915050565b6000602082840312156135a657600080fd5b60006135b48482850161348e565b91505092915050565b6000806000606084860312156135d257600080fd5b60006135e08682870161348e565b93505060206135f18682870161348e565b92505060406136028682870161348e565b9150509250925092565b6000806040838503121561361f57600080fd5b600061362d8582860161348e565b925050602061363e858286016134b6565b9150509250929050565b60008060008060008060006080888a03121561366357600080fd5b60006136718a828b0161348e565b975050602088013567ffffffffffffffff81111561368e57600080fd5b61369a8a828b016134de565b9650965050604088013567ffffffffffffffff8111156136b957600080fd5b6136c58a828b016134de565b9450945050606088013567ffffffffffffffff8111156136e457600080fd5b6136f08a828b016134de565b925092505092959891949750929550565b60006020828403121561371357600080fd5b6000613721848285016134a2565b91505092915050565b60006020828403121561373c57600080fd5b600061374a848285016134b6565b91505092915050565b600080600080600080600080610100898b03121561377057600080fd5b600061377e8b828c016134ca565b985050602089015167ffffffffffffffff81111561379b57600080fd5b6137a78b828c0161352a565b975050604089015167ffffffffffffffff8111156137c457600080fd5b6137d08b828c0161352a565b965050606089015167ffffffffffffffff8111156137ed57600080fd5b6137f98b828c0161352a565b955050608089015167ffffffffffffffff81111561381657600080fd5b6138228b828c0161352a565b94505060a089015167ffffffffffffffff81111561383f57600080fd5b61384b8b828c0161352a565b93505060c061385c8b828c016134ca565b92505060e061386d8b828c016134a2565b9150509295985092959890939650565b6000806000806000806060878903121561389657600080fd5b600087013567ffffffffffffffff8111156138b057600080fd5b6138bc89828a016134de565b9650965050602087013567ffffffffffffffff8111156138db57600080fd5b6138e789828a016134de565b9450945050604087013567ffffffffffffffff81111561390657600080fd5b61391289828a016134de565b92509250509295509295509295565b60008060008060008060006080888a03121561393c57600080fd5b600088013567ffffffffffffffff81111561395657600080fd5b6139628a828b016134de565b9750975050602088013567ffffffffffffffff81111561398157600080fd5b61398d8a828b016134de565b9550955050604088013567ffffffffffffffff8111156139ac57600080fd5b6139b88a828b016134de565b935093505060606139cb8a828b01613580565b91505092959891949750929550565b6139e381614581565b82525050565b60006139f48261453b565b808452602084019350613a0683614521565b60005b82811015613a3857613a1c868351613ac1565b613a2582614567565b9150602086019550600181019050613a09565b50849250505092915050565b6000613a4f82614546565b80845260208401935083602082028501613a688561452e565b60005b84811015613aa1578383038852613a8383835161404e565b9250613a8e82614574565b9150602088019750600181019050613a6b565b508196508694505050505092915050565b613abb816145a1565b82525050565b613aca816145ad565b82525050565b613ad981614601565b82525050565b613ae881614613565b82525050565b6000828452602084019350613b04838584614625565b613b0d83614667565b840190509392505050565b6000613b238261455c565b808452613b37816020860160208601614634565b613b4081614667565b602085010191505092915050565b6000613b5982614551565b808452613b6d816020860160208601614634565b613b7681614667565b602085010191505092915050565b6000602582527f4d6573736167652073656e646572206d75737420626520636f6e74726163742060208301527f61646d696e0000000000000000000000000000000000000000000000000000006040830152606082019050919050565b6000603282527f50726963652076616c75652063616e6e6f74206265206d6f7265207468616e2060208301527f746f6b656e20746f74616c20737570706c7900000000000000000000000000006040830152606082019050919050565b6000602582527f436f6e7472616374206f776e65722063616e6e6f74206265207a65726f20616460208301527f64726573730000000000000000000000000000000000000000000000000000006040830152606082019050919050565b6000601f82527f436f6e747261637420697320616c726561647920696e697469616c697a6564006020830152604082019050919050565b6000602482527f4964656e746974792056616c696461746f72206973206e6f742072656769737460208301527f65726564000000000000000000000000000000000000000000000000000000006040830152606082019050919050565b6000601b82527f436f6e7472616374206973206e6f7420696e697469616c697a656400000000006020830152604082019050919050565b6000602c82527f43616e6e6f742073657420707269636520666f7220756e6b6e6f776e2063726560208301527f64656e7469616c206974656d00000000000000000000000000000000000000006040830152606082019050919050565b6000601782527f436f6e7472616374206d757374206265207061757365640000000000000000006020830152604082019050919050565b6000602f82527f43616e6e6f742073657420707269636520666f7220646570726563617465642060208301527f63726564656e7469616c206974656d00000000000000000000000000000000006040830152606082019050919050565b6000604782527f496e697469616c697a6174696f6e206572726f723a206e6f20636f6e7472616360208301527f7420636f64652061742049445620726567697374727920636f6e74726163742060408301527f61646472657373000000000000000000000000000000000000000000000000006060830152608082019050919050565b6000602282527f43616e6e6f742064656c65746520756e6b6e6f776e207072696365207265636f60208301527f72640000000000000000000000000000000000000000000000000000000000006040830152606082019050919050565b6000603d82527f496e74656772697479206572726f723a2070726963652077697468207468652060208301527f73616d6520494420697320616c726561647920726567697374657265640000006040830152606082019050919050565b6000601282527f436f6e74726163742069732070617573656400000000000000000000000000006020830152604082019050919050565b6000604382527f496e697469616c697a6174696f6e206572726f723a206e6f20636f6e7472616360208301527f7420636f6465206174206f6e746f6c6f677920636f6e7472616374206164647260408301527f65737300000000000000000000000000000000000000000000000000000000006060830152608082019050919050565b600060e0830160008301516140666000860182613ac1565b50602083015161407960208601826140f8565b50604083015161408c60408601826139da565b50606083015184820360608601526140a48282613b4e565b915050608083015184820360808601526140be8282613b4e565b91505060a083015184820360a08601526140d88282613b4e565b91505060c08301516140ed60c0860182613ab2565b508091505092915050565b614101816145b7565b82525050565b600060208201905061411c60008301846139da565b92915050565b6000602082019050818103600083015261413c81846139e9565b905092915050565b6000602082019050818103600083015261415e8184613a44565b905092915050565b600060208201905061417b6000830184613ab2565b92915050565b60006020820190506141966000830184613ac1565b92915050565b600060e0820190506141b1600083018a613ac1565b6141be60208301896140f8565b6141cb60408301886139da565b81810360608301526141dd8187613b18565b905081810360808301526141f18186613b18565b905081810360a08301526142058185613b18565b905061421460c0830184613ab2565b98975050505050505050565b60006020820190506142356000830184613ad0565b92915050565b60006020820190506142506000830184613adf565b92915050565b6000606082019050818103600083015261427181888a613aee565b90508181036020830152614286818688613aee565b9050818103604083015261429b818486613aee565b9050979650505050505050565b600060208201905081810360008301526142c181613b84565b9050919050565b600060208201905081810360008301526142e181613be1565b9050919050565b6000602082019050818103600083015261430181613c3e565b9050919050565b6000602082019050818103600083015261432181613c9b565b9050919050565b6000602082019050818103600083015261434181613cd2565b9050919050565b6000602082019050818103600083015261436181613d2f565b9050919050565b6000602082019050818103600083015261438181613d66565b9050919050565b600060208201905081810360008301526143a181613dc3565b9050919050565b600060208201905081810360008301526143c181613dfa565b9050919050565b600060208201905081810360008301526143e181613e57565b9050919050565b6000602082019050818103600083015261440181613eda565b9050919050565b6000602082019050818103600083015261442181613f37565b9050919050565b6000602082019050818103600083015261444181613f94565b9050919050565b6000602082019050818103600083015261446181613fcb565b9050919050565b600060808201905061447d600083018a6140f8565b818103602083015261449081888a613aee565b905081810360408301526144a5818688613aee565b905081810360608301526144ba818486613aee565b905098975050505050505050565b6000604051905081810181811067ffffffffffffffff821117156144eb57600080fd5b8060405250919050565b600067ffffffffffffffff82111561450c57600080fd5b601f19601f8301169050602081019050919050565b6000602082019050919050565b6000602082019050919050565b600081519050919050565b600081519050919050565b600081519050919050565b600081519050919050565b6000602082019050919050565b6000602082019050919050565b600073ffffffffffffffffffffffffffffffffffffffff82169050919050565b60008115159050919050565b6000819050919050565b6000819050919050565b600073ffffffffffffffffffffffffffffffffffffffff82169050919050565b60008115159050919050565b6000819050919050565b6000819050919050565b600061460c82614581565b9050919050565b600061461e82614581565b9050919050565b82818337600083830152505050565b60005b83811015614652578082015181840152602081019050614637565b83811115614661576000848401525b50505050565b6000601f19601f83011690509190505600a265627a7a72305820eae0f19d99674a7e695f20ca5dc8e15b6eeab9835a2e11fea0bcd5bfd3263b636c6578706572696d656e74616cf50037",
  "source": "pragma solidity ^0.4.24;\npragma experimental ABIEncoderV2;\n\nimport \"openzeppelin-solidity/contracts/AddressUtils.sol\";\nimport \"./CvcPricingInterface.sol\";\nimport \"../idv/CvcValidatorRegistryInterface.sol\";\nimport \"../ontology/CvcOntologyInterface.sol\";\nimport \"../upgradeability/Initializable.sol\";\nimport \"../upgradeability/EternalStorage.sol\";\nimport \"../upgradeability/Pausable.sol\";\nimport \"openzeppelin-solidity/contracts/math/SafeMath.sol\";\n\n\n/**\n * @title CvcPricing\n * @dev This contract stores actual prices for Credential Items available for sale.\n * It allows registered Identity Validators to set or delete price for specific Credential Item.\n *\n * The pricing contract depends on other marketplace contracts, such as:\n * CvcOntology - to verify that Credential Item is available on the market and can be offered for sale.\n * CvcValidatorRegistry - to ensure that only registered Identity Validators can use pricing services.\n *                          Transactions from unknown accounts will be rejected.\n */\ncontract CvcPricing is EternalStorage, Initializable, Pausable, CvcPricingInterface {\n\n    using SafeMath for uint256;\n\n    /**\n    Data structures and storage layout:\n    struct Price {\n        uint256 value;\n        bytes32 credentialItemId;\n        address idv;\n    }\n\n    address cvcOntology;\n    address idvRegistry;\n    uint256 pricesCount;\n    bytes32[] pricesIds;\n    mapping(bytes32 => uint256) pricesIndices;\n    mapping(bytes32 => Price) prices;\n    **/\n\n\n    /// Total supply of CVC tokens.\n    uint256 constant private CVC_TOTAL_SUPPLY = 1e17;\n\n    /// The fallback price introduced to be returned when credential price is undefined.\n    /// The number is greater than CVC total supply, so it makes it impossible to transact with (e.g. place to escrow).\n    uint256 constant private FALLBACK_PRICE = CVC_TOTAL_SUPPLY + 1; // solium-disable-line zeppelin/no-arithmetic-operations\n\n    /// As zero price and undefined price are virtually indistinguishable,\n    /// a special value is introduced to represent zero price.\n    /// It equals to max unsigned integer which makes it impossible to transact with, hence should never be returned.\n    uint256 constant private ZERO_PRICE = ~uint256(0);\n\n    /**\n    * @dev Constructor\n    * @param _ontology CvcOntology contract address.\n    * @param _idvRegistry CvcValidatorRegistry contract address.\n    */\n    constructor(address _ontology, address _idvRegistry) public {\n        initialize(_ontology, _idvRegistry, msg.sender);\n    }\n\n    /**\n     * @dev Throws if called by unregistered IDV.\n     */\n    modifier onlyRegisteredValidator() {\n        require(idvRegistry().exists(msg.sender), \"Identity Validator is not registered\");\n        _;\n    }\n\n    /**\n    * @dev Sets the price for Credential Item of specific type, name and version.\n    * The price is associated with IDV address (sender).\n    * @param _credentialItemType Credential Item type.\n    * @param _credentialItemName Credential Item name.\n    * @param _credentialItemVersion Credential Item version.\n    * @param _price Credential Item price.\n    */\n    function setPrice(\n        string _credentialItemType,\n        string _credentialItemName,\n        string _credentialItemVersion,\n        uint256 _price\n    )\n        external\n        onlyRegisteredValidator\n        whenNotPaused\n    {\n        // Check price value upper bound.\n        require(_price <= CVC_TOTAL_SUPPLY, \"Price value cannot be more than token total supply\");\n\n        // Check Credential Item ID to verify existence.\n        bytes32 credentialItemId;\n        bool deprecated;\n        (credentialItemId, , , , , , , deprecated) = ontology().getByTypeNameVersion(\n            _credentialItemType,\n            _credentialItemName,\n            _credentialItemVersion\n        );\n        // Prevent setting price for unknown credential items.\n        require(credentialItemId != 0x0, \"Cannot set price for unknown credential item\");\n        require(deprecated == false, \"Cannot set price for deprecated credential item\");\n\n        // Calculate price ID.\n        bytes32 id = calculateId(msg.sender, credentialItemId);\n\n        // Register new record (when price record has no associated Credential Item ID).\n        if (getPriceCredentialItemId(id) == 0x0) {\n            registerNewRecord(id);\n        }\n\n        // Save the price.\n        setPriceIdv(id, msg.sender);\n        setPriceCredentialItemId(id, credentialItemId);\n        setPriceValue(id, _price);\n\n        emit CredentialItemPriceSet(\n            id,\n            _price,\n            msg.sender,\n            _credentialItemType,\n            _credentialItemName,\n            _credentialItemVersion,\n            credentialItemId\n        );\n    }\n\n    /**\n    * @dev Deletes the price for Credential Item of specific type, name and version.\n    * @param _credentialItemType Credential Item type.\n    * @param _credentialItemName Credential Item name.\n    * @param _credentialItemVersion Credential Item version.\n    */\n    function deletePrice(\n        string _credentialItemType,\n        string _credentialItemName,\n        string _credentialItemVersion\n    )\n        external\n        whenNotPaused\n    {\n        // Lookup Credential Item.\n        bytes32 credentialItemId;\n        (credentialItemId, , , , , , ,) = ontology().getByTypeNameVersion(\n            _credentialItemType,\n            _credentialItemName,\n            _credentialItemVersion\n        );\n\n        // Calculate Price ID to address individual data items.\n        bytes32 id = calculateId(msg.sender, credentialItemId);\n\n        // Ensure the price existence. Check whether Credential Item is associated.\n        credentialItemId = getPriceCredentialItemId(id);\n        require(credentialItemId != 0x0, \"Cannot delete unknown price record\");\n\n        // Delete the price data.\n        deletePriceIdv(id);\n        deletePriceCredentialItemId(id);\n        deletePriceValue(id);\n\n        unregisterRecord(id);\n\n        emit CredentialItemPriceDeleted(\n            id,\n            msg.sender,\n            _credentialItemType,\n            _credentialItemName,\n            _credentialItemVersion,\n            credentialItemId\n        );\n    }\n\n    /**\n    * @dev Returns the price set by IDV for Credential Item of specific type, name and version.\n    * @param _idv IDV address.\n    * @param _credentialItemType Credential Item type.\n    * @param _credentialItemName Credential Item name.\n    * @param _credentialItemVersion Credential Item version.\n    * @return bytes32 Price ID.\n    * @return uint256 Price value.\n    * @return address IDV address.\n    * @return string Credential Item type.\n    * @return string Credential Item name.\n    * @return string Credential Item version.\n    */\n    function getPrice(\n        address _idv,\n        string _credentialItemType,\n        string _credentialItemName,\n        string _credentialItemVersion\n    )\n        external\n        view\n        onlyInitialized\n        returns (\n            bytes32 id,\n            uint256 price,\n            address idv,\n            string credentialItemType,\n            string credentialItemName,\n            string credentialItemVersion,\n            bool deprecated\n        )\n    {\n        // Lookup Credential Item.\n        bytes32 credentialItemId;\n        (credentialItemId, credentialItemType, credentialItemName, credentialItemVersion, , , , deprecated) = ontology().getByTypeNameVersion(\n            _credentialItemType,\n            _credentialItemName,\n            _credentialItemVersion\n        );\n        idv = _idv;\n        id = calculateId(idv, credentialItemId);\n        price = getPriceValue(id);\n        if (price == FALLBACK_PRICE) {\n            return (0x0, price, 0x0, \"\", \"\", \"\", false);\n        }\n    }\n\n    /**\n    * @dev Returns the price by Credential Item ID.\n    * @param _idv IDV address.\n    * @param _credentialItemId Credential Item ID.\n    * @return bytes32 Price ID.\n    * @return uint256 Price value.\n    * @return address IDV address.\n    * @return string Credential Item type.\n    * @return string Credential Item name.\n    * @return string Credential Item version.\n    */\n    function getPriceByCredentialItemId(address _idv, bytes32 _credentialItemId) external view returns (\n        bytes32 id,\n        uint256 price,\n        address idv,\n        string credentialItemType,\n        string credentialItemName,\n        string credentialItemVersion,\n        bool deprecated\n    ) {\n        return getPriceById(calculateId(_idv, _credentialItemId));\n    }\n\n    /**\n    * @dev Returns all Credential Item prices.\n    * @return CredentialItemPrice[]\n    */\n    function getAllPrices() external view onlyInitialized returns (CredentialItemPrice[]) {\n        uint256 count = getCount();\n        CredentialItemPrice[] memory prices = new CredentialItemPrice[](count);\n        for (uint256 i = 0; i < count; i++) {\n            bytes32 id = getRecordId(i);\n            bytes32 credentialItemId = getPriceCredentialItemId(id);\n            string memory credentialItemType;\n            string memory credentialItemName;\n            string memory credentialItemVersion;\n            bool deprecated;\n\n            (, credentialItemType, credentialItemName, credentialItemVersion, , , , deprecated) = ontology().getById(credentialItemId);\n\n            prices[i] = CredentialItemPrice(\n                id,\n                getPriceValue(id),\n                getPriceIdv(id),\n                credentialItemType,\n                credentialItemName,\n                credentialItemVersion,\n                deprecated\n            );\n        }\n\n        return prices;\n    }\n\n    /**\n     * @dev Returns all IDs of registered Credential Item prices.\n     * @return bytes32[]\n     */\n    function getAllIds() external view onlyInitialized returns(bytes32[]) {\n        uint256 count = getCount();\n        bytes32[] memory ids = new bytes32[](count);\n        for (uint256 i = 0; i < count; i++) {\n            ids[i] = getRecordId(i);\n        }\n\n        return ids;\n    }\n\n    /**\n    * @dev Contract initialization method.\n    * @param _ontology CvcOntology contract address.\n    * @param _idvRegistry CvcValidatorRegistry contract address.\n    * @param _owner Owner address\n    */\n    function initialize(address _ontology, address _idvRegistry, address _owner) public initializes {\n        require(AddressUtils.isContract(_ontology), \"Initialization error: no contract code at ontology contract address\");\n        require(AddressUtils.isContract(_idvRegistry), \"Initialization error: no contract code at IDV registry contract address\");\n        // cvcOntology = _ontology;\n        addressStorage[keccak256(\"cvc.ontology\")] = _ontology;\n        // idvRegistry = _idvRegistry;\n        addressStorage[keccak256(\"cvc.idv.registry\")] = _idvRegistry;\n        // Initialize current implementation owner address.\n        setOwner(_owner);\n    }\n\n    /**\n    * @dev Returns the price by ID.\n    * @param _id Price ID\n    * @return bytes32 Price ID.\n    * @return uint256 Price value.\n    * @return address IDV address.\n    * @return string Credential Item type.\n    * @return string Credential Item name.\n    * @return string Credential Item version.\n    */\n    function getPriceById(bytes32 _id) public view onlyInitialized returns (\n        bytes32 id,\n        uint256 price,\n        address idv,\n        string credentialItemType,\n        string credentialItemName,\n        string credentialItemVersion,\n        bool deprecated\n    ) {\n        // Always return price (could be a fallback price when not set).\n        price = getPriceValue(_id);\n        // Check whether Credential Item is associated. This is mandatory requirement for all existing prices.\n        bytes32 credentialItemId = getPriceCredentialItemId(_id);\n        if (credentialItemId != 0x0) {\n            // Return ID and IDV address for existing entry only.\n            id = _id;\n            idv = getPriceIdv(_id);\n\n            (, credentialItemType, credentialItemName, credentialItemVersion, , , , deprecated) = ontology().getById(credentialItemId);\n        }\n    }\n\n    /**\n    * @dev Returns instance of CvcOntologyInterface.\n    * @return CvcOntologyInterface\n    */\n    function ontology() public view returns (CvcOntologyInterface) {\n        // return CvcOntologyInterface(cvcOntology);\n        return CvcOntologyInterface(addressStorage[keccak256(\"cvc.ontology\")]);\n    }\n\n    /**\n    * @dev Returns instance of CvcValidatorRegistryInterface.\n    * @return CvcValidatorRegistryInterface\n    */\n    function idvRegistry() public view returns (CvcValidatorRegistryInterface) {\n        // return CvcValidatorRegistryInterface(idvRegistry);\n        return CvcValidatorRegistryInterface(addressStorage[keccak256(\"cvc.idv.registry\")]);\n    }\n\n    /**\n    * @dev Returns price record count.\n    * @return uint256\n    */\n    function getCount() internal view returns (uint256) {\n        // return pricesCount;\n        return uintStorage[keccak256(\"prices.count\")];\n    }\n\n    /**\n    * @dev Increments price record counter.\n    */\n    function incrementCount() internal {\n        // pricesCount = getCount().add(1);\n        uintStorage[keccak256(\"prices.count\")] = getCount().add(1);\n    }\n\n    /**\n    * @dev Decrements price record counter.\n    */\n    function decrementCount() internal {\n        // pricesCount = getCount().sub(1);\n        uintStorage[keccak256(\"prices.count\")] = getCount().sub(1);\n    }\n\n    /**\n    * @dev Returns price ID by index.\n    * @param _index Price record index.\n    * @return bytes32\n    */\n    function getRecordId(uint256 _index) internal view returns (bytes32) {\n        // return pricesIds[_index];\n        return bytes32Storage[keccak256(abi.encodePacked(\"prices.ids.\", _index))];\n    }\n\n    /**\n    * @dev Index new price record.\n    * @param _id The price ID.\n    */\n    function registerNewRecord(bytes32 _id) internal {\n        bytes32 indexSlot = keccak256(abi.encodePacked(\"prices.indices.\", _id));\n        // Prevent from registering same ID twice.\n        // require(pricesIndices[_id] == 0);\n        require(uintStorage[indexSlot] == 0, \"Integrity error: price with the same ID is already registered\");\n\n        uint256 index = getCount();\n        // Store record ID against index.\n        // pricesIds[index] = _id;\n        bytes32Storage[keccak256(abi.encodePacked(\"prices.ids.\", index))] = _id;\n        // Maintain reversed index to ID mapping to ensure O(1) deletion.\n        // Store n+1 value and reserve zero value for not indexed records.\n        uintStorage[indexSlot] = index.add(1);\n        incrementCount();\n    }\n\n    /**\n    * @dev Deletes price record from index.\n    * @param _id The price ID.\n    */\n    function unregisterRecord(bytes32 _id) internal {\n        // Since the order of price records is not guaranteed, we can make deletion more efficient\n        // by replacing record we want to delete with the last record, hence avoid reindex.\n\n        // Calculate deletion record ID slot.\n        bytes32 deletionIndexSlot = keccak256(abi.encodePacked(\"prices.indices.\", _id));\n        // uint256 deletionIndex = pricesIndices[_id].sub(1);\n        uint256 deletionIndex = uintStorage[deletionIndexSlot].sub(1);\n        bytes32 deletionIdSlot = keccak256(abi.encodePacked(\"prices.ids.\", deletionIndex));\n\n        // Calculate last record ID slot.\n        uint256 lastIndex = getCount().sub(1);\n        bytes32 lastIdSlot = keccak256(abi.encodePacked(\"prices.ids.\", lastIndex));\n\n        // Calculate last record index slot.\n        bytes32 lastIndexSlot = keccak256(abi.encodePacked(\"prices.indices.\", bytes32Storage[lastIdSlot]));\n\n        // Copy last record ID into the empty slot.\n        // pricesIds[deletionIdSlot] = pricesIds[lastIdSlot];\n        bytes32Storage[deletionIdSlot] = bytes32Storage[lastIdSlot];\n        // Make moved ID index point to the the correct record.\n        // pricesIndices[lastIndexSlot] = pricesIndices[deletionIndexSlot];\n        uintStorage[lastIndexSlot] = uintStorage[deletionIndexSlot];\n        // Delete last record ID.\n        // delete pricesIds[lastIndex];\n        delete bytes32Storage[lastIdSlot];\n        // Delete reversed index.\n        // delete pricesIndices[_id];\n        delete uintStorage[deletionIndexSlot];\n        decrementCount();\n    }\n    /**\n    * @dev Returns price value.\n    * @param _id The price ID.\n    * @return uint256\n    */\n    function getPriceValue(bytes32 _id) internal view returns (uint256) {\n        // uint256 value = prices[_id].value;\n        uint256 value = uintStorage[keccak256(abi.encodePacked(\"prices.\", _id, \".value\"))];\n        // Return fallback price if price is not set for existing Credential Item.\n        // Since we use special (non-zero) value for zero price, actual '0' means the price was never set.\n        if (value == 0) {\n            return FALLBACK_PRICE;\n        }\n        // Convert from special zero representation value.\n        if (value == ZERO_PRICE) {\n            return 0;\n        }\n\n        return value;\n    }\n\n    /**\n    * @dev Saves price value.\n    * @param _id The price ID.\n    * @param _value The price value.\n    */\n    function setPriceValue(bytes32 _id, uint256 _value) internal {\n        // Save the price (convert to special zero representation value if necessary).\n        // prices[_id].value = (_value == 0) ? ZERO_PRICE : _value;\n        uintStorage[keccak256(abi.encodePacked(\"prices.\", _id, \".value\"))] = (_value == 0) ? ZERO_PRICE : _value;\n    }\n\n    /**\n    * @dev Deletes price value.\n    * @param _id The price ID.\n    */\n    function deletePriceValue(bytes32 _id) internal {\n        // delete prices[_id].value;\n        delete uintStorage[keccak256(abi.encodePacked(\"prices.\", _id, \".value\"))];\n    }\n\n    /**\n    * @dev Returns Credential Item ID the price is set for.\n    * @param _id The price ID.\n    * @return bytes32\n    */\n    function getPriceCredentialItemId(bytes32 _id) internal view returns (bytes32) {\n        // return prices[_id].credentialItemId;\n        return bytes32Storage[keccak256(abi.encodePacked(\"prices.\", _id, \".credentialItemId\"))];\n    }\n\n    /**\n    * @dev Saves price Credential Item ID\n    * @param _id The price ID.\n    * @param _credentialItemId Associated Credential Item ID.\n    */\n    function setPriceCredentialItemId(bytes32 _id, bytes32 _credentialItemId) internal {\n        // prices[_id].credentialItemId = _credentialItemId;\n        bytes32Storage[keccak256(abi.encodePacked(\"prices.\", _id, \".credentialItemId\"))] = _credentialItemId;\n    }\n\n    /**\n    * @dev Deletes price Credential Item ID.\n    * @param _id The price ID.\n    */\n    function deletePriceCredentialItemId(bytes32 _id) internal {\n        // delete prices[_id].credentialItemId;\n        delete bytes32Storage[keccak256(abi.encodePacked(\"prices.\", _id, \".credentialItemId\"))];\n    }\n\n    /**\n    * @dev Returns price IDV address.\n    * @param _id The price ID.\n    * @return address\n    */\n    function getPriceIdv(bytes32 _id) internal view returns (address) {\n        // return prices[_id].idv;\n        return addressStorage[keccak256(abi.encodePacked(\"prices.\", _id, \".idv\"))];\n    }\n\n    /**\n    * @dev Saves price IDV address.\n    * @param _id The price ID.\n    * @param _idv IDV address.\n    */\n    function setPriceIdv(bytes32 _id, address _idv) internal {\n        // prices[_id].idv = _idv;\n        addressStorage[keccak256(abi.encodePacked(\"prices.\", _id, \".idv\"))] = _idv;\n    }\n\n    /**\n    * @dev Deletes price IDV address.\n    * @param _id The price ID.\n    */\n    function deletePriceIdv(bytes32 _id) internal {\n        // delete prices[_id].idv;\n        delete addressStorage[keccak256(abi.encodePacked(\"prices.\", _id, \".idv\"))];\n    }\n\n    /**\n    * @dev Calculates price ID.\n    * @param _idv IDV address.\n    * @param _credentialItemId Credential Item ID.\n    * @return bytes32\n    */\n    function calculateId(address _idv, bytes32 _credentialItemId) internal pure returns (bytes32) {\n        return keccak256(abi.encodePacked(_idv, \".\", _credentialItemId));\n    }\n}\n",
  "compiler": {
    "name": "solc",
    "version": "0.4.24+commit.e67f0147.Emscripten.clang"
  },
  "schemaVersion": "2.0.1",
  "updatedAt": "2018-09-14T13:17:20.215Z"
}