{
  "contractName": "CvcValidatorRegistry",
  "abi": [
    {
      "constant": true,
      "inputs": [],
      "name": "implementation",
      "outputs": [
        {
          "name": "impl",
          "type": "address"
        }
      ],
      "payable": false,
      "stateMutability": "view",
      "type": "function"
    },
    {
      "constant": true,
      "inputs": [],
      "name": "owner",
      "outputs": [
        {
          "name": "",
          "type": "address"
        }
      ],
      "payable": false,
      "stateMutability": "view",
      "type": "function"
    },
    {
      "constant": false,
      "inputs": [
        {
          "name": "newOwner",
          "type": "address"
        }
      ],
      "name": "transferOwnership",
      "outputs": [],
      "payable": false,
      "stateMutability": "nonpayable",
      "type": "function"
    },
    {
      "inputs": [],
      "payable": false,
      "stateMutability": "nonpayable",
      "type": "constructor"
    },
    {
      "anonymous": false,
      "inputs": [
        {
          "indexed": true,
          "name": "previousOwner",
          "type": "address"
        },
        {
          "indexed": true,
          "name": "newOwner",
          "type": "address"
        }
      ],
      "name": "OwnershipTransferred",
      "type": "event"
    },
    {
      "constant": false,
      "inputs": [
        {
          "name": "_idv",
          "type": "address"
        },
        {
          "name": "_name",
          "type": "string"
        },
        {
          "name": "_description",
          "type": "string"
        }
      ],
      "name": "set",
      "outputs": [],
      "payable": false,
      "stateMutability": "nonpayable",
      "type": "function"
    },
    {
      "constant": true,
      "inputs": [
        {
          "name": "_idv",
          "type": "address"
        }
      ],
      "name": "get",
      "outputs": [
        {
          "name": "name",
          "type": "string"
        },
        {
          "name": "description",
          "type": "string"
        }
      ],
      "payable": false,
      "stateMutability": "view",
      "type": "function"
    },
    {
      "constant": true,
      "inputs": [
        {
          "name": "_idv",
          "type": "address"
        }
      ],
      "name": "exists",
      "outputs": [
        {
          "name": "",
          "type": "bool"
        }
      ],
      "payable": false,
      "stateMutability": "view",
      "type": "function"
    },
    {
      "constant": false,
      "inputs": [
        {
          "name": "_owner",
          "type": "address"
        }
      ],
      "name": "initialize",
      "outputs": [],
      "payable": false,
      "stateMutability": "nonpayable",
      "type": "function"
    }
  ],
  "bytecode": "0x60806040523480156200001157600080fd5b5060405180807f63697669632e70726f78792e696d706c656d656e746174696f6e000000000000815250601a0190506040518091039020600019167f79c0b2e23f98c5d9493b683161fd173aa1a1b9b2d2fd27e058f18762bd4c8385600102600019161415156200007e57fe5b62000098336200009e640100000000026401000000009004565b62000525565b6000620000b962000378640100000000026401000000009004565b90506004600082604051602001808273ffffffffffffffffffffffffffffffffffffffff1673ffffffffffffffffffffffffffffffffffffffff166c01000000000000000000000000028152601401807f696e697469616c697a6564000000000000000000000000000000000000000000815250600b019150506040516020818303038152906040526040518082805190602001908083835b60208310151562000179578051825260208201915060208101905060208303925062000152565b6001836020036101000a03801982511681845116808217855250505050505090500191505060405180910390206000191660001916815260200190815260200160002060009054906101000a900460ff1615151562000240576040517f08c379a000000000000000000000000000000000000000000000000000000000815260040180806020018281038252601f8152602001807f436f6e747261637420697320616c726561647920696e697469616c697a65640081525060200191505060405180910390fd5b6200025a82620003a9640100000000026401000000009004565b60016004600083604051602001808273ffffffffffffffffffffffffffffffffffffffff1673ffffffffffffffffffffffffffffffffffffffff166c01000000000000000000000000028152601401807f696e697469616c697a6564000000000000000000000000000000000000000000815250600b019150506040516020818303038152906040526040518082805190602001908083835b6020831015156200031a5780518252602082019150602081019050602083039250620002f3565b6001836020036101000a03801982511681845116808217855250505050505090500191505060405180910390206000191660001916815260200190815260200160002060006101000a81548160ff0219169083151502179055505050565b6000807f79c0b2e23f98c5d9493b683161fd173aa1a1b9b2d2fd27e058f18762bd4c83856001029050805491505090565b8073ffffffffffffffffffffffffffffffffffffffff16620003d9620004ad640100000000026401000000009004565b73ffffffffffffffffffffffffffffffffffffffff167f8be0079c531659141344cd1fd0a4f28419497f9722a3daafe3b4186f6b6457e060405160405180910390a3806002600060405180807f6f776e6572000000000000000000000000000000000000000000000000000000815250600501905060405180910390206000191660001916815260200190815260200160002060006101000a81548173ffffffffffffffffffffffffffffffffffffffff021916908373ffffffffffffffffffffffffffffffffffffffff16021790555050565b60006002600060405180807f6f776e6572000000000000000000000000000000000000000000000000000000815250600501905060405180910390206000191660001916815260200190815260200160002060009054906101000a900473ffffffffffffffffffffffffffffffffffffffff16905090565b61181280620005356000396000f300608060405260043610610083576000357c0100000000000000000000000000000000000000000000000000000000900463ffffffff1680635c60da1b146100885780638da5cb5b146100df578063c2bc2efc14610136578063c4d66de81461025e578063d2c0e032146102a1578063f2fde38b14610314578063f6a3d24e14610357575b600080fd5b34801561009457600080fd5b5061009d6103b2565b604051808273ffffffffffffffffffffffffffffffffffffffff1673ffffffffffffffffffffffffffffffffffffffff16815260200191505060405180910390f35b3480156100eb57600080fd5b506100f46103e3565b604051808273ffffffffffffffffffffffffffffffffffffffff1673ffffffffffffffffffffffffffffffffffffffff16815260200191505060405180910390f35b34801561014257600080fd5b50610177600480360381019080803573ffffffffffffffffffffffffffffffffffffffff16906020019092919050505061045b565b604051808060200180602001838103835285818151815260200191508051906020019080838360005b838110156101bb5780820151818401526020810190506101a0565b50505050905090810190601f1680156101e85780820380516001836020036101000a031916815260200191505b50838103825284818151815260200191508051906020019080838360005b83811015610221578082015181840152602081019050610206565b50505050905090810190601f16801561024e5780820380516001836020036101000a031916815260200191505b5094505050505060405180910390f35b34801561026a57600080fd5b5061029f600480360381019080803573ffffffffffffffffffffffffffffffffffffffff169060200190929190505050610601565b005b3480156102ad57600080fd5b50610312600480360381019080803573ffffffffffffffffffffffffffffffffffffffff1690602001909291908035906020019082018035906020019190919293919293908035906020019082018035906020019190919293919293905050506108b4565b005b34801561032057600080fd5b50610355600480360381019080803573ffffffffffffffffffffffffffffffffffffffff169060200190929190505050610cf7565b005b34801561036357600080fd5b50610398600480360381019080803573ffffffffffffffffffffffffffffffffffffffff169060200190929190505050610e9e565b604051808215151515815260200191505060405180910390f35b6000807f79c0b2e23f98c5d9493b683161fd173aa1a1b9b2d2fd27e058f18762bd4c83856001029050805491505090565b60006002600060405180807f6f776e6572000000000000000000000000000000000000000000000000000000815250600501905060405180910390206000191660001916815260200190815260200160002060009054906101000a900473ffffffffffffffffffffffffffffffffffffffff16905090565b6060806004600061046a6103b2565b604051602001808273ffffffffffffffffffffffffffffffffffffffff1673ffffffffffffffffffffffffffffffffffffffff166c01000000000000000000000000028152601401807f696e697469616c697a6564000000000000000000000000000000000000000000815250600b019150506040516020818303038152906040526040518082805190602001908083835b60208310151561052157805182526020820191506020810190506020830392506104fc565b6001836020036101000a03801982511681845116808217855250505050505090500191505060405180910390206000191660001916815260200190815260200160002060009054906101000a900460ff1615156105e6576040517f08c379a000000000000000000000000000000000000000000000000000000000815260040180806020018281038252601b8152602001807f436f6e7472616374206973206e6f7420696e697469616c697a6564000000000081525060200191505060405180910390fd5b6105ef8361103c565b91506105fa83611205565b9050915091565b600061060b6103b2565b90506004600082604051602001808273ffffffffffffffffffffffffffffffffffffffff1673ffffffffffffffffffffffffffffffffffffffff166c01000000000000000000000000028152601401807f696e697469616c697a6564000000000000000000000000000000000000000000815250600b019150506040516020818303038152906040526040518082805190602001908083835b6020831015156106c957805182526020820191506020810190506020830392506106a4565b6001836020036101000a03801982511681845116808217855250505050505090500191505060405180910390206000191660001916815260200190815260200160002060009054906101000a900460ff1615151561078f576040517f08c379a000000000000000000000000000000000000000000000000000000000815260040180806020018281038252601f8152602001807f436f6e747261637420697320616c726561647920696e697469616c697a65640081525060200191505060405180910390fd5b610798826113ce565b60016004600083604051602001808273ffffffffffffffffffffffffffffffffffffffff1673ffffffffffffffffffffffffffffffffffffffff166c01000000000000000000000000028152601401807f696e697469616c697a6564000000000000000000000000000000000000000000815250600b019150506040516020818303038152906040526040518082805190602001908083835b6020831015156108565780518252602082019150602081019050602083039250610831565b6001836020036101000a03801982511681845116808217855250505050505090500191505060405180910390206000191660001916815260200190815260200160002060006101000a81548160ff0219169083151502179055505050565b600460006108c06103b2565b604051602001808273ffffffffffffffffffffffffffffffffffffffff1673ffffffffffffffffffffffffffffffffffffffff166c01000000000000000000000000028152601401807f696e697469616c697a6564000000000000000000000000000000000000000000815250600b019150506040516020818303038152906040526040518082805190602001908083835b6020831015156109775780518252602082019150602081019050602083039250610952565b6001836020036101000a03801982511681845116808217855250505050505090500191505060405180910390206000191660001916815260200190815260200160002060009054906101000a900460ff161515610a3c576040517f08c379a000000000000000000000000000000000000000000000000000000000815260040180806020018281038252601b8152602001807f436f6e7472616374206973206e6f7420696e697469616c697a6564000000000081525060200191505060405180910390fd5b610a446103e3565b73ffffffffffffffffffffffffffffffffffffffff163373ffffffffffffffffffffffffffffffffffffffff16141515610b0c576040517f08c379a00000000000000000000000000000000000000000000000000000000081526004018080602001828103825260258152602001807f4d6573736167652073656e646572206d75737420626520636f6e74726163742081526020017f61646d696e00000000000000000000000000000000000000000000000000000081525060400191505060405180910390fd5b600073ffffffffffffffffffffffffffffffffffffffff168573ffffffffffffffffffffffffffffffffffffffff1614151515610bd7576040517f08c379a00000000000000000000000000000000000000000000000000000000081526004018080602001828103825260258152602001807f43616e6e6f74207265676973746572204944562077697468207a65726f20616481526020017f647265737300000000000000000000000000000000000000000000000000000081525060400191505060405180910390fd5b600084849050111515610c78576040517f08c379a00000000000000000000000000000000000000000000000000000000081526004018080602001828103825260238152602001807f43616e6e6f7420726567697374657220494456207769746820656d707479206e81526020017f616d65000000000000000000000000000000000000000000000000000000000081525060400191505060405180910390fd5b610cb48585858080601f0160208091040260200160405190810160405280939291908181526020018383808284378201915050505050506114c1565b610cf08583838080601f016020809104026020016040519081016040528093929190818152602001838380828437820191505050505050611601565b5050505050565b610cff6103e3565b73ffffffffffffffffffffffffffffffffffffffff163373ffffffffffffffffffffffffffffffffffffffff16141515610dc7576040517f08c379a00000000000000000000000000000000000000000000000000000000081526004018080602001828103825260258152602001807f4d6573736167652073656e646572206d75737420626520636f6e74726163742081526020017f61646d696e00000000000000000000000000000000000000000000000000000081525060400191505060405180910390fd5b600073ffffffffffffffffffffffffffffffffffffffff168173ffffffffffffffffffffffffffffffffffffffff1614151515610e92576040517f08c379a00000000000000000000000000000000000000000000000000000000081526004018080602001828103825260258152602001807f436f6e7472616374206f776e65722063616e6e6f74206265207a65726f20616481526020017f647265737300000000000000000000000000000000000000000000000000000081525060400191505060405180910390fd5b610e9b816113ce565b50565b600060046000610eac6103b2565b604051602001808273ffffffffffffffffffffffffffffffffffffffff1673ffffffffffffffffffffffffffffffffffffffff166c01000000000000000000000000028152601401807f696e697469616c697a6564000000000000000000000000000000000000000000815250600b019150506040516020818303038152906040526040518082805190602001908083835b602083101515610f635780518252602082019150602081019050602083039250610f3e565b6001836020036101000a03801982511681845116808217855250505050505090500191505060405180910390206000191660001916815260200190815260200160002060009054906101000a900460ff161515611028576040517f08c379a000000000000000000000000000000000000000000000000000000000815260040180806020018281038252601b8152602001807f436f6e7472616374206973206e6f7420696e697469616c697a6564000000000081525060200191505060405180910390fd5b60006110338361103c565b51119050919050565b6060600160008360405160200180807f76616c696461746f72732e000000000000000000000000000000000000000000815250600b018273ffffffffffffffffffffffffffffffffffffffff1673ffffffffffffffffffffffffffffffffffffffff166c01000000000000000000000000028152601401807f2e6e616d650000000000000000000000000000000000000000000000000000008152506005019150506040516020818303038152906040526040518082805190602001908083835b60208310151561112257805182526020820191506020810190506020830392506110fd565b6001836020036101000a0380198251168184511680821785525050505050509050019150506040518091039020600019166000191681526020019081526020016000208054600181600116156101000203166002900480601f0160208091040260200160405190810160405280929190818152602001828054600181600116156101000203166002900480156111f95780601f106111ce576101008083540402835291602001916111f9565b820191906000526020600020905b8154815290600101906020018083116111dc57829003601f168201915b50505050509050919050565b6060600160008360405160200180807f76616c696461746f72732e000000000000000000000000000000000000000000815250600b018273ffffffffffffffffffffffffffffffffffffffff1673ffffffffffffffffffffffffffffffffffffffff166c01000000000000000000000000028152601401807f2e6465736372697074696f6e0000000000000000000000000000000000000000815250600c019150506040516020818303038152906040526040518082805190602001908083835b6020831015156112eb57805182526020820191506020810190506020830392506112c6565b6001836020036101000a0380198251168184511680821785525050505050509050019150506040518091039020600019166000191681526020019081526020016000208054600181600116156101000203166002900480601f0160208091040260200160405190810160405280929190818152602001828054600181600116156101000203166002900480156113c25780601f10611397576101008083540402835291602001916113c2565b820191906000526020600020905b8154815290600101906020018083116113a557829003601f168201915b50505050509050919050565b8073ffffffffffffffffffffffffffffffffffffffff166113ed6103e3565b73ffffffffffffffffffffffffffffffffffffffff167f8be0079c531659141344cd1fd0a4f28419497f9722a3daafe3b4186f6b6457e060405160405180910390a3806002600060405180807f6f776e6572000000000000000000000000000000000000000000000000000000815250600501905060405180910390206000191660001916815260200190815260200160002060006101000a81548173ffffffffffffffffffffffffffffffffffffffff021916908373ffffffffffffffffffffffffffffffffffffffff16021790555050565b80600160008460405160200180807f76616c696461746f72732e000000000000000000000000000000000000000000815250600b018273ffffffffffffffffffffffffffffffffffffffff1673ffffffffffffffffffffffffffffffffffffffff166c01000000000000000000000000028152601401807f2e6e616d650000000000000000000000000000000000000000000000000000008152506005019150506040516020818303038152906040526040518082805190602001908083835b6020831015156115a65780518252602082019150602081019050602083039250611581565b6001836020036101000a03801982511681845116808217855250505050505090500191505060405180910390206000191660001916815260200190815260200160002090805190602001906115fc929190611741565b505050565b80600160008460405160200180807f76616c696461746f72732e000000000000000000000000000000000000000000815250600b018273ffffffffffffffffffffffffffffffffffffffff1673ffffffffffffffffffffffffffffffffffffffff166c01000000000000000000000000028152601401807f2e6465736372697074696f6e0000000000000000000000000000000000000000815250600c019150506040516020818303038152906040526040518082805190602001908083835b6020831015156116e657805182526020820191506020810190506020830392506116c1565b6001836020036101000a038019825116818451168082178552505050505050905001915050604051809103902060001916600019168152602001908152602001600020908051906020019061173c929190611741565b505050565b828054600181600116156101000203166002900490600052602060002090601f016020900481019282601f1061178257805160ff19168380011785556117b0565b828001600101855582156117b0579182015b828111156117af578251825591602001919060010190611794565b5b5090506117bd91906117c1565b5090565b6117e391905b808211156117df5760008160009055506001016117c7565b5090565b905600a165627a7a72305820b8b3776ed124054865b8dff6326f228b521a2882fab903c57f9c6e86048f08d50029",
  "source": "pragma solidity ^0.4.24;\n\nimport \"./CvcValidatorRegistryInterface.sol\";\nimport \"../upgradeability/Initializable.sol\";\nimport \"../upgradeability/EternalStorage.sol\";\nimport \"../upgradeability/Ownable.sol\";\n\n\n/**\n * @title CvcValidatorRegistry\n * @dev This contract is a registry for Identity Validators (IDV). It is part of the marketplace access control mechanism.\n * Only registered and authorized Identity Validators can perform certain actions on marketplace.\n */\ncontract CvcValidatorRegistry is EternalStorage, Initializable, Ownable, CvcValidatorRegistryInterface {\n\n    /**\n    Data structures and storage layout:\n    struct Validator {\n        string name;\n        string description;\n    }\n    mapping(address => Validator) validators;\n    **/\n\n    /**\n    * @dev Constructor: invokes initialization function\n    */\n    constructor() public {\n        initialize(msg.sender);\n    }\n\n    /**\n    * @dev Registers a new Validator or updates the existing one.\n    * @param _idv Validator address.\n    * @param _name Validator name.\n    * @param _description Validator description.\n    */\n    function set(address _idv, string _name, string _description) external onlyInitialized onlyOwner {\n        require(_idv != address(0), \"Cannot register IDV with zero address\");\n        require(bytes(_name).length > 0, \"Cannot register IDV with empty name\");\n\n        setValidatorName(_idv, _name);\n        setValidatorDescription(_idv, _description);\n    }\n\n    /**\n    * @dev Returns Validator data.\n    * @param _idv Validator address.\n    * @return name Validator name.\n    * @return description Validator description.\n    */\n    function get(address _idv) external view onlyInitialized returns (string name, string description) {\n        name = getValidatorName(_idv);\n        description = getValidatorDescription(_idv);\n    }\n\n    /**\n    * @dev Verifies whether Validator is registered.\n    * @param _idv Validator address.\n    * @return bool\n    */\n    function exists(address _idv) external view onlyInitialized returns (bool) {\n        return bytes(getValidatorName(_idv)).length > 0;\n    }\n\n    /**\n    * @dev Contract initialization method.\n    * @param _owner Owner address\n    */\n    function initialize(address _owner) public initializes {\n        setOwner(_owner);\n    }\n\n    /**\n    * @dev Returns Validator name.\n    * @param _idv Validator address.\n    * @return string\n    */\n    function getValidatorName(address _idv) private view returns (string) {\n        // return validators[_idv].name;\n        return stringStorage[keccak256(abi.encodePacked(\"validators.\", _idv, \".name\"))];\n    }\n\n    /**\n    * @dev Saves Validator name.\n    * @param _idv Validator address.\n    * @param _name Validator name.\n    */\n    function setValidatorName(address _idv, string _name) private {\n        // validators[_idv].name = _name;\n        stringStorage[keccak256(abi.encodePacked(\"validators.\", _idv, \".name\"))] = _name;\n    }\n\n    /**\n    * @dev Returns Validator description.\n    * @param _idv Validator address.\n    * @return string\n    */\n    function getValidatorDescription(address _idv) private view returns (string) {\n        // return validators[_idv].description;\n        return stringStorage[keccak256(abi.encodePacked(\"validators.\", _idv, \".description\"))];\n    }\n\n    /**\n    * @dev Saves Validator description.\n    * @param _idv Validator address.\n    * @param _description Validator description.\n    */\n    function setValidatorDescription(address _idv, string _description) private {\n        // validators[_idv].description = _description;\n        stringStorage[keccak256(abi.encodePacked(\"validators.\", _idv, \".description\"))] = _description;\n    }\n\n}\n",
  "compiler": {
    "name": "solc",
    "version": "0.4.24+commit.e67f0147.Emscripten.clang"
  },
  "schemaVersion": "2.0.1",
  "updatedAt": "2018-09-14T13:17:20.211Z"
}